{
  "contractName": "DecentToken",
  "abi": [
    {
      "inputs": [
        {
          "internalType": "string",
          "name": "name",
          "type": "string"
        },
        {
          "internalType": "string",
          "name": "symbol",
          "type": "string"
        },
        {
          "internalType": "address",
          "name": "proxyAddress",
          "type": "address"
        },
        {
          "internalType": "address",
          "name": "rewardAddress",
          "type": "address"
        }
      ],
      "payable": false,
      "stateMutability": "nonpayable",
      "type": "constructor"
    },
    {
      "anonymous": false,
      "inputs": [
        {
          "indexed": true,
          "internalType": "address",
          "name": "owner",
          "type": "address"
        },
        {
          "indexed": true,
          "internalType": "address",
          "name": "approved",
          "type": "address"
        },
        {
          "indexed": true,
          "internalType": "uint256",
          "name": "tokenId",
          "type": "uint256"
        }
      ],
      "name": "Approval",
      "type": "event"
    },
    {
      "anonymous": false,
      "inputs": [
        {
          "indexed": true,
          "internalType": "address",
          "name": "owner",
          "type": "address"
        },
        {
          "indexed": true,
          "internalType": "address",
          "name": "operator",
          "type": "address"
        },
        {
          "indexed": false,
          "internalType": "bool",
          "name": "approved",
          "type": "bool"
        }
      ],
      "name": "ApprovalForAll",
      "type": "event"
    },
    {
      "anonymous": false,
      "inputs": [
        {
          "indexed": true,
          "internalType": "address",
          "name": "previousOwner",
          "type": "address"
        },
        {
          "indexed": true,
          "internalType": "address",
          "name": "newOwner",
          "type": "address"
        }
      ],
      "name": "OwnershipTransferred",
      "type": "event"
    },
    {
      "anonymous": false,
      "inputs": [
        {
          "indexed": true,
          "internalType": "address",
          "name": "from",
          "type": "address"
        },
        {
          "indexed": true,
          "internalType": "address",
          "name": "to",
          "type": "address"
        },
        {
          "indexed": true,
          "internalType": "uint256",
          "name": "tokenId",
          "type": "uint256"
        }
      ],
      "name": "Transfer",
      "type": "event"
    },
    {
      "constant": false,
      "inputs": [
        {
          "internalType": "uint256",
          "name": "_tokenId",
          "type": "uint256"
        }
      ],
      "name": "AwakenInvestor",
      "outputs": [],
      "payable": false,
      "stateMutability": "nonpayable",
      "type": "function"
    },
    {
      "constant": true,
      "inputs": [
        {
          "internalType": "uint256",
          "name": "_tokenId",
          "type": "uint256"
        }
      ],
      "name": "InvestorInfo",
      "outputs": [
        {
          "internalType": "string",
          "name": "_Job",
          "type": "string"
        },
        {
          "internalType": "string",
          "name": "_Personality",
          "type": "string"
        },
        {
          "internalType": "string",
          "name": "_Passive1Name",
          "type": "string"
        },
        {
          "internalType": "string",
          "name": "_Passive2Name",
          "type": "string"
        },
        {
          "internalType": "string",
          "name": "_Passive3Name",
          "type": "string"
        },
        {
          "internalType": "string",
          "name": "_AwakeningName",
          "type": "string"
        },
        {
          "internalType": "uint256[3]",
          "name": "_PassiveValues",
          "type": "uint256[3]"
        }
      ],
      "payable": false,
      "stateMutability": "view",
      "type": "function"
    },
    {
      "constant": false,
      "inputs": [
        {
          "internalType": "address",
          "name": "_whitelistAddress",
          "type": "address"
        }
      ],
      "name": "addWhitelist",
      "outputs": [],
      "payable": false,
      "stateMutability": "nonpayable",
      "type": "function"
    },
    {
      "constant": false,
      "inputs": [
        {
          "internalType": "address",
          "name": "user",
          "type": "address"
        },
        {
          "internalType": "uint256",
          "name": "requestedCount",
          "type": "uint256"
        }
      ],
      "name": "airDropMint",
      "outputs": [],
      "payable": false,
      "stateMutability": "nonpayable",
      "type": "function"
    },
    {
      "constant": false,
      "inputs": [
        {
          "internalType": "address",
          "name": "to",
          "type": "address"
        },
        {
          "internalType": "uint256",
          "name": "tokenId",
          "type": "uint256"
        }
      ],
      "name": "approve",
      "outputs": [],
      "payable": false,
      "stateMutability": "nonpayable",
      "type": "function"
    },
    {
      "constant": true,
      "inputs": [
        {
          "internalType": "address",
          "name": "owner",
          "type": "address"
        }
      ],
      "name": "balanceOf",
      "outputs": [
        {
          "internalType": "uint256",
          "name": "",
          "type": "uint256"
        }
      ],
      "payable": false,
      "stateMutability": "view",
      "type": "function"
    },
    {
      "constant": false,
      "inputs": [
        {
          "internalType": "uint256",
          "name": "_tokenId",
          "type": "uint256"
        }
      ],
      "name": "endBattle",
      "outputs": [],
      "payable": false,
      "stateMutability": "nonpayable",
      "type": "function"
    },
    {
      "constant": true,
      "inputs": [],
      "name": "getActiveStatus",
      "outputs": [
        {
          "internalType": "bool",
          "name": "",
          "type": "bool"
        },
        {
          "internalType": "bool",
          "name": "",
          "type": "bool"
        }
      ],
      "payable": false,
      "stateMutability": "view",
      "type": "function"
    },
    {
      "constant": true,
      "inputs": [
        {
          "internalType": "uint256",
          "name": "tokenId",
          "type": "uint256"
        }
      ],
      "name": "getApproved",
      "outputs": [
        {
          "internalType": "address",
          "name": "",
          "type": "address"
        }
      ],
      "payable": false,
      "stateMutability": "view",
      "type": "function"
    },
    {
      "constant": true,
      "inputs": [],
      "name": "getProjectBaseIpfsURI",
      "outputs": [
        {
          "internalType": "string",
          "name": "",
          "type": "string"
        }
      ],
      "payable": false,
      "stateMutability": "view",
      "type": "function"
    },
    {
      "constant": true,
      "inputs": [],
      "name": "getProxyAddress",
      "outputs": [
        {
          "internalType": "address",
          "name": "",
          "type": "address"
        }
      ],
      "payable": false,
      "stateMutability": "view",
      "type": "function"
    },
    {
      "constant": true,
      "inputs": [],
      "name": "getRewardAddress",
      "outputs": [
        {
          "internalType": "address",
          "name": "",
          "type": "address"
        }
      ],
      "payable": false,
      "stateMutability": "view",
      "type": "function"
    },
    {
      "constant": true,
      "inputs": [
        {
          "internalType": "address",
          "name": "owner",
          "type": "address"
        },
        {
          "internalType": "address",
          "name": "operator",
          "type": "address"
        }
      ],
      "name": "isApprovedForAll",
      "outputs": [
        {
          "internalType": "bool",
          "name": "",
          "type": "bool"
        }
      ],
      "payable": false,
      "stateMutability": "view",
      "type": "function"
    },
    {
      "constant": true,
      "inputs": [
        {
          "internalType": "uint256",
          "name": "_tokenId",
          "type": "uint256"
        }
      ],
      "name": "isOnBattle",
      "outputs": [
        {
          "internalType": "bool",
          "name": "",
          "type": "bool"
        }
      ],
      "payable": false,
      "stateMutability": "view",
      "type": "function"
    },
    {
      "constant": true,
      "inputs": [],
      "name": "isOwner",
      "outputs": [
        {
          "internalType": "bool",
          "name": "",
          "type": "bool"
        }
      ],
      "payable": false,
      "stateMutability": "view",
      "type": "function"
    },
    {
      "constant": true,
      "inputs": [],
      "name": "mintingInformation",
      "outputs": [
        {
          "internalType": "uint256[7]",
          "name": "",
          "type": "uint256[7]"
        }
      ],
      "payable": false,
      "stateMutability": "view",
      "type": "function"
    },
    {
      "constant": true,
      "inputs": [],
      "name": "name",
      "outputs": [
        {
          "internalType": "string",
          "name": "",
          "type": "string"
        }
      ],
      "payable": false,
      "stateMutability": "view",
      "type": "function"
    },
    {
      "constant": true,
      "inputs": [],
      "name": "owner",
      "outputs": [
        {
          "internalType": "address payable",
          "name": "",
          "type": "address"
        }
      ],
      "payable": false,
      "stateMutability": "view",
      "type": "function"
    },
    {
      "constant": true,
      "inputs": [
        {
          "internalType": "uint256",
          "name": "tokenId",
          "type": "uint256"
        }
      ],
      "name": "ownerOf",
      "outputs": [
        {
          "internalType": "address",
          "name": "",
          "type": "address"
        }
      ],
      "payable": false,
      "stateMutability": "view",
      "type": "function"
    },
    {
      "constant": false,
      "inputs": [
        {
          "internalType": "uint256",
          "name": "requestedCount",
          "type": "uint256"
        }
      ],
      "name": "publicMint",
      "outputs": [],
      "payable": true,
      "stateMutability": "payable",
      "type": "function"
    },
    {
      "constant": false,
      "inputs": [
        {
          "internalType": "address",
          "name": "_whitelistAddress",
          "type": "address"
        }
      ],
      "name": "removeWhitelist",
      "outputs": [],
      "payable": false,
      "stateMutability": "nonpayable",
      "type": "function"
    },
    {
      "constant": false,
      "inputs": [],
      "name": "renounceOwnership",
      "outputs": [],
      "payable": false,
      "stateMutability": "nonpayable",
      "type": "function"
    },
    {
      "constant": false,
      "inputs": [
        {
          "internalType": "address",
          "name": "from",
          "type": "address"
        },
        {
          "internalType": "address",
          "name": "to",
          "type": "address"
        },
        {
          "internalType": "uint256",
          "name": "tokenId",
          "type": "uint256"
        }
      ],
      "name": "safeTransferFrom",
      "outputs": [],
      "payable": false,
      "stateMutability": "nonpayable",
      "type": "function"
    },
    {
      "constant": false,
      "inputs": [
        {
          "internalType": "address",
          "name": "from",
          "type": "address"
        },
        {
          "internalType": "address",
          "name": "to",
          "type": "address"
        },
        {
          "internalType": "uint256",
          "name": "tokenId",
          "type": "uint256"
        },
        {
          "internalType": "bytes",
          "name": "_data",
          "type": "bytes"
        }
      ],
      "name": "safeTransferFrom",
      "outputs": [],
      "payable": false,
      "stateMutability": "nonpayable",
      "type": "function"
    },
    {
      "constant": false,
      "inputs": [
        {
          "internalType": "address",
          "name": "to",
          "type": "address"
        },
        {
          "internalType": "bool",
          "name": "approved",
          "type": "bool"
        }
      ],
      "name": "setApprovalForAll",
      "outputs": [],
      "payable": false,
      "stateMutability": "nonpayable",
      "type": "function"
    },
    {
      "constant": false,
      "inputs": [
        {
          "internalType": "address",
          "name": "_newProxyAddress",
          "type": "address"
        }
      ],
      "name": "setProxyAddress",
      "outputs": [],
      "payable": false,
      "stateMutability": "nonpayable",
      "type": "function"
    },
    {
      "constant": false,
      "inputs": [
        {
          "internalType": "address",
          "name": "_newRewardAddress",
          "type": "address"
        }
      ],
      "name": "setRewardAddress",
      "outputs": [],
      "payable": false,
      "stateMutability": "nonpayable",
      "type": "function"
    },
    {
      "constant": false,
      "inputs": [
        {
          "internalType": "uint256",
          "name": "_tokenId",
          "type": "uint256"
        }
      ],
      "name": "startBattle",
      "outputs": [],
      "payable": false,
      "stateMutability": "nonpayable",
      "type": "function"
    },
    {
      "constant": true,
      "inputs": [
        {
          "internalType": "bytes4",
          "name": "interfaceId",
          "type": "bytes4"
        }
      ],
      "name": "supportsInterface",
      "outputs": [
        {
          "internalType": "bool",
          "name": "",
          "type": "bool"
        }
      ],
      "payable": false,
      "stateMutability": "view",
      "type": "function"
    },
    {
      "constant": true,
      "inputs": [],
      "name": "symbol",
      "outputs": [
        {
          "internalType": "string",
          "name": "",
          "type": "string"
        }
      ],
      "payable": false,
      "stateMutability": "view",
      "type": "function"
    },
    {
      "constant": false,
      "inputs": [],
      "name": "toggleActive",
      "outputs": [],
      "payable": false,
      "stateMutability": "nonpayable",
      "type": "function"
    },
    {
      "constant": false,
      "inputs": [],
      "name": "toggleWhitelistMintEnabled",
      "outputs": [],
      "payable": false,
      "stateMutability": "nonpayable",
      "type": "function"
    },
    {
      "constant": true,
      "inputs": [
        {
          "internalType": "uint256",
          "name": "index",
          "type": "uint256"
        }
      ],
      "name": "tokenByIndex",
      "outputs": [
        {
          "internalType": "uint256",
          "name": "",
          "type": "uint256"
        }
      ],
      "payable": false,
      "stateMutability": "view",
      "type": "function"
    },
    {
      "constant": true,
      "inputs": [
        {
          "internalType": "address",
          "name": "owner",
          "type": "address"
        },
        {
          "internalType": "uint256",
          "name": "index",
          "type": "uint256"
        }
      ],
      "name": "tokenOfOwnerByIndex",
      "outputs": [
        {
          "internalType": "uint256",
          "name": "",
          "type": "uint256"
        }
      ],
      "payable": false,
      "stateMutability": "view",
      "type": "function"
    },
    {
      "constant": true,
      "inputs": [
        {
          "internalType": "uint256",
          "name": "_tokenId",
          "type": "uint256"
        }
      ],
      "name": "tokenURI",
      "outputs": [
        {
          "internalType": "string",
          "name": "",
          "type": "string"
        }
      ],
      "payable": false,
      "stateMutability": "view",
      "type": "function"
    },
    {
      "constant": true,
      "inputs": [],
      "name": "totalSupply",
      "outputs": [
        {
          "internalType": "uint256",
          "name": "",
          "type": "uint256"
        }
      ],
      "payable": false,
      "stateMutability": "view",
      "type": "function"
    },
    {
      "constant": false,
      "inputs": [
        {
          "internalType": "address",
          "name": "from",
          "type": "address"
        },
        {
          "internalType": "address",
          "name": "to",
          "type": "address"
        },
        {
          "internalType": "uint256",
          "name": "tokenId",
          "type": "uint256"
        }
      ],
      "name": "transferFrom",
      "outputs": [],
      "payable": false,
      "stateMutability": "nonpayable",
      "type": "function"
    },
    {
      "constant": false,
      "inputs": [
        {
          "internalType": "address payable",
          "name": "newOwner",
          "type": "address"
        }
      ],
      "name": "transferOwnership",
      "outputs": [],
      "payable": false,
      "stateMutability": "nonpayable",
      "type": "function"
    },
    {
      "constant": false,
      "inputs": [
        {
          "internalType": "uint256",
          "name": "_interval",
          "type": "uint256"
        }
      ],
      "name": "updateAntibotInterval",
      "outputs": [],
      "payable": false,
      "stateMutability": "nonpayable",
      "type": "function"
    },
    {
      "constant": false,
      "inputs": [
        {
          "internalType": "uint256",
          "name": "_limit",
          "type": "uint256"
        }
      ],
      "name": "updateMintLimitPerBlock",
      "outputs": [],
      "payable": false,
      "stateMutability": "nonpayable",
      "type": "function"
    },
    {
      "constant": false,
      "inputs": [
        {
          "internalType": "uint256",
          "name": "_blockNumber",
          "type": "uint256"
        }
      ],
      "name": "updateMintStartBlockNumber",
      "outputs": [],
      "payable": false,
      "stateMutability": "nonpayable",
      "type": "function"
    },
    {
      "constant": false,
      "inputs": [
        {
          "internalType": "string",
          "name": "_projectBaseIpfsURI",
          "type": "string"
        }
      ],
      "name": "updateProjectBaseIpfsURI",
      "outputs": [],
      "payable": false,
      "stateMutability": "nonpayable",
      "type": "function"
    },
    {
      "constant": false,
      "inputs": [
        {
          "internalType": "uint256",
          "name": "_maxInvocations",
          "type": "uint256"
        }
      ],
      "name": "updateProjectMaxInvocations",
      "outputs": [],
      "payable": false,
      "stateMutability": "nonpayable",
      "type": "function"
    },
    {
      "constant": false,
      "inputs": [
        {
          "internalType": "uint256",
          "name": "_price",
          "type": "uint256"
        }
      ],
      "name": "updateProjectPricePerTokenInPeb",
      "outputs": [],
      "payable": false,
      "stateMutability": "nonpayable",
      "type": "function"
    },
    {
      "constant": false,
      "inputs": [
        {
          "internalType": "uint256",
          "name": "_price",
          "type": "uint256"
        }
      ],
      "name": "updateProjectWhitelistPricePerTokenInPeb",
      "outputs": [],
      "payable": false,
      "stateMutability": "nonpayable",
      "type": "function"
    },
    {
      "constant": true,
      "inputs": [
        {
          "internalType": "address",
          "name": "",
          "type": "address"
        }
      ],
      "name": "whitelistAddress",
      "outputs": [
        {
          "internalType": "bool",
          "name": "",
          "type": "bool"
        }
      ],
      "payable": false,
      "stateMutability": "view",
      "type": "function"
    },
    {
      "constant": false,
      "inputs": [
        {
          "internalType": "uint256",
          "name": "requestedCount",
          "type": "uint256"
        }
      ],
      "name": "whitelistMint",
      "outputs": [],
      "payable": true,
      "stateMutability": "payable",
      "type": "function"
    },
    {
      "constant": false,
      "inputs": [],
      "name": "withdraw",
      "outputs": [],
      "payable": false,
      "stateMutability": "nonpayable",
      "type": "function"
    }
  ],
  "bytecode": "0x6080604052615460600f5560016013819055601a805460ff199081169092179055601d805490911690553480156200003657600080fd5b506040516200491738038062004917833981810160405260808110156200005c57600080fd5b81019080805160405193929190846401000000008211156200007d57600080fd5b9083019060208201858111156200009357600080fd5b8251640100000000811182820188101715620000ae57600080fd5b82525081516020918201929091019080838360005b83811015620000dd578181015183820152602001620000c3565b50505050905090810190601f1680156200010b5780820380516001836020036101000a031916815260200191505b50604052602001805160405193929190846401000000008211156200012f57600080fd5b9083019060208201858111156200014557600080fd5b82516401000000008111828201881017156200016057600080fd5b82525081516020918201929091019080838360005b838110156200018f57818101518382015260200162000175565b50505050905090810190601f168015620001bd5780820380516001836020036101000a031916815260200191505b5060409081526020820151910151909250905081818585620001ef6301ffc9a760e01b6001600160e01b03620002f116565b6200020a6380ac58cd60e01b6001600160e01b03620002f116565b6200022563780e9d6360e01b6001600160e01b03620002f116565b81516200023a90600990602085019062000376565b5080516200025090600a90602084019062000376565b506200026c635b5e139f60e01b6001600160e01b03620002f116565b5050600b80546001600160a01b0319163317908190556040516001600160a01b0391909116906000907f8be0079c531659141344cd1fd0a4f28419497f9722a3daafe3b4186f6b6457e0908290a3600c80546001600160a01b039384166001600160a01b031991821617909155600d8054929093169116179055506200041b92505050565b6001600160e01b0319808216141562000351576040805162461bcd60e51b815260206004820152601b60248201527f4b495031333a20696e76616c696420696e746572666163652069640000000000604482015290519081900360640190fd5b6001600160e01b0319166000908152602081905260409020805460ff19166001179055565b828054600181600116156101000203166002900490600052602060002090601f016020900481019282601f10620003b957805160ff1916838001178555620003e9565b82800160010185558215620003e9579182015b82811115620003e9578251825591602001919060010190620003cc565b50620003f7929150620003fb565b5090565b6200041891905b80821115620003f7576000815560010162000402565b90565b6144ec806200042b6000396000f3fe6080604052600436106102935760003560e01c806371b20a101161015a578063a22cb465116100c1578063cb01cf061161007a578063cb01cf0614610b17578063e540611a14610de3578063e985e9c514610e0d578063f2fde38b14610e48578063f3e6761014610e7b578063f80f5dd514610eab57610293565b8063a22cb4651461098d578063b88d4fde146109c8578063bf9321fc14610a99578063c4e7051414610aae578063c5319aa814610ad8578063c87b56dd14610aed57610293565b80638e6807f8116101135780638e6807f8146108bb5780638eb9ef72146108e55780638f32d59b1461090f57806391bc61651461092457806395d89b411461094e578063974409281461096357610293565b806371b20a101461074257806375a1ed08146107f357806377eccb621461082c57806378c8cda714610856578063868ff4a2146108895780638da5cb5b146108a657610293565b80633ccfd60b116101fe57806349a44af1116101b757806349a44af1146106495780634f6ccce7146106735780635e00e6791461069d5780636352211e146106d057806370a08231146106fa578063715018a61461072d57610293565b80633ccfd60b1461054c57806341566585146105615780634157e6ef1461059457806342842e0e146105be57806343a73d9a1461060157806346a7dadc1461061657610293565b80631dd8792b116102505780631dd8792b1461043c57806323b872dd1461048957806329c68dc1146104cc5780632db11544146104e15780632f745c59146104fe57806332b953721461053757610293565b806301ffc9a71461029857806306fdde03146102e0578063081812fc1461036a578063095ea7b3146103b057806318160ddd146103eb5780631b5f592114610412575b600080fd5b3480156102a457600080fd5b506102cc600480360360208110156102bb57600080fd5b50356001600160e01b031916610ede565b604080519115158252519081900360200190f35b3480156102ec57600080fd5b506102f5610f01565b6040805160208082528351818301528351919283929083019185019080838360005b8381101561032f578181015183820152602001610317565b50505050905090810190601f16801561035c5780820380516001836020036101000a031916815260200191505b509250505060405180910390f35b34801561037657600080fd5b506103946004803603602081101561038d57600080fd5b5035610f98565b604080516001600160a01b039092168252519081900360200190f35b3480156103bc57600080fd5b506103e9600480360360408110156103d357600080fd5b506001600160a01b038135169060200135610ffa565b005b3480156103f757600080fd5b50610400611121565b60408051918252519081900360200190f35b34801561041e57600080fd5b506103e96004803603602081101561043557600080fd5b5035611127565b34801561044857600080fd5b50610451611173565b604051808260e080838360005b8381101561047657818101518382015260200161045e565b5050505090500191505060405180910390f35b34801561049557600080fd5b506103e9600480360360608110156104ac57600080fd5b506001600160a01b038135811691602081013590911690604001356111c1565b3480156104d857600080fd5b506103e9611216565b6103e9600480360360208110156104f757600080fd5b5035611271565b34801561050a57600080fd5b506104006004803603604081101561052157600080fd5b506001600160a01b0381351690602001356114db565b34801561054357600080fd5b506103e961155b565b34801561055857600080fd5b506103e96115b6565b34801561056d57600080fd5b506102cc6004803603602081101561058457600080fd5b50356001600160a01b0316611655565b3480156105a057600080fd5b506103e9600480360360208110156105b757600080fd5b503561166a565b3480156105ca57600080fd5b506103e9600480360360608110156105e157600080fd5b506001600160a01b03813581169160208101359091169060400135611794565b34801561060d57600080fd5b506103946117af565b34801561062257600080fd5b506103e96004803603602081101561063957600080fd5b50356001600160a01b03166117be565b34801561065557600080fd5b506102cc6004803603602081101561066c57600080fd5b5035611827565b34801561067f57600080fd5b506104006004803603602081101561069657600080fd5b5035611841565b3480156106a957600080fd5b506103e9600480360360208110156106c057600080fd5b50356001600160a01b03166118a7565b3480156106dc57600080fd5b50610394600480360360208110156106f357600080fd5b5035611910565b34801561070657600080fd5b506104006004803603602081101561071d57600080fd5b50356001600160a01b0316611964565b34801561073957600080fd5b506103e96119cc565b34801561074e57600080fd5b506103e96004803603602081101561076557600080fd5b810190602081018135600160201b81111561077f57600080fd5b82018360208201111561079157600080fd5b803590602001918460018302840111600160201b831117156107b257600080fd5b91908080601f016020809104026020016040519081016040528093929190818152602001838380828437600092019190915250929550611a5d945050505050565b3480156107ff57600080fd5b506103e96004803603604081101561081657600080fd5b506001600160a01b038135169060200135611ab7565b34801561083857600080fd5b506103e96004803603602081101561084f57600080fd5b5035611b83565b34801561086257600080fd5b506103e96004803603602081101561087957600080fd5b50356001600160a01b0316611bcf565b6103e96004803603602081101561089f57600080fd5b5035611c37565b3480156108b257600080fd5b50610394611e45565b3480156108c757600080fd5b506103e9600480360360208110156108de57600080fd5b5035611e54565b3480156108f157600080fd5b506103e96004803603602081101561090857600080fd5b503561208a565b34801561091b57600080fd5b506102cc6120d6565b34801561093057600080fd5b506103e96004803603602081101561094757600080fd5b50356120e7565b34801561095a57600080fd5b506102f56123f7565b34801561096f57600080fd5b506103e96004803603602081101561098657600080fd5b5035612458565b34801561099957600080fd5b506103e9600480360360408110156109b057600080fd5b506001600160a01b03813516906020013515156124a4565b3480156109d457600080fd5b506103e9600480360360808110156109eb57600080fd5b6001600160a01b03823581169260208101359091169160408201359190810190608081016060820135600160201b811115610a2557600080fd5b820183602082011115610a3757600080fd5b803590602001918460018302840111600160201b83111715610a5857600080fd5b91908080601f016020809104026020016040519081016040528093929190818152602001838380828437600092019190915250929550612570945050505050565b348015610aa557600080fd5b506103946125c8565b348015610aba57600080fd5b506103e960048036036020811015610ad157600080fd5b50356125d7565b348015610ae457600080fd5b506102f5612623565b348015610af957600080fd5b506102f560048036036020811015610b1057600080fd5b5035612684565b348015610b2357600080fd5b50610b4160048036036020811015610b3a57600080fd5b50356127ec565b6040518080602001806020018060200180602001806020018060200188600360200280838360005b83811015610b81578181015183820152602001610b69565b5050505090500187810387528e818151815260200191508051906020019080838360005b83811015610bbd578181015183820152602001610ba5565b50505050905090810190601f168015610bea5780820380516001836020036101000a031916815260200191505b5087810386528d5181528d516020918201918f019080838360005b83811015610c1d578181015183820152602001610c05565b50505050905090810190601f168015610c4a5780820380516001836020036101000a031916815260200191505b5087810385528c5181528c516020918201918e019080838360005b83811015610c7d578181015183820152602001610c65565b50505050905090810190601f168015610caa5780820380516001836020036101000a031916815260200191505b5087810384528b5181528b516020918201918d019080838360005b83811015610cdd578181015183820152602001610cc5565b50505050905090810190601f168015610d0a5780820380516001836020036101000a031916815260200191505b5087810383528a5181528a516020918201918c019080838360005b83811015610d3d578181015183820152602001610d25565b50505050905090810190601f168015610d6a5780820380516001836020036101000a031916815260200191505b5087810382528951815289516020918201918b019080838360005b83811015610d9d578181015183820152602001610d85565b50505050905090810190601f168015610dca5780820380516001836020036101000a031916815260200191505b509d505050505050505050505050505060405180910390f35b348015610def57600080fd5b506103e960048036036020811015610e0657600080fd5b5035612c81565b348015610e1957600080fd5b506102cc60048036036040811015610e3057600080fd5b506001600160a01b0381358116916020013516612ccd565b348015610e5457600080fd5b506103e960048036036020811015610e6b57600080fd5b50356001600160a01b0316612cfb565b348015610e8757600080fd5b50610e90612d4b565b60408051921515835290151560208301528051918290030190f35b348015610eb757600080fd5b506103e960048036036020811015610ece57600080fd5b50356001600160a01b0316612d5c565b6001600160e01b0319811660009081526020819052604090205460ff165b919050565b60098054604080516020601f6002600019610100600188161502019095169490940493840181900481028201810190925282815260609390929091830182828015610f8d5780601f10610f6257610100808354040283529160200191610f8d565b820191906000526020600020905b815481529060010190602001808311610f7057829003601f168201915b505050505090505b90565b6000610fa382612dc7565b610fde5760405162461bcd60e51b815260040180806020018281038252602b81526020018061442b602b913960400191505060405180910390fd5b506000908152600260205260409020546001600160a01b031690565b600061100582611910565b9050806001600160a01b0316836001600160a01b0316141561106e576040805162461bcd60e51b815260206004820181905260248201527f4b495031373a20617070726f76616c20746f2063757272656e74206f776e6572604482015290519081900360640190fd5b336001600160a01b038216148061108a575061108a8133612ccd565b6110c55760405162461bcd60e51b81526004018080602001828103825260378152602001806144566037913960400191505060405180910390fd5b60008281526002602052604080822080546001600160a01b0319166001600160a01b0387811691821790925591518593918516917f8c5be1e5ebec7d5bd14f71427d1e84f3dd0314c0f7b2291e5b200ac8c7c3b92591a4505050565b60075490565b61112f6120d6565b61116e576040805162461bcd60e51b8152602060048201819052602482015260008051602061433d833981519152604482015290519081900360640190fd5b601655565b61117b614118565b6040518060e00160405280601254815260200160175481526020016018548152602001601554815260200160165481526020016013548152602001601954815250905090565b6111cb3382612de4565b6112065760405162461bcd60e51b815260040180806020018281038252603081526020018061430d6030913960400191505060405180910390fd5b611211838383612e88565b505050565b61121e6120d6565b61125d576040805162461bcd60e51b8152602060048201819052602482015260008051602061433d833981519152604482015290519081900360640190fd5b601a805460ff19811660ff90911615179055565b601a5460ff166112c8576040805162461bcd60e51b815260206004820152601f60248201527f546865207075626c69632073616c65206973206e6f7420656e61626c65642100604482015290519081900360640190fd5b6012543360009081526011602052604090205443916112ed919063ffffffff612ea716565b10611334576040805162461bcd60e51b8152602060048201526012602482015271109bdd081a5cc81b9bdd08185b1b1bddd95960721b604482015290519081900360640190fd5b60185443101561137d576040805162461bcd60e51b815260206004820152600f60248201526e139bdd081e595d081cdd185c9d1959608a1b604482015290519081900360640190fd5b60008111801561138f57506017548111155b6113ca5760405162461bcd60e51b81526004018080602001828103825260218152602001806142336021913960400191505060405180910390fd5b6015546113dd908263ffffffff612f0116565b3414611422576040805162461bcd60e51b815260206004820152600f60248201526e4e6f7420656e6f756768204b6c617960881b604482015290519081900360640190fd5b60195460010161143d82601354612ea790919063ffffffff16565b1115611484576040805162461bcd60e51b8152602060048201526011602482015270115e18d95959081b585e08185b5bdd5b9d607a1b604482015290519081900360640190fd5b60005b818110156114c55761149b33601354612f5a565b6114a6601354612f77565b6013546114ba90600163ffffffff612ea716565b601355600101611487565b5050336000908152601160205260409020439055565b60006114e683611964565b82106115235760405162461bcd60e51b815260040180806020018281038252602a81526020018061429a602a913960400191505060405180910390fd5b6001600160a01b038316600090815260056020526040902080548390811061154757fe5b906000526020600020015490505b92915050565b6115636120d6565b6115a2576040805162461bcd60e51b8152602060048201819052602482015260008051602061433d833981519152604482015290519081900360640190fd5b601d805460ff19811660ff90911615179055565b6115be6120d6565b6115fd576040805162461bcd60e51b8152602060048201819052602482015260008051602061433d833981519152604482015290519081900360640190fd5b604051600090339047908381818185875af1925050503d806000811461163f576040519150601f19603f3d011682016040523d82523d6000602084013e611644565b606091505b505090508061165257600080fd5b50565b601c6020526000908152604090205460ff1681565b803361167582611910565b6001600160a01b0316146116ba5760405162461bcd60e51b81526004018080602001828103825260238152602001806142776023913960400191505060405180910390fd5b60008281526010602052604090206002015460ff16611710576040805162461bcd60e51b815260206004820152600d60248201526c6e6f74206f6e20626174746c6560981b604482015290519081900360640190fd5b600f54600083815260106020526040902054430311611769576040805162461bcd60e51b815260206004820152601060248201526f18985d1d1b19481b9bdd08195b99195960821b604482015290519081900360640190fd5b600082815260106020526040902060028101805460ff191690556001015461179090613580565b5050565b61121183838360405180602001604052806000815250612570565b600c546001600160a01b031690565b6117c66120d6565b611805576040805162461bcd60e51b8152602060048201819052602482015260008051602061433d833981519152604482015290519081900360640190fd5b600c80546001600160a01b0319166001600160a01b0392909216919091179055565b600f54600091825260106020526040909120544391011190565b600061184b611121565b82106118885760405162461bcd60e51b815260040180806020018281038252602b8152602001806143de602b913960400191505060405180910390fd5b6007828154811061189557fe5b90600052602060002001549050919050565b6118af6120d6565b6118ee576040805162461bcd60e51b8152602060048201819052602482015260008051602061433d833981519152604482015290519081900360640190fd5b600d80546001600160a01b0319166001600160a01b0392909216919091179055565b6000818152600160205260408120546001600160a01b0316806115555760405162461bcd60e51b81526004018080602001828103825260288152602001806142c46028913960400191505060405180910390fd5b60006001600160a01b0382166119ab5760405162461bcd60e51b815260040180806020018281038252602981526020018061438d6029913960400191505060405180910390fd5b6001600160a01b0382166000908152600360205260409020611555906136b4565b6119d46120d6565b611a13576040805162461bcd60e51b8152602060048201819052602482015260008051602061433d833981519152604482015290519081900360640190fd5b600b546040516000916001600160a01b0316907f8be0079c531659141344cd1fd0a4f28419497f9722a3daafe3b4186f6b6457e0908390a3600b80546001600160a01b0319169055565b611a656120d6565b611aa4576040805162461bcd60e51b8152602060048201819052602482015260008051602061433d833981519152604482015290519081900360640190fd5b8051611790906014906020840190614136565b611abf6120d6565b611afe576040805162461bcd60e51b8152602060048201819052602482015260008051602061433d833981519152604482015290519081900360640190fd5b60008111611b42576040805162461bcd60e51b815260206004820152600c60248201526b1e995c9bc81c995c5d595cdd60a21b604482015290519081900360640190fd5b60005b8181101561121157611b5983601354612f5a565b611b64601354612f77565b601354611b7890600163ffffffff612ea716565b601355600101611b45565b611b8b6120d6565b611bca576040805162461bcd60e51b8152602060048201819052602482015260008051602061433d833981519152604482015290519081900360640190fd5b601555565b611bd76120d6565b611c16576040805162461bcd60e51b8152602060048201819052602482015260008051602061433d833981519152604482015290519081900360640190fd5b6001600160a01b03166000908152601c60205260409020805460ff19169055565b601d5460ff16611c785760405162461bcd60e51b81526004018080602001828103825260228152602001806144096022913960400191505060405180910390fd5b601654611c8b908263ffffffff612f0116565b3414611cd0576040805162461bcd60e51b815260206004820152600f60248201526e4e6f7420656e6f756768204b6c617960881b604482015290519081900360640190fd5b336000908152601b602052604090205460ff1615611d35576040805162461bcd60e51b815260206004820152601860248201527f4164647265737320616c726561647920636c61696d6564210000000000000000604482015290519081900360640190fd5b336000908152601c602052604090205460ff16611d99576040805162461bcd60e51b815260206004820152601a60248201527f73656e646572206973206e6f74206f6e2057686974656c697374000000000000604482015290519081900360640190fd5b600081118015611dab57506017548111155b611de65760405162461bcd60e51b81526004018080602001828103825260218152602001806142336021913960400191505060405180910390fd5b60005b81811015611e2757611dfd33601354612f5a565b611e08601354612f77565b601354611e1c90600163ffffffff612ea716565b601355600101611de9565b5050336000908152601b60205260409020805460ff19166001179055565b600b546001600160a01b031690565b8033611e5f82611910565b6001600160a01b031614611ea45760405162461bcd60e51b81526004018080602001828103825260238152602001806142776023913960400191505060405180910390fd5b60008281526010602052604090206002015460ff1615611f0b576040805162461bcd60e51b815260206004820152601a60248201527f696e766573746f7220616c7265616479206f6e20626174746c65000000000000604482015290519081900360640190fd5b600082815260106020908152604080832043905580516024808201879052825180830390910181526044909101825291820180516001600160e01b0316630171928160e51b178152600c54915183519394936060936001600160a01b0316928692918291908083835b60208310611f935780518252601f199092019160209182019101611f74565b6001836020036101000a0380198251168184511680821785525050505050509050019150506000604051808303816000865af19150503d8060008114611ff5576040519150601f19603f3d011682016040523d82523d6000602084013e611ffa565b606091505b509150915081612043576040805162461bcd60e51b815260206004820152600f60248201526e19d95d14dd1859d94819985a5b1959608a1b604482015290519081900360640190fd5b600081806020019051602081101561205a57600080fd5b5051600096875260106020526040909620600180820197909755600201805460ff19169096179095555050505050565b6120926120d6565b6120d1576040805162461bcd60e51b8152602060048201819052602482015260008051602061433d833981519152604482015290519081900360640190fd5b601255565b600b546001600160a01b0316331490565b80336120f282611910565b6001600160a01b0316146121375760405162461bcd60e51b81526004018080602001828103825260238152602001806142776023913960400191505060405180910390fd5b6000828152600e6020526040902060050154602d1180159061216b57506000828152600e6020526040902060060154602d11155b801561218957506000828152600e6020526040902060070154602d11155b6121da576040805162461bcd60e51b815260206004820152601a60248201527f6e6f7420656e6f7567682073746174757320746f206177616b65000000000000604482015290519081900360640190fd5b60408051600481526024810182526020810180516001600160e01b0316631597a25960e11b178152600c549251825192936000936060936001600160a01b0390921692869290918291908083835b602083106122475780518252601f199092019160209182019101612228565b6001836020036101000a0380198251168184511680821785525050505050509050019150506000604051808303816000865af19150503d80600081146122a9576040519150601f19603f3d011682016040523d82523d6000602084013e6122ae565b606091505b509150915060608180602001905160208110156122ca57600080fd5b8101908080516040519392919084600160201b8211156122e957600080fd5b9083019060208201858111156122fe57600080fd5b8251600160201b81118282018810171561231757600080fd5b82525081516020918201929091019080838360005b8381101561234457818101518382015260200161232c565b50505050905090810190601f1680156123715780820380516001836020036101000a031916815260200191505b50604052505050905080600e600088815260200190815260200160002060080190805190602001906123a4929190614136565b50826123ef576040805162461bcd60e51b8152602060048201526015602482015274105dd85ad95b925b9d995cdd1bdc8819985a5b1959605a1b604482015290519081900360640190fd5b505050505050565b600a8054604080516020601f6002600019610100600188161502019095169490940493840181900481028201810190925282815260609390929091830182828015610f8d5780601f10610f6257610100808354040283529160200191610f8d565b6124606120d6565b61249f576040805162461bcd60e51b8152602060048201819052602482015260008051602061433d833981519152604482015290519081900360640190fd5b601755565b6001600160a01b038216331415612502576040805162461bcd60e51b815260206004820152601860248201527f4b495031373a20617070726f766520746f2063616c6c65720000000000000000604482015290519081900360640190fd5b3360008181526004602090815260408083206001600160a01b03871680855290835292819020805460ff1916861515908117909155815190815290519293927f17307eab39ab6107e8899845ad3d59bd9653f200f220920489ca2b5937696c31929181900390910190a35050565b61257b8484846111c1565b612587848484846136b8565b6125c25760405162461bcd60e51b815260040180806020018281038252603081526020018061435d6030913960400191505060405180910390fd5b50505050565b600d546001600160a01b031690565b6125df6120d6565b61261e576040805162461bcd60e51b8152602060048201819052602482015260008051602061433d833981519152604482015290519081900360640190fd5b601855565b60148054604080516020601f6002600019610100600188161502019095169490940493840181900481028201810190925282815260609390929091830182828015610f8d5780601f10610f6257610100808354040283529160200191610f8d565b60608161269081612dc7565b6126db576040805162461bcd60e51b8152602060048201526017602482015276151bdad95b88125108191bd95cc81b9bdd08195e1a5cdd604a1b604482015290519081900360640190fd5b6014546002600019610100600184161502019091160461270a57604051806020016040528060008152506127e5565b601461271584613a95565b60405160200180838054600181600116156101000203166002900480156127735780601f10612751576101008083540402835291820191612773565b820191906000526020600020905b81548152906001019060200180831161275f575b5050825160208401908083835b6020831061279f5780518252601f199092019160209182019101612780565b6001836020036101000a0380198251168184511680821785525050505050509050018064173539b7b760d91b815250600501925050506040516020818303038152906040525b9392505050565b6060806060806060806127fd6141b4565b8761280781612dc7565b612852576040805162461bcd60e51b8152602060048201526017602482015276151bdad95b88125108191bd95cc81b9bdd08195e1a5cdd604a1b604482015290519081900360640190fd5b6000898152600e602090815260409182902080548351601f6002600019610100600186161502019093169290920491820184900484028101840190945280845290918301828280156128e55780601f106128ba576101008083540402835291602001916128e5565b820191906000526020600020905b8154815290600101906020018083116128c857829003601f168201915b50505050509750600e60008a81526020019081526020016000206001018054600181600116156101000203166002900480601f0160208091040260200160405190810160405280929190818152602001828054600181600116156101000203166002900480156129965780601f1061296b57610100808354040283529160200191612996565b820191906000526020600020905b81548152906001019060200180831161297957829003601f168201915b50505060008c8152600e60209081526040918290206002908101805484516001821615610100026000190190911692909204601f8101849004840283018401909452838252959c50949350909150830182828015612a355780601f10612a0a57610100808354040283529160200191612a35565b820191906000526020600020905b815481529060010190602001808311612a1857829003601f168201915b50505060008c8152600e60209081526040918290206003018054835160026001831615610100026000190190921691909104601f8101849004840282018401909452838152959b509350909150830182828015612ad35780601f10612aa857610100808354040283529160200191612ad3565b820191906000526020600020905b815481529060010190602001808311612ab657829003601f168201915b50505060008c8152600e60209081526040918290206004018054835160026001831615610100026000190190921691909104601f8101849004840282018401909452838152959a509350909150830182828015612b715780601f10612b4657610100808354040283529160200191612b71565b820191906000526020600020905b815481529060010190602001808311612b5457829003601f168201915b50505060008c8152600e60209081526040918290206008018054835160026001831615610100026000190190921691909104601f81018490048402820184019094528381529599509350909150830182828015612c0f5780601f10612be457610100808354040283529160200191612c0f565b820191906000526020600020905b815481529060010190602001808311612bf257829003601f168201915b505050505092506040518060600160405280600e60008c8152602001908152602001600020600501548152602001600e60008c8152602001908152602001600020600601548152602001600e60008c815260200190815260200160002060070154815250915050919395979092949650565b612c896120d6565b612cc8576040805162461bcd60e51b8152602060048201819052602482015260008051602061433d833981519152604482015290519081900360640190fd5b601955565b6001600160a01b03918216600090815260046020908152604080832093909416825291909152205460ff1690565b612d036120d6565b612d42576040805162461bcd60e51b8152602060048201819052602482015260008051602061433d833981519152604482015290519081900360640190fd5b61165281613b56565b601a54601d5460ff91821691169091565b612d646120d6565b612da3576040805162461bcd60e51b8152602060048201819052602482015260008051602061433d833981519152604482015290519081900360640190fd5b6001600160a01b03166000908152601c60205260409020805460ff19166001179055565b6000908152600160205260409020546001600160a01b0316151590565b6000612def82612dc7565b612e2a5760405162461bcd60e51b815260040180806020018281038252602b81526020018061448d602b913960400191505060405180910390fd5b6000612e3583611910565b9050806001600160a01b0316846001600160a01b03161480612e705750836001600160a01b0316612e6584610f98565b6001600160a01b0316145b80612e805750612e808185612ccd565b949350505050565b612e93838383613bf7565b612e9d8382613d3b565b6112118282613e30565b6000828201838110156127e5576040805162461bcd60e51b815260206004820152601b60248201527f536166654d6174683a206164646974696f6e206f766572666c6f770000000000604482015290519081900360640190fd5b600082612f1057506000611555565b82820282848281612f1d57fe5b04146127e55760405162461bcd60e51b81526004018080602001828103825260218152602001806142ec6021913960400191505060405180910390fd5b612f648282613e6e565b612f6e8282613e30565b61179081613f9f565b80612f8181612dc7565b612fcc576040805162461bcd60e51b8152602060048201526017602482015276151bdad95b88125108191bd95cc81b9bdd08195e1a5cdd604a1b604482015290519081900360640190fd5b60408051602480820185905282518083039091018152604490910182526020810180516001600160e01b0316630af978a560e31b178152600c549251825192936000936060936001600160a01b0390921692869290918291908083835b602083106130485780518252601f199092019160209182019101613029565b6001836020036101000a0380198251168184511680821785525050505050509050019150506000604051808303816000865af19150503d80600081146130aa576040519150601f19603f3d011682016040523d82523d6000602084013e6130af565b606091505b509150915060608060608060606130c46141b4565b868060200190516101008110156130da57600080fd5b8101908080516040519392919084600160201b8211156130f957600080fd5b90830190602082018581111561310e57600080fd5b8251600160201b81118282018810171561312757600080fd5b82525081516020918201929091019080838360005b8381101561315457818101518382015260200161313c565b50505050905090810190601f1680156131815780820380516001836020036101000a031916815260200191505b5060405260200180516040519392919084600160201b8211156131a357600080fd5b9083019060208201858111156131b857600080fd5b8251600160201b8111828201881017156131d157600080fd5b82525081516020918201929091019080838360005b838110156131fe5781810151838201526020016131e6565b50505050905090810190601f16801561322b5780820380516001836020036101000a031916815260200191505b5060405260200180516040519392919084600160201b82111561324d57600080fd5b90830190602082018581111561326257600080fd5b8251600160201b81118282018810171561327b57600080fd5b82525081516020918201929091019080838360005b838110156132a8578181015183820152602001613290565b50505050905090810190601f1680156132d55780820380516001836020036101000a031916815260200191505b5060405260200180516040519392919084600160201b8211156132f757600080fd5b90830190602082018581111561330c57600080fd5b8251600160201b81118282018810171561332557600080fd5b82525081516020918201929091019080838360005b8381101561335257818101518382015260200161333a565b50505050905090810190601f16801561337f5780820380516001836020036101000a031916815260200191505b5060405260200180516040519392919084600160201b8211156133a157600080fd5b9083019060208201858111156133b657600080fd5b8251600160201b8111828201881017156133cf57600080fd5b82525081516020918201929091019080838360005b838110156133fc5781810151838201526020016133e4565b50505050905090810190601f1680156134295780820380516001836020036101000a031916815260200191505b506040526020019190505095509550955095509550955087613492576040805162461bcd60e51b815260206004820152601760248201527f67656e6572617465496e766573746f72206661696c6564000000000000000000604482015290519081900360640190fd5b60008b8152600e6020908152604090912087516134b192890190614136565b5060008b8152600e6020908152604090912086516134d792600190920191880190614136565b5060008b8152600e6020908152604090912085516134fd92600290920191870190614136565b50805160008c8152600e602090815260409091206005810192909255845161352b9260030191860190614136565b5060208082015160008d8152600e8352604090206006810191909155835161355b92600490920191850190614136565b5060409081015160009b8c52600e6020529a2060070199909955505050505050505050565b60408051336024820152604480820184905282518083039091018152606490910182526020810180516001600160e01b0316633ed044e360e21b178152600d549251825192936000936001600160a01b0391909116928592918291908083835b602083106135ff5780518252601f1990920191602091820191016135e0565b6001836020036101000a0380198251168184511680821785525050505050509050019150506000604051808303816000865af19150503d8060008114613661576040519150601f19603f3d011682016040523d82523d6000602084013e613666565b606091505b5050905080611211576040805162461bcd60e51b81526020600482015260156024820152747265776172646564207375636365737366756c6c7960581b604482015290519081900360640190fd5b5490565b60008060606136cf866001600160a01b0316613fe3565b6136de57600192505050612e80565b856001600160a01b031663150b7a0260e01b3389888860405160240180856001600160a01b03166001600160a01b03168152602001846001600160a01b03166001600160a01b0316815260200183815260200180602001828103825283818151815260200191508051906020019080838360005b8381101561376a578181015183820152602001613752565b50505050905090810190601f1680156137975780820380516001836020036101000a031916815260200191505b5060408051601f198184030181529181526020820180516001600160e01b03166001600160e01b0319909a16999099178952518151919890975087965094509250829150849050835b602083106137ff5780518252601f1990920191602091820191016137e0565b6001836020036101000a0380198251168184511680821785525050505050509050019150506000604051808303816000865af19150503d8060008114613861576040519150601f19603f3d011682016040523d82523d6000602084013e613866565b606091505b5080519193509150158015906138a357508051630a85bd0160e11b906020808401919081101561389557600080fd5b50516001600160e01b031916145b156138b357600192505050612e80565b856001600160a01b0316636745782b60e01b3389888860405160240180856001600160a01b03166001600160a01b03168152602001846001600160a01b03166001600160a01b0316815260200183815260200180602001828103825283818151815260200191508051906020019080838360005b8381101561393f578181015183820152602001613927565b50505050905090810190601f16801561396c5780820380516001836020036101000a031916815260200191505b5060408051601f198184030181529181526020820180516001600160e01b03166001600160e01b0319909a16999099178952518151919890975087965094509250829150849050835b602083106139d45780518252601f1990920191602091820191016139b5565b6001836020036101000a0380198251168184511680821785525050505050509050019150506000604051808303816000865af19150503d8060008114613a36576040519150601f19603f3d011682016040523d82523d6000602084013e613a3b565b606091505b508051919350915015801590613a7857508051636745782b60e01b9060208084019190811015613a6a57600080fd5b50516001600160e01b031916145b15613a8857600192505050612e80565b5060009695505050505050565b606081613aba57506040805180820190915260018152600360fc1b6020820152610efc565b8160005b8115613ad257600101600a82049150613abe565b6060816040519080825280601f01601f191660200182016040528015613aff576020820181803883390190505b50905060001982015b8515613b4d57600a860660300160f81b82828060019003935081518110613b2b57fe5b60200101906001600160f81b031916908160001a905350600a86049550613b08565b50949350505050565b6001600160a01b038116613b9b5760405162461bcd60e51b815260040180806020018281038252602681526020018061420d6026913960400191505060405180910390fd5b600b546040516001600160a01b038084169216907f8be0079c531659141344cd1fd0a4f28419497f9722a3daafe3b4186f6b6457e090600090a3600b80546001600160a01b0319166001600160a01b0392909216919091179055565b826001600160a01b0316613c0a82611910565b6001600160a01b031614613c4f5760405162461bcd60e51b81526004018080602001828103825260288152602001806143b66028913960400191505060405180910390fd5b6001600160a01b038216613c945760405162461bcd60e51b81526004018080602001828103825260238152602001806142546023913960400191505060405180910390fd5b613c9d81613fe9565b6001600160a01b0383166000908152600360205260409020613cbe90614024565b6001600160a01b0382166000908152600360205260409020613cdf9061403b565b60008181526001602052604080822080546001600160a01b0319166001600160a01b0386811691821790925591518493918716917fddf252ad1be2c89b69c2b068fc378daa952ba7f163c4a11628f55a4df523b3ef91a4505050565b6001600160a01b038216600090815260056020526040812054613d6590600163ffffffff61404416565b600083815260066020526040902054909150808214613e00576001600160a01b0384166000908152600560205260408120805484908110613da257fe5b906000526020600020015490508060056000876001600160a01b03166001600160a01b031681526020019081526020016000208381548110613de057fe5b600091825260208083209091019290925591825260069052604090208190555b6001600160a01b0384166000908152600560205260409020805490613e299060001983016141d2565b5050505050565b6001600160a01b0390911660009081526005602081815260408084208054868652600684529185208290559282526001810183559183529091200155565b6001600160a01b038216613ec9576040805162461bcd60e51b815260206004820152601f60248201527f4b495031373a206d696e7420746f20746865207a65726f206164647265737300604482015290519081900360640190fd5b613ed281612dc7565b15613f24576040805162461bcd60e51b815260206004820152601b60248201527f4b495031373a20746f6b656e20616c7265616479206d696e7465640000000000604482015290519081900360640190fd5b600081815260016020908152604080832080546001600160a01b0319166001600160a01b038716908117909155835260039091529020613f639061403b565b60405181906001600160a01b038416906000907fddf252ad1be2c89b69c2b068fc378daa952ba7f163c4a11628f55a4df523b3ef908290a45050565b600780546000838152600860205260408120829055600182018355919091527fa66cc928b5edb82af9bd49922954155ab7b0942694bea4ce44661d9a8736c6880155565b3b151590565b6000818152600260205260409020546001600160a01b03161561165257600090815260026020526040902080546001600160a01b0319169055565b805461403790600163ffffffff61404416565b9055565b80546001019055565b60006127e583836040518060400160405280601e81526020017f536166654d6174683a207375627472616374696f6e206f766572666c6f770000815250600081848411156141105760405162461bcd60e51b81526004018080602001828103825283818151815260200191508051906020019080838360005b838110156140d55781810151838201526020016140bd565b50505050905090810190601f1680156141025780820380516001836020036101000a031916815260200191505b509250505060405180910390fd5b505050900390565b6040518060e001604052806007906020820280388339509192915050565b828054600181600116156101000203166002900490600052602060002090601f016020900481019282601f1061417757805160ff19168380011785556141a4565b828001600101855582156141a4579182015b828111156141a4578251825591602001919060010190614189565b506141b09291506141f2565b5090565b60405180606001604052806003906020820280388339509192915050565b815481835581811115611211576000838152602090206112119181019083015b610f9591905b808211156141b057600081556001016141f856fe4f776e61626c653a206e6577206f776e657220697320746865207a65726f2061646472657373546f6f206d616e79207265717565737473206f72207a65726f20726571756573744b495031373a207472616e7366657220746f20746865207a65726f2061646472657373596f7520617265206e6f7420746865206f776e6572206f66207468696e20746f6b656e4b49503137456e756d657261626c653a206f776e657220696e646578206f7574206f6620626f756e64734b495031373a206f776e657220717565727920666f72206e6f6e6578697374656e7420746f6b656e536166654d6174683a206d756c7469706c69636174696f6e206f766572666c6f774b495031373a207472616e736665722063616c6c6572206973206e6f74206f776e6572206e6f7220617070726f7665644f776e61626c653a2063616c6c6572206973206e6f7420746865206f776e65724b495031373a207472616e7366657220746f206e6f6e204b49503137526563656976657220696d706c656d656e7465724b495031373a2062616c616e636520717565727920666f7220746865207a65726f20616464726573734b495031373a207472616e73666572206f6620746f6b656e2074686174206973206e6f74206f776e4b49503137456e756d657261626c653a20676c6f62616c20696e646578206f7574206f6620626f756e64735468652077686974656c6973742073616c65206973206e6f7420656e61626c6564214b495031373a20617070726f76656420717565727920666f72206e6f6e6578697374656e7420746f6b656e4b495031373a20617070726f76652063616c6c6572206973206e6f74206f776e6572206e6f7220617070726f76656420666f7220616c6c4b495031373a206f70657261746f7220717565727920666f72206e6f6e6578697374656e7420746f6b656ea265627a7a7231582080a689cb97fccc8295d8d8732b159a4ade1896bb8b40d4d78762a3249b5cc59564736f6c63430005110032",
  "source": "pragma solidity ^0.5.0;\r\n\r\nimport \"./KIP17.sol\";\r\nimport \"./KIP17Enumerable.sol\";\r\nimport \"./KIP17Metadata.sol\";\r\nimport \"./Decent.sol\";\r\n\r\n/**\r\n * @title Full KIP-17 Token\r\n * This implementation includes all the required and some optional functionality of the KIP-17 standard\r\n * Moreover, it includes approve all functionality using operator terminology\r\n * @dev see http://kips.klaytn.com/KIPs/kip-17-non_fungible_token\r\n */\r\ncontract DecentToken is KIP17, KIP17Enumerable, KIP17Metadata, Decent {\r\n    constructor (string memory name, string memory symbol, address proxyAddress, address rewardAddress) public KIP17Metadata(name, symbol) Decent(proxyAddress,rewardAddress) {\r\n        // solhint-disable-previous-line no-empty-blocks\r\n    }\r\n}",
  "sourcePath": "C:\\Decent\\Decent-Contract\\contracts\\DecentToken.sol",
  "compiler": {
    "name": "solc",
    "version": "0.5.17+commit.d19bba13.Emscripten.clang"
  },
  "schemaVersion": "3.4.6",
  "updatedAt": "2022-07-25T15:06:56.794Z",
  "networkType": "ethereum",
  "devdoc": {
    "details": "see http://kips.klaytn.com/KIPs/kip-17-non_fungible_token",
    "methods": {
      "approve(address,uint256)": {
        "details": "Approves another address to transfer the given token ID The zero address indicates there is no approved address. There can only be one approved address per token at a given time. Can only be called by the token owner or an approved operator.",
        "params": {
          "to": "address to be approved for the given token ID",
          "tokenId": "uint256 ID of the token to be approved"
        }
      },
      "balanceOf(address)": {
        "details": "Gets the balance of the specified address.",
        "params": {
          "owner": "address to query the balance of"
        },
        "return": "uint256 representing the amount owned by the passed address"
      },
      "getApproved(uint256)": {
        "details": "Gets the approved address for a token ID, or zero if no address set Reverts if the token ID does not exist.",
        "params": {
          "tokenId": "uint256 ID of the token to query the approval of"
        },
        "return": "address currently approved for the given token ID"
      },
      "isApprovedForAll(address,address)": {
        "details": "Tells whether an operator is approved by a given owner.",
        "params": {
          "operator": "operator address which you want to query the approval of",
          "owner": "owner address which you want to query the approval of"
        },
        "return": "bool whether the given operator is approved by the given owner"
      },
      "isOwner()": {
        "details": "Returns true if the caller is the current owner."
      },
      "name()": {
        "details": "Gets the token name.",
        "return": "string representing the token name"
      },
      "owner()": {
        "details": "Returns the address of the current owner."
      },
      "ownerOf(uint256)": {
        "details": "Gets the owner of the specified token ID.",
        "params": {
          "tokenId": "uint256 ID of the token to query the owner of"
        },
        "return": "address currently marked as the owner of the given token ID"
      },
      "renounceOwnership()": {
        "details": "Leaves the contract without owner. It will not be possible to call `onlyOwner` functions anymore. Can only be called by the current owner.      * > Note: Renouncing ownership will leave the contract without an owner, thereby removing any functionality that is only available to the owner."
      },
      "safeTransferFrom(address,address,uint256)": {
        "details": "Safely transfers the ownership of a given token ID to another address If the target address is a contract, it must implement `onKIP17Received`, which is called upon a safe transfer, and return the magic value `bytes4(keccak256(\"onKIP17Received(address,address,uint256,bytes)\"))`; otherwise, the transfer is reverted. Requires the msg.sender to be the owner, approved, or operator",
        "params": {
          "from": "current owner of the token",
          "to": "address to receive the ownership of the given token ID",
          "tokenId": "uint256 ID of the token to be transferred"
        }
      },
      "safeTransferFrom(address,address,uint256,bytes)": {
        "details": "Safely transfers the ownership of a given token ID to another address If the target address is a contract, it must implement `onKIP17Received`, which is called upon a safe transfer, and return the magic value `bytes4(keccak256(\"onKIP17Received(address,address,uint256,bytes)\"))`; otherwise, the transfer is reverted. Requires the msg.sender to be the owner, approved, or operator",
        "params": {
          "_data": "bytes data to send along with a safe transfer check",
          "from": "current owner of the token",
          "to": "address to receive the ownership of the given token ID",
          "tokenId": "uint256 ID of the token to be transferred"
        }
      },
      "setApprovalForAll(address,bool)": {
        "details": "Sets or unsets the approval of a given operator An operator is allowed to transfer all tokens of the sender on their behalf.",
        "params": {
          "approved": "representing the status of the approval to be set",
          "to": "operator address to set the approval"
        }
      },
      "supportsInterface(bytes4)": {
        "details": "See `IKIP13.supportsInterface`.      * Time complexity O(1), guaranteed to always use less than 30 000 gas."
      },
      "symbol()": {
        "details": "Gets the token symbol.",
        "return": "string representing the token symbol"
      },
      "tokenByIndex(uint256)": {
        "details": "Gets the token ID at a given index of all the tokens in this contract Reverts if the index is greater or equal to the total number of tokens.",
        "params": {
          "index": "uint256 representing the index to be accessed of the tokens list"
        },
        "return": "uint256 token ID at the given index of the tokens list"
      },
      "tokenOfOwnerByIndex(address,uint256)": {
        "details": "Gets the token ID at a given index of the tokens list of the requested owner.",
        "params": {
          "index": "uint256 representing the index to be accessed of the requested tokens list",
          "owner": "address owning the tokens list to be accessed"
        },
        "return": "uint256 token ID at the given index of the tokens list owned by the requested address"
      },
      "totalSupply()": {
        "details": "Gets the total amount of tokens stored by the contract.",
        "return": "uint256 representing the total amount of tokens"
      },
      "transferFrom(address,address,uint256)": {
        "details": "Transfers the ownership of a given token ID to another address. Usage of this method is discouraged, use `safeTransferFrom` whenever possible. Requires the msg.sender to be the owner, approved, or operator.",
        "params": {
          "from": "current owner of the token",
          "to": "address to receive the ownership of the given token ID",
          "tokenId": "uint256 ID of the token to be transferred"
        }
      },
      "transferOwnership(address)": {
        "details": "Transfers ownership of the contract to a new account (`newOwner`). Can only be called by the current owner."
      }
    },
    "title": "Full KIP-17 Token This implementation includes all the required and some optional functionality of the KIP-17 standard Moreover, it includes approve all functionality using operator terminology"
  },
  "userdoc": {
    "methods": {}
  }
}