{
  "contractName": "DecentProxy",
  "abi": [
    {
      "inputs": [
        {
          "internalType": "uint256",
          "name": "seed1",
          "type": "uint256"
        },
        {
          "internalType": "uint256",
          "name": "seed2",
          "type": "uint256"
        }
      ],
      "payable": false,
      "stateMutability": "nonpayable",
      "type": "constructor"
    },
    {
      "constant": true,
      "inputs": [],
      "name": "MainAddress",
      "outputs": [
        {
          "internalType": "address",
          "name": "",
          "type": "address"
        }
      ],
      "payable": false,
      "stateMutability": "view",
      "type": "function"
    },
    {
      "constant": true,
      "inputs": [],
      "name": "OwnerAddress",
      "outputs": [
        {
          "internalType": "address",
          "name": "",
          "type": "address"
        }
      ],
      "payable": false,
      "stateMutability": "view",
      "type": "function"
    },
    {
      "constant": false,
      "inputs": [
        {
          "internalType": "uint256",
          "name": "_nonce",
          "type": "uint256"
        }
      ],
      "name": "getRandom",
      "outputs": [
        {
          "internalType": "uint256",
          "name": "",
          "type": "uint256"
        }
      ],
      "payable": false,
      "stateMutability": "nonpayable",
      "type": "function"
    },
    {
      "constant": true,
      "inputs": [
        {
          "internalType": "string",
          "name": "_string",
          "type": "string"
        }
      ],
      "name": "customHash",
      "outputs": [
        {
          "internalType": "bytes32",
          "name": "",
          "type": "bytes32"
        }
      ],
      "payable": false,
      "stateMutability": "pure",
      "type": "function"
    },
    {
      "constant": false,
      "inputs": [
        {
          "internalType": "address",
          "name": "_newMainAddress",
          "type": "address"
        }
      ],
      "name": "setMainAddress",
      "outputs": [],
      "payable": false,
      "stateMutability": "nonpayable",
      "type": "function"
    },
    {
      "constant": false,
      "inputs": [
        {
          "internalType": "uint256",
          "name": "_tokenId",
          "type": "uint256"
        }
      ],
      "name": "AwakenInvestor",
      "outputs": [
        {
          "internalType": "string",
          "name": "",
          "type": "string"
        }
      ],
      "payable": false,
      "stateMutability": "nonpayable",
      "type": "function"
    },
    {
      "constant": false,
      "inputs": [
        {
          "internalType": "uint256",
          "name": "_tokenId",
          "type": "uint256"
        }
      ],
      "name": "generateInvestor",
      "outputs": [
        {
          "internalType": "string",
          "name": "_Job",
          "type": "string"
        },
        {
          "internalType": "string",
          "name": "_Personality",
          "type": "string"
        },
        {
          "internalType": "string",
          "name": "_Passive1Name",
          "type": "string"
        },
        {
          "internalType": "string",
          "name": "_Passive2Name",
          "type": "string"
        },
        {
          "internalType": "string",
          "name": "_Passive3Name",
          "type": "string"
        },
        {
          "internalType": "uint256[3]",
          "name": "_PassiveValues",
          "type": "uint256[3]"
        }
      ],
      "payable": false,
      "stateMutability": "nonpayable",
      "type": "function"
    },
    {
      "constant": true,
      "inputs": [
        {
          "internalType": "string",
          "name": "_job",
          "type": "string"
        },
        {
          "internalType": "string",
          "name": "_personality",
          "type": "string"
        },
        {
          "internalType": "string",
          "name": "_passive1Name",
          "type": "string"
        },
        {
          "internalType": "string",
          "name": "_passive2Name",
          "type": "string"
        },
        {
          "internalType": "string",
          "name": "_passive3Name",
          "type": "string"
        },
        {
          "internalType": "string",
          "name": "awakeningName",
          "type": "string"
        },
        {
          "internalType": "uint256[3]",
          "name": "_passiveValues",
          "type": "uint256[3]"
        }
      ],
      "name": "_calculatePower",
      "outputs": [
        {
          "internalType": "uint256",
          "name": "",
          "type": "uint256"
        }
      ],
      "payable": false,
      "stateMutability": "view",
      "type": "function"
    },
    {
      "constant": false,
      "inputs": [
        {
          "internalType": "uint256",
          "name": "_tokenId",
          "type": "uint256"
        }
      ],
      "name": "getStage",
      "outputs": [
        {
          "internalType": "uint256",
          "name": "",
          "type": "uint256"
        }
      ],
      "payable": false,
      "stateMutability": "nonpayable",
      "type": "function"
    }
  ],
  "bytecode": "0x60c0604052600f60808190526e21a92ca82a279024a72b22a9aa27a960891b60a09081526200003291600591906200077f565b5060408051808201909152600d8082526c2620a7221024a72b22a9aa27a960991b602090920191825262000069916006916200077f565b5060408051808201909152600e8082526d29aa27a1a59024a72b22a9aa27a960911b6020909201918252620000a1916007916200077f565b50604080518082019091526009808252681a9d5919d95b595b9d60ba1b6020909201918252620000d4916008916200077f565b506040805180820190915260118082527034b73337b936b0ba34b7b7103837bbb2b960791b60209092019182526200010f916009916200077f565b50604080518082019091526007808252661a5b9cda59da1d60ca1b60209092019182526200014091600a916200077f565b506040805180820190915260068082526573747566667960d01b60209092019182526200017091600b916200077f565b50604080518082019091526007808252660ccdeded8d2e6d60cb1b6020909201918252620001a191600c916200077f565b50604080518082019091526006808252651cdd1d5c1a5960d21b6020909201918252620001d191600d916200077f565b50604080518082019091526006808252651b9bdc9b585b60d21b60209092019182526200020191600e916200077f565b506040805180820190915260088082526763617574696f757360c01b60209092019182526200023391600f916200077f565b5060408051808201909152600a808252696578686175737469766560b01b602090920191825262000267916010916200077f565b5060408051808201909152600b8082526a1a5b9d195b1b1a59d95b9d60aa1b60209092019182526200029c916011916200077f565b5060408051808201909152600a808252691c1a195b9bdb595b985b60b21b6020909201918252620002d0916012916200077f565b506040805180820190915260108082526f0eca1b4ebb28420ed88acec9e90ec9e960841b60209092019182526200030a916013916200077f565b506040805180820190915260108082526f0ec9db5eca08820ed88acec9e90ec9e960841b602090920191825262000344916014916200077f565b506040805180820190915260178082527fec8898ec9db520eb9190ebb0b020ed88acec9e90ec9e9000000000000000000060209092019182526200038b916015916200077f565b506040805180820190915260198082527feb9e8cebb3b4eba5b4eab8b0eb8b8820ed88acec9e90ec9e90000000000000006020909201918252620003d2916016916200077f565b506040805180820190915260178082527fec8381eab08020ed959cecb18420ed88acec9e90ec9e9000000000000000000060209092019182526200041791816200077f565b506040805180820190915260108082526f0ec8a88ed8dbc20ed88acec9e90ec9e960841b602090920191825262000451916018916200077f565b507f88993362ef110885b3d82853b64529867e82f76382334fe6a34f40dd41c40bc36019557fa177e4e865c114731f054aa6379a0a8ae474aa2afaed0d591c83323e5d592f03601a557f26f448b1920b93a1d8ecbd30dd2ae960d286161c174407752328eecfa26e088f601b557fd4e4b7d45ddfdfac19824055bd34ba31f0c17057a3bc789790b226918872383c601c557f03d92c677e6383c8791ef14e24d5be4b646d120245b0c1100ad9cf6d22ef8d1a601d557f1031511ae5fd7f05079793ef7d49680213208ec313484b734d2c72bfe1f9dc43601e557fa4dc2f5426f17b19a35f761ee6fe04da88f3484b4fca3997de258942b7097b0f601f557fbd9ae9edfb3f092a680172b894e845ab406f0a0786b59ad45a75be76672d8d3c6020557f7071b71b760057caa0035a3d23f9d4435c0376a5f4558adc025198cf5ebcb1836021557fc75a36e6ff8c24bab57c92d42ea7dcdecc261cbbf377444a0b6e3ec4e9129efe6022557f36a0d128bdab6703326c3a16d2547edf1926b4d27502f1fcc69192b77398bc896023557f5b51217a7d0bd34699d06b636aa5e827af0abe77f9f3adba92e4b4aae7473bf16024557ff4c0a54006aa5dbaf5702b65a1fd76dce8ae5cd53329a812f270ef4d8705ecff6025557f01df5cb4b29952f77486f83f2f8116e42116106afbc6aa0ef16893a87f31e13b6026557f585a12a7a9b809c4cff534847ce927ced003d116887a71588c764bf05f50c2776027557fd885bb7bf4c3e80bb924737a93ca0f21dfc5af8f66432a4450ad5a8f9e6bd4ab6028557f5d70a2427b77936b385cbf8d7b29873005248b3f5a2cdfb2fc355f6c32b994af6029557f8c3d575127b47fea39151ff524c6da3c90af1ae2346c0f4a425a544e4176de5b602a557f30e754921b1357415b0c878081956f5d667d35c462a78eeac63afa3fef193260602b557faf85ddbeabf953c8aa2305da80fb3d39ce8a62cbb158a790cfdec9b149cfed47602c553480156200072f57600080fd5b506040516200279538038062002795833981810160405260408110156200075557600080fd5b508051602090910151600091909155600155600480546001600160a01b0319163317905562000824565b828054600181600116156101000203166002900490600052602060002090601f016020900481019282601f10620007c257805160ff1916838001178555620007f2565b82800160010185558215620007f2579182015b82811115620007f2578251825591602001919060010190620007d5565b506200080092915062000804565b5090565b6200082191905b808211156200080057600081556001016200080b565b90565b611f6180620008346000396000f3fe608060405234801561001057600080fd5b50600436106100935760003560e01c80639308d349116100665780639308d349146103d65780639507e1b9146103de578063aad2ce9e14610748578063cd4b6914146107ec578063db9771f51461080957610093565b80632e3250201461009857806357cbc528146100c75780637f17b05d1461032057806391bc616514610344575b600080fd5b6100b5600480360360208110156100ae57600080fd5b5035610831565b60408051918252519081900360200190f35b6100e4600480360360208110156100dd57600080fd5b50356109f1565b60405180806020018060200180602001806020018060200187600360200280838360005b83811015610120578181015183820152602001610108565b5050505090500186810386528c818151815260200191508051906020019080838360005b8381101561015c578181015183820152602001610144565b50505050905090810190601f1680156101895780820380516001836020036101000a031916815260200191505b5086810385528b5181528b516020918201918d019080838360005b838110156101bc5781810151838201526020016101a4565b50505050905090810190601f1680156101e95780820380516001836020036101000a031916815260200191505b5086810384528a5181528a516020918201918c019080838360005b8381101561021c578181015183820152602001610204565b50505050905090810190601f1680156102495780820380516001836020036101000a031916815260200191505b5086810383528951815289516020918201918b019080838360005b8381101561027c578181015183820152602001610264565b50505050905090810190601f1680156102a95780820380516001836020036101000a031916815260200191505b5086810382528851815288516020918201918a019080838360005b838110156102dc5781810151838201526020016102c4565b50505050905090810190601f1680156103095780820380516001836020036101000a031916815260200191505b509b50505050505050505050505060405180910390f35b610328610aa4565b604080516001600160a01b039092168252519081900360200190f35b6103616004803603602081101561035a57600080fd5b5035610ab3565b6040805160208082528351818301528351919283929083019185019080838360005b8381101561039b578181015183820152602001610383565b50505050905090810190601f1680156103c85780820380516001836020036101000a031916815260200191505b509250505060405180910390f35b610328610ac4565b6100b560048036036101208110156103f557600080fd5b810190602081018135600160201b81111561040f57600080fd5b82018360208201111561042157600080fd5b803590602001918460018302840111600160201b8311171561044257600080fd5b91908080601f0160208091040260200160405190810160405280939291908181526020018383808284376000920191909152509295949360208101935035915050600160201b81111561049457600080fd5b8201836020820111156104a657600080fd5b803590602001918460018302840111600160201b831117156104c757600080fd5b91908080601f0160208091040260200160405190810160405280939291908181526020018383808284376000920191909152509295949360208101935035915050600160201b81111561051957600080fd5b82018360208201111561052b57600080fd5b803590602001918460018302840111600160201b8311171561054c57600080fd5b91908080601f0160208091040260200160405190810160405280939291908181526020018383808284376000920191909152509295949360208101935035915050600160201b81111561059e57600080fd5b8201836020820111156105b057600080fd5b803590602001918460018302840111600160201b831117156105d157600080fd5b91908080601f0160208091040260200160405190810160405280939291908181526020018383808284376000920191909152509295949360208101935035915050600160201b81111561062357600080fd5b82018360208201111561063557600080fd5b803590602001918460018302840111600160201b8311171561065657600080fd5b91908080601f0160208091040260200160405190810160405280939291908181526020018383808284376000920191909152509295949360208101935035915050600160201b8111156106a857600080fd5b8201836020820111156106ba57600080fd5b803590602001918460018302840111600160201b831117156106db57600080fd5b91908080601f016020809104026020016040519081016040528093929190818152602001838380828437600092019190915250506040805160608181019092529396959481810194935091506003908390839080828437600092019190915250919450610ad39350505050565b6100b56004803603602081101561075e57600080fd5b810190602081018135600160201b81111561077857600080fd5b82018360208201111561078a57600080fd5b803590602001918460018302840111600160201b831117156107ab57600080fd5b91908080601f016020809104026020016040519081016040528093929190818152602001838380828437600092019190915250929550610dca945050505050565b6100b56004803603602081101561080257600080fd5b5035610e41565b61082f6004803603602081101561081f57600080fd5b50356001600160a01b0316610eb6565b005b600080600061083f84610f25565b91509150601c548114156108ce5760328211610860576065925050506109ec565b816032108015610871575060648211155b15610881576066925050506109ec565b816064108015610892575060968211155b156108a2576067925050506109ec565b8160961080156108b3575060c88211155b156108c3576068925050506109ec565b6069925050506109ec565b601d5481141561095957603282116108eb5760c9925050506109ec565b8160321080156108fc575060648211155b1561090c5760ca925050506109ec565b81606410801561091d575060968211155b1561092d5760cb925050506109ec565b81609610801561093e575060c88211155b1561094e5760cc925050506109ec565b60cd925050506109ec565b601e548114156109e957603282116109775761012d925050506109ec565b816032108015610988575060648211155b156109995761012e925050506109ec565b8160641080156109aa575060968211155b156109bb5761012f925050506109ec565b8160961080156109cc575060c88211155b156109dd57610130925050506109ec565b610131925050506109ec565b50505b919050565b6060806060806060610a01611f0e565b610a0a876114b9565b9550610a1587611636565b9450610a20876119aa565b9350610a2a611f0e565b6000610a3589611b21565b8083529050610a446002611c2c565b15610a9657610a52896119aa565b94506000610a5f8a611b21565b602084018190529050610a726003611c2c565b15610a9457610a808a6119aa565b94506000610a8d8b611b21565b6040850152505b505b819250505091939550919395565b6004546001600160a01b031681565b6060610abe82611c7c565b92915050565b6003546001600160a01b031681565b600080600080600080600080610ae88f610dca565b90506000610af58f610dca565b90506000610b028f610dca565b90506000610b0f8f610dca565b90506000610b1c8f610dca565b90506000610b298f610dca565b9050601c54861415610b3f576019549a50610b59565b601d54861415610b5357601a549a50610b59565b601b549a505b601f54851415610b6e57600a89019850610c2a565b602054851415610b8357600a8a019950610c2a565b602154851415610b9857600a88019750610c2a565b602254851415610bb657600f998a0199988901989790970196610c2a565b602354851415610bd4576014998a0199988901989790970196610c2a565b602454851415610bf2576019998a0199988901989790970196610c2a565b602554851415610c1057601e998a0199988901989790970196610c2a565b602654851415610c2a576032998a01999889019897909701965b601954841415610c40578d519990990198610c68565b601a54841415610c56578d519890980197610c68565b601b54841415610c68578d5197909701965b601954831415610c815760208e01519990990198610caf565b601a54831415610c9a5760208e01519890980197610caf565b601b54831415610caf5760208e015197909701965b601954821415610cc85760408e01519990990198610cf6565b601a54821415610ce15760408e01519890980197610cf6565b601b54821415610cf65760408e015197909701965b602754811415610d0957600a9650610d64565b602854811415610d1c5760149650610d64565b602954811415610d2f57601e9650610d64565b602a54811415610d425760289650610d64565b602b54811415610d555760329650610d64565b602c54811415610d6457603c96505b6019548b1415610d7f5760648a8802049b8c019b9950610db1565b601a548b1415610d9a576064898802049b8c019b9850610db1565b601b548b1415610db1576064888802049b8c019b97505b50999a5050505050505050505050979650505050505050565b6000816040516020018082805190602001908083835b60208310610dff5780518252601f199092019160209182019101610de0565b6001836020036101000a038019825116818451168082178552505050505050905001915050604051602081830303815290604052805190602001209050919050565b600280546001805460005460408051969091029091028302602080870191909152428683015233606090811b8188015230901b607487015243608887018190528490039092014060a8808701919091528151808703909101815260c89095019052835193019290922060649006918201905590565b6004546001600160a01b03163314610f03576040805162461bcd60e51b815260206004820152600b60248201526a3737ba10309037bbb732b960a91b604482015290519081900360640190fd5b600380546001600160a01b0319166001600160a01b0392909216919091179055565b60408051602480820184905282518083039091018152604490910182526020810180516001600160e01b0316636580e78360e11b1781526003549251825160009485949385936060936001600160a01b0390931692869282918083835b60208310610fa15780518252601f199092019160209182019101610f82565b6001836020036101000a0380198251168184511680821785525050505050509050019150506000604051808303816000865af19150503d8060008114611003576040519150601f19603f3d011682016040523d82523d6000602084013e611008565b606091505b509150915081611055576040805162461bcd60e51b8152602060048201526013602482015272125b9d995cdd1bdc925b999bc819985a5b1959606a1b604482015290519081900360640190fd5b606080606080606080611066611f0e565b8780602001905161012081101561107c57600080fd5b8101908080516040519392919084600160201b82111561109b57600080fd5b9083019060208201858111156110b057600080fd5b8251600160201b8111828201881017156110c957600080fd5b82525081516020918201929091019080838360005b838110156110f65781810151838201526020016110de565b50505050905090810190601f1680156111235780820380516001836020036101000a031916815260200191505b5060405260200180516040519392919084600160201b82111561114557600080fd5b90830190602082018581111561115a57600080fd5b8251600160201b81118282018810171561117357600080fd5b82525081516020918201929091019080838360005b838110156111a0578181015183820152602001611188565b50505050905090810190601f1680156111cd5780820380516001836020036101000a031916815260200191505b5060405260200180516040519392919084600160201b8211156111ef57600080fd5b90830190602082018581111561120457600080fd5b8251600160201b81118282018810171561121d57600080fd5b82525081516020918201929091019080838360005b8381101561124a578181015183820152602001611232565b50505050905090810190601f1680156112775780820380516001836020036101000a031916815260200191505b5060405260200180516040519392919084600160201b82111561129957600080fd5b9083019060208201858111156112ae57600080fd5b8251600160201b8111828201881017156112c757600080fd5b82525081516020918201929091019080838360005b838110156112f45781810151838201526020016112dc565b50505050905090810190601f1680156113215780820380516001836020036101000a031916815260200191505b5060405260200180516040519392919084600160201b82111561134357600080fd5b90830190602082018581111561135857600080fd5b8251600160201b81118282018810171561137157600080fd5b82525081516020918201929091019080838360005b8381101561139e578181015183820152602001611386565b50505050905090810190601f1680156113cb5780820380516001836020036101000a031916815260200191505b5060405260200180516040519392919084600160201b8211156113ed57600080fd5b90830190602082018581111561140257600080fd5b8251600160201b81118282018810171561141b57600080fd5b82525081516020918201929091019080838360005b83811015611448578181015183820152602001611430565b50505050905090810190601f1680156114755780820380516001836020036101000a031916815260200191505b5060405260200191905050965096509650965096509650965061149d87878787878787610ad3565b9b506114a887610dca565b9a5050505050505050505050915091565b606060006114c683610e41565b90506022811015611564576005805460408051602060026001851615610100026000190190941693909304601f810184900484028201840190925281815292918301828280156115575780601f1061152c57610100808354040283529160200191611557565b820191906000526020600020905b81548152906001019060200180831161153a57829003601f168201915b50505050509150506109ec565b806022111580156115755750604381105b156115d5576006805460408051602060026001851615610100026000190190941693909304601f810184900484028201840190925281815292918301828280156115575780601f1061152c57610100808354040283529160200191611557565b6007805460408051602060026001851615610100026000190190941693909304601f810184900484028201840190925281815292918301828280156115575780601f1061152c57610100808354040283529160200191611557565b50919050565b6060600061164383610e41565b905060138110156116a957600b805460408051602060026001851615610100026000190190941693909304601f810184900484028201840190925281815292918301828280156115575780601f1061152c57610100808354040283529160200191611557565b806013111580156116ba5750602781105b1561171a57600c805460408051602060026001851615610100026000190190941693909304601f810184900484028201840190925281815292918301828280156115575780601f1061152c57610100808354040283529160200191611557565b8060271115801561172b5750603a81105b1561178b57600d805460408051602060026001851615610100026000190190941693909304601f810184900484028201840190925281815292918301828280156115575780601f1061152c57610100808354040283529160200191611557565b80603a1115801561179c5750604581105b156117fc57600e805460408051602060026001851615610100026000190190941693909304601f810184900484028201840190925281815292918301828280156115575780601f1061152c57610100808354040283529160200191611557565b8060451115801561180d5750605081105b1561186d57600f805460408051602060026001851615610100026000190190941693909304601f810184900484028201840190925281815292918301828280156115575780601f1061152c57610100808354040283529160200191611557565b8060501115801561187e5750605881105b156118de576010805460408051602060026001851615610100026000190190941693909304601f810184900484028201840190925281815292918301828280156115575780601f1061152c57610100808354040283529160200191611557565b806058111580156118ef5750606081105b1561194f576011805460408051602060026001851615610100026000190190941693909304601f810184900484028201840190925281815292918301828280156115575780601f1061152c57610100808354040283529160200191611557565b6012805460408051602060026001851615610100026000190190941693909304601f810184900484028201840190925281815292918301828280156115575780601f1061152c57610100808354040283529160200191611557565b606060006119b783610e41565b90506021811015611a1d57600a805460408051602060026001851615610100026000190190941693909304601f810184900484028201840190925281815292918301828280156115575780601f1061152c57610100808354040283529160200191611557565b60218110158015611a2e5750604281105b15611a8e576009805460408051602060026001851615610100026000190190941693909304601f810184900484028201840190925281815292918301828280156115575780601f1061152c57610100808354040283529160200191611557565b6008805460408051602060026001851615610100026000190190941693909304601f81018490048402820184019092528181529291830182828015611b145780601f10611ae957610100808354040283529160200191611b14565b820191906000526020600020905b815481529060010190602001808311611af757829003601f168201915b5050505050915050919050565b600080611b2d83610e41565b90506020811015611b4257600a9150506109ec565b80602011158015611b535750603881105b15611b6257600f9150506109ec565b80603811158015611b735750604b81105b15611b825760149150506109ec565b80604b11158015611b935750605781105b15611ba25760199150506109ec565b80605711158015611bb35750605d81105b15611bc257601e9150506109ec565b80605d11158015611bd35750606081105b15611be25760239150506109ec565b80606011158015611bf35750606281105b15611c025760289150506109ec565b80606211158015611c135750606381105b15611c2257602d9150506109ec565b60329150506109ec565b600080611c3883610e41565b90508260021415611c60576032811015611c565760019150506109ec565b60009150506109ec565b826003141561163057601e811015611c565760019150506109ec565b60606000611c8983610e41565b90506021811015611cef576013805460408051602060026001851615610100026000190190941693909304601f810184900484028201840190925281815292918301828280156115575780601f1061152c57610100808354040283529160200191611557565b60218110158015611d005750603b81105b15611d60576014805460408051602060026001851615610100026000190190941693909304601f810184900484028201840190925281815292918301828280156115575780601f1061152c57610100808354040283529160200191611557565b603b8110158015611d715750604f81105b15611dd1576015805460408051602060026001851615610100026000190190941693909304601f810184900484028201840190925281815292918301828280156115575780601f1061152c57610100808354040283529160200191611557565b604f8110158015611de25750605c81105b15611e42576016805460408051602060026001851615610100026000190190941693909304601f810184900484028201840190925281815292918301828280156115575780601f1061152c57610100808354040283529160200191611557565b605c8110158015611e535750606281105b15611eb3576017805460408051602060026001851615610100026000190190941693909304601f810184900484028201840190925281815292918301828280156115575780601f1061152c57610100808354040283529160200191611557565b6018805460408051602060026001851615610100026000190190941693909304601f81018490048402820184019092528181529291830182828015611b145780601f10611ae957610100808354040283529160200191611b14565b6040518060600160405280600390602082028038833950919291505056fea265627a7a723158209e6ae3cbbf027af5c7bb64829e85b164ec42a51468a822770452cc4d3bbd585e64736f6c63430005110032",
  "source": "pragma solidity ^0.5.0;\r\n\r\nimport \"./utils/CustomRandom.sol\";\r\n\r\ncontract DecentProxy is CustomRandom {\r\n    address public MainAddress;\r\n    address public OwnerAddress;\r\n\r\n    function customHash(string memory _string) public pure returns (bytes32) {\r\n        return keccak256(abi.encodePacked(_string));\r\n    }\r\n\r\n    //variables\r\n    string private JOB1 = \"CRYPTO INVESTOR\";\r\n    string private JOB2 = \"LAND INVESTOR\";\r\n    string private JOB3 = \"STOCK INVESTOR\";\r\n\r\n    string private PASSIVE1 = \"judgement\";\r\n    string private PASSIVE2 = \"information power\";\r\n    string private PASSIVE3 = \"insight\";\r\n\r\n    string private PERSONALITY1 = \"stuffy\";\r\n    string private PERSONALITY2 = \"foolish\";\r\n    string private PERSONALITY3 = \"stupid\";\r\n    string private PERSONALITY4 = \"normal\";\r\n    string private PERSONALITY5 = \"cautious\";\r\n    string private PERSONALITY6 = \"exhaustive\";\r\n    string private PERSONALITY7 = \"intelligent\";\r\n    string private PERSONALITY8 = \"phenomenal\";\r\n\r\n    string private AWAKENIGNANE1 = \" \";\r\n    string private AWAKENIGNANE2 = \" \";\r\n    string private AWAKENIGNANE3 = \"  \";\r\n    string private AWAKENIGNANE4 = \" \";\r\n    string private AWAKENIGNANE5 = \"  \";\r\n    string private AWAKENIGNANE6 = \" \";\r\n\r\n    //==============================\r\n    bytes32 private Passive1Hash =\r\n        0x88993362ef110885b3d82853b64529867e82f76382334fe6a34f40dd41c40bc3;\r\n    bytes32 private Passive2Hash =\r\n        0xa177e4e865c114731f054aa6379a0a8ae474aa2afaed0d591c83323e5d592f03;\r\n    bytes32 private Passive3Hash =\r\n        0x26f448b1920b93a1d8ecbd30dd2ae960d286161c174407752328eecfa26e088f;\r\n\r\n    bytes32 private Job1Hash =\r\n        0xd4e4b7d45ddfdfac19824055bd34ba31f0c17057a3bc789790b226918872383c;\r\n    bytes32 private Job2Hash =\r\n        0x03d92c677e6383c8791ef14e24d5be4b646d120245b0c1100ad9cf6d22ef8d1a;\r\n    bytes32 private Job3Hash =\r\n        0x1031511ae5fd7f05079793ef7d49680213208ec313484b734d2c72bfe1f9dc43;\r\n\r\n    bytes32 private Personality1Hash =\r\n        0xa4dc2f5426f17b19a35f761ee6fe04da88f3484b4fca3997de258942b7097b0f;\r\n    bytes32 private Personality2Hash =\r\n        0xbd9ae9edfb3f092a680172b894e845ab406f0a0786b59ad45a75be76672d8d3c;\r\n    bytes32 private Personality3Hash =\r\n        0x7071b71b760057caa0035a3d23f9d4435c0376a5f4558adc025198cf5ebcb183;\r\n    bytes32 private Personality4Hash =\r\n        0xc75a36e6ff8c24bab57c92d42ea7dcdecc261cbbf377444a0b6e3ec4e9129efe;\r\n    bytes32 private Personality5Hash =\r\n        0x36a0d128bdab6703326c3a16d2547edf1926b4d27502f1fcc69192b77398bc89;\r\n    bytes32 private Personality6Hash =\r\n        0x5b51217a7d0bd34699d06b636aa5e827af0abe77f9f3adba92e4b4aae7473bf1;\r\n    bytes32 private Personality7Hash =\r\n        0xf4c0a54006aa5dbaf5702b65a1fd76dce8ae5cd53329a812f270ef4d8705ecff;\r\n    bytes32 private Personality8Hash =\r\n        0x01df5cb4b29952f77486f83f2f8116e42116106afbc6aa0ef16893a87f31e13b;\r\n\r\n    bytes32 private awakeningName1Hash =\r\n        0x585a12a7a9b809c4cff534847ce927ced003d116887a71588c764bf05f50c277;\r\n    bytes32 private awakeningName2Hash =\r\n        0xd885bb7bf4c3e80bb924737a93ca0f21dfc5af8f66432a4450ad5a8f9e6bd4ab;\r\n    bytes32 private awakeningName3Hash =\r\n        0x5d70a2427b77936b385cbf8d7b29873005248b3f5a2cdfb2fc355f6c32b994af;\r\n    bytes32 private awakeningName4Hash =\r\n        0x8c3d575127b47fea39151ff524c6da3c90af1ae2346c0f4a425a544e4176de5b;\r\n    bytes32 private awakeningName5Hash =\r\n        0x30e754921b1357415b0c878081956f5d667d35c462a78eeac63afa3fef193260;\r\n    bytes32 private awakeningName6Hash =\r\n        0xaf85ddbeabf953c8aa2305da80fb3d39ce8a62cbb158a790cfdec9b149cfed47;\r\n    //=============================\r\n\r\n    modifier onlyOwner() {\r\n        require(msg.sender == OwnerAddress, \"not a owner\");\r\n        _;\r\n    }\r\n\r\n    function setMainAddress(address _newMainAddress) public onlyOwner {\r\n        MainAddress = _newMainAddress;\r\n    }\r\n\r\n    constructor(uint256 seed1, uint256 seed2)\r\n        public\r\n        CustomRandom(seed1, seed2)\r\n    {\r\n        OwnerAddress = msg.sender;\r\n    }\r\n\r\n    function _decideJob(uint256 _nonce) internal returns (string memory) {\r\n        uint256 _randNum = getRandom(_nonce);\r\n        if (_randNum < 34) {\r\n            return JOB1;\r\n        } else if (34 <= _randNum && _randNum < 67) {\r\n            return JOB2;\r\n        } else {\r\n            return JOB3;\r\n        }\r\n    }\r\n\r\n    function _decidePersonality(uint256 _nonce)\r\n        internal\r\n        returns (string memory)\r\n    {\r\n        uint256 _randNum = getRandom(_nonce);\r\n        if (_randNum < 19) {\r\n            return PERSONALITY1;\r\n        } else if (19 <= _randNum && _randNum < 39) {\r\n            return PERSONALITY2;\r\n        } else if (39 <= _randNum && _randNum < 58) {\r\n            return PERSONALITY3;\r\n        } else if (58 <= _randNum && _randNum < 69) {\r\n            return PERSONALITY4;\r\n        } else if (69 <= _randNum && _randNum < 80) {\r\n            return PERSONALITY5;\r\n        } else if (80 <= _randNum && _randNum < 88) {\r\n            return PERSONALITY6;\r\n        } else if (88 <= _randNum && _randNum < 96) {\r\n            return PERSONALITY7;\r\n        } else {\r\n            return PERSONALITY8;\r\n        }\r\n    }\r\n\r\n    function _decidePassiveName(uint256 _nonce)\r\n        internal\r\n        returns (string memory)\r\n    {\r\n        uint256 _randNum = getRandom(_nonce);\r\n        if (_randNum < 33) {\r\n            return PASSIVE3;\r\n        } else if (_randNum >= 33 && _randNum < 66) {\r\n            return PASSIVE2;\r\n        }\r\n        return PASSIVE1;\r\n    }\r\n\r\n    function _decidePassiveValue(uint256 _nonce) internal returns (uint256) {\r\n        uint256 _randNum = getRandom(_nonce);\r\n        if (_randNum < 32) {\r\n            return 10;\r\n        } else if (32 <= _randNum && _randNum < 56) {\r\n            return 15;\r\n        } else if (56 <= _randNum && _randNum < 75) {\r\n            return 20;\r\n        } else if (75 <= _randNum && _randNum < 87) {\r\n            return 25;\r\n        } else if (87 <= _randNum && _randNum < 93) {\r\n            return 30;\r\n        } else if (93 <= _randNum && _randNum < 96) {\r\n            return 35;\r\n        } else if (96 <= _randNum && _randNum < 98) {\r\n            return 40;\r\n        } else if (98 <= _randNum && _randNum < 99) {\r\n            return 45;\r\n        } else {\r\n            return 50;\r\n        }\r\n    }\r\n\r\n    function _decideAwakenName(uint256 _nonce)\r\n        internal\r\n        returns (string memory)\r\n    {\r\n        uint256 _randNum = getRandom(_nonce);\r\n        if (_randNum < 33) {\r\n            return AWAKENIGNANE1;\r\n        } else if (_randNum >= 33 && _randNum < 59) {\r\n            return AWAKENIGNANE2;\r\n        } else if (_randNum >= 59 && _randNum < 79) {\r\n            return AWAKENIGNANE3;\r\n        } else if (_randNum >= 79 && _randNum < 92) {\r\n            return AWAKENIGNANE4;\r\n        } else if (_randNum >= 92 && _randNum < 98) {\r\n            return AWAKENIGNANE5;\r\n        }\r\n        return AWAKENIGNANE6;\r\n    }\r\n\r\n    function NextPassive(uint256 _stage) internal returns (bool) {\r\n        uint256 _randNum = getRandom(_stage);\r\n        if (_stage == 2) {\r\n            if (_randNum < 50) {\r\n                return true;\r\n            }\r\n            return false;\r\n        } else if (_stage == 3) {\r\n            if (_randNum < 30) {\r\n                return true;\r\n            }\r\n            return false;\r\n        }\r\n    }\r\n\r\n    function AwakenInvestor(uint256 _tokenId) public returns (string memory) {\r\n        return _decideAwakenName(_tokenId);\r\n    }\r\n\r\n    function generateInvestor(uint256 _tokenId)\r\n        public\r\n        returns (\r\n            string memory _Job,\r\n            string memory _Personality,\r\n            string memory _Passive1Name,\r\n            string memory _Passive2Name,\r\n            string memory _Passive3Name,\r\n            uint256[3] memory _PassiveValues\r\n        )\r\n    {\r\n        _Job = _decideJob(_tokenId);\r\n        _Personality = _decidePersonality(_tokenId);\r\n        _Passive1Name = _decidePassiveName(_tokenId);\r\n\r\n        uint256[3] memory PassiveValues;\r\n        uint256 _value1 = _decidePassiveValue(_tokenId);\r\n        PassiveValues[0] = _value1;\r\n\r\n        if (NextPassive(2)) {\r\n            _Passive2Name = _decidePassiveName(_tokenId);\r\n            uint256 _value2 = _decidePassiveValue(_tokenId);\r\n            PassiveValues[1] = _value2;\r\n            if (NextPassive(3)) {\r\n                _Passive3Name = _decidePassiveName(_tokenId);\r\n                uint256 _value3 = _decidePassiveValue(_tokenId);\r\n                PassiveValues[2] = _value3;\r\n            }\r\n        }\r\n\r\n        _PassiveValues = PassiveValues;\r\n    }\r\n\r\n    function _calculatePower(\r\n        string memory _job,\r\n        string memory _personality,\r\n        string memory _passive1Name,\r\n        string memory _passive2Name,\r\n        string memory _passive3Name,\r\n        string memory awakeningName,\r\n        uint256[3] memory _passiveValues\r\n    ) public view returns (uint256) {\r\n        uint256 power;\r\n        bytes32 neededTalent;\r\n        uint256 Passive1Status;\r\n        uint256 Passive2Status;\r\n        uint256 Passive3Status;\r\n        uint256 synergyPercentage;\r\n\r\n        bytes32 _jobHash = customHash(_job);\r\n        bytes32 _personalityHash = customHash(_personality);\r\n        bytes32 _passive1NameHash = customHash(_passive1Name);\r\n        bytes32 _passive2NameHash = customHash(_passive2Name);\r\n        bytes32 _passive3NameHash = customHash(_passive3Name);\r\n        bytes32 _awakeningName = customHash(awakeningName);\r\n\r\n        if (_jobHash == Job1Hash) {\r\n            neededTalent = Passive1Hash;\r\n        } else if (_jobHash == Job2Hash) {\r\n            neededTalent = Passive2Hash;\r\n        } else {\r\n            neededTalent = Passive3Hash;\r\n        }\r\n\r\n        if (_personalityHash == Personality1Hash) {\r\n            Passive2Status += 10;\r\n        } else if (_personalityHash == Personality2Hash) {\r\n            Passive1Status += 10;\r\n        } else if (_personalityHash == Personality3Hash) {\r\n            Passive3Status += 10;\r\n        } else if (_personalityHash == Personality4Hash) {\r\n            Passive1Status += 15;\r\n            Passive2Status += 15;\r\n            Passive3Status += 15;\r\n        } else if (_personalityHash == Personality5Hash) {\r\n            Passive1Status += 20;\r\n            Passive2Status += 20;\r\n            Passive3Status += 20;\r\n        } else if (_personalityHash == Personality6Hash) {\r\n            Passive1Status += 25;\r\n            Passive2Status += 25;\r\n            Passive3Status += 25;\r\n        } else if (_personalityHash == Personality7Hash) {\r\n            Passive1Status += 30;\r\n            Passive2Status += 30;\r\n            Passive3Status += 30;\r\n        } else if (_personalityHash == Personality8Hash) {\r\n            Passive1Status += 50;\r\n            Passive2Status += 50;\r\n            Passive3Status += 50;\r\n        }\r\n\r\n        if (_passive1NameHash == Passive1Hash) {\r\n            Passive1Status += _passiveValues[0];\r\n        } else if (_passive1NameHash == Passive2Hash) {\r\n            Passive2Status += _passiveValues[0];\r\n        } else if (_passive1NameHash == Passive3Hash) {\r\n            Passive3Status += _passiveValues[0];\r\n        }\r\n\r\n        if (_passive2NameHash == Passive1Hash) {\r\n            Passive1Status += _passiveValues[1];\r\n        } else if (_passive2NameHash == Passive2Hash) {\r\n            Passive2Status += _passiveValues[1];\r\n        } else if (_passive2NameHash == Passive3Hash) {\r\n            Passive3Status += _passiveValues[1];\r\n        }\r\n\r\n        if (_passive3NameHash == Passive1Hash) {\r\n            Passive1Status += _passiveValues[2];\r\n        } else if (_passive3NameHash == Passive2Hash) {\r\n            Passive2Status += _passiveValues[2];\r\n        } else if (_passive3NameHash == Passive3Hash) {\r\n            Passive3Status += _passiveValues[2];\r\n        }\r\n\r\n        if (_awakeningName == awakeningName1Hash) {\r\n            synergyPercentage = 10;\r\n        } else if (_awakeningName == awakeningName2Hash) {\r\n            synergyPercentage = 20;\r\n        } else if (_awakeningName == awakeningName3Hash) {\r\n            synergyPercentage = 30;\r\n        } else if (_awakeningName == awakeningName4Hash) {\r\n            synergyPercentage = 40;\r\n        } else if (_awakeningName == awakeningName5Hash) {\r\n            synergyPercentage = 50;\r\n        } else if (_awakeningName == awakeningName6Hash) {\r\n            synergyPercentage = 60;\r\n        }\r\n\r\n        if (neededTalent == Passive1Hash) {\r\n            Passive1Status = (Passive1Status * synergyPercentage) / 100;\r\n            power += Passive1Status;\r\n        } else if (neededTalent == Passive2Hash) {\r\n            Passive2Status = (Passive2Status * synergyPercentage) / 100;\r\n            power += Passive2Status;\r\n        } else if (neededTalent == Passive3Hash) {\r\n            Passive3Status = (Passive3Status * synergyPercentage) / 100;\r\n            power += Passive3Status;\r\n        }\r\n\r\n        return power;\r\n    }\r\n\r\n    function _getInvestorPowerAndJob(uint256 _tokenId)\r\n        internal\r\n        returns (uint256 _power, bytes32 _job)\r\n    {\r\n        bytes memory payload = abi.encodeWithSignature(\r\n            \"InvestorInfo(uint256)\",\r\n            _tokenId\r\n        );\r\n        (bool success, bytes memory result) = MainAddress.call(payload);\r\n        require(success, \"InvestorInfo failed\");\r\n        (\r\n            string memory job,\r\n            string memory personality,\r\n            string memory passive1Name,\r\n            string memory passive2Name,\r\n            string memory passive3Name,\r\n            string memory awakeningName,\r\n            uint256[3] memory passiveValues\r\n        ) = abi.decode(\r\n                result,\r\n                (string, string, string, string, string, string, uint256[3])\r\n            );\r\n        _power = _calculatePower(\r\n            job,\r\n            personality,\r\n            passive1Name,\r\n            passive2Name,\r\n            passive3Name,\r\n            awakeningName,\r\n            passiveValues\r\n        );\r\n        _job = customHash(job);\r\n    }\r\n\r\n    /*\r\n    stage code \r\n\r\n    101=\" \"\r\n    102=\"\"\r\n    103=\" 5\"\r\n    104=\" 20\"\r\n    105 =\" 100\"\r\n\r\n    201=\" \"\r\n    202=\" \"\r\n    203=\" \"\r\n    204=\"  \"\r\n    205=\"  \"\r\n\r\n    301=\"\"\r\n    302=\"\"\r\n    303=\" 1\"\r\n    304=\" 5\"\r\n    305=\" 19\"\r\n\r\n     */\r\n\r\n    function getStage(uint256 _tokenId) public returns (uint256) {\r\n        (uint256 _power, bytes32 _job) = _getInvestorPowerAndJob(_tokenId);\r\n        if (_job == Job1Hash) {\r\n            if (_power <= 50) {\r\n                return 101;\r\n            } else if (50 < _power && _power <= 100) {\r\n                return 102;\r\n            } else if (100 < _power && _power <= 150) {\r\n                return 103;\r\n            } else if (150 < _power && _power <= 200) {\r\n                return 104;\r\n            } else {\r\n                return 105;\r\n            }\r\n        } else if (_job == Job2Hash) {\r\n            if (_power <= 50) {\r\n                return 201;\r\n            } else if (50 < _power && _power <= 100) {\r\n                return 202;\r\n            } else if (100 < _power && _power <= 150) {\r\n                return 203;\r\n            } else if (150 < _power && _power <= 200) {\r\n                return 204;\r\n            } else {\r\n                return 205;\r\n            }\r\n        } else if (_job == Job3Hash) {\r\n            if (_power <= 50) {\r\n                return 301;\r\n            } else if (50 < _power && _power <= 100) {\r\n                return 302;\r\n            } else if (100 < _power && _power <= 150) {\r\n                return 303;\r\n            } else if (150 < _power && _power <= 200) {\r\n                return 304;\r\n            } else {\r\n                return 305;\r\n            }\r\n        }\r\n    }\r\n}\r\n",
  "sourcePath": "C:\\Decent\\Decent-Contract\\contracts\\DecentProxy.sol",
  "compiler": {
    "name": "solc",
    "version": "0.5.17+commit.d19bba13.Emscripten.clang"
  },
  "schemaVersion": "3.4.6",
  "updatedAt": "2022-07-27T10:33:30.250Z",
  "networkType": "ethereum",
  "devdoc": {
    "methods": {}
  },
  "userdoc": {
    "methods": {}
  }
}