{
  "contractName": "DecentToken",
  "abi": [
    {
      "inputs": [
        {
          "internalType": "string",
          "name": "name",
          "type": "string"
        },
        {
          "internalType": "string",
          "name": "symbol",
          "type": "string"
        },
        {
          "internalType": "address",
          "name": "proxyAddress",
          "type": "address"
        },
        {
          "internalType": "address",
          "name": "rewardAddress",
          "type": "address"
        }
      ],
      "payable": false,
      "stateMutability": "nonpayable",
      "type": "constructor"
    },
    {
      "anonymous": false,
      "inputs": [
        {
          "indexed": true,
          "internalType": "address",
          "name": "owner",
          "type": "address"
        },
        {
          "indexed": true,
          "internalType": "address",
          "name": "approved",
          "type": "address"
        },
        {
          "indexed": true,
          "internalType": "uint256",
          "name": "tokenId",
          "type": "uint256"
        }
      ],
      "name": "Approval",
      "type": "event"
    },
    {
      "anonymous": false,
      "inputs": [
        {
          "indexed": true,
          "internalType": "address",
          "name": "owner",
          "type": "address"
        },
        {
          "indexed": true,
          "internalType": "address",
          "name": "operator",
          "type": "address"
        },
        {
          "indexed": false,
          "internalType": "bool",
          "name": "approved",
          "type": "bool"
        }
      ],
      "name": "ApprovalForAll",
      "type": "event"
    },
    {
      "anonymous": false,
      "inputs": [
        {
          "indexed": true,
          "internalType": "address",
          "name": "previousOwner",
          "type": "address"
        },
        {
          "indexed": true,
          "internalType": "address",
          "name": "newOwner",
          "type": "address"
        }
      ],
      "name": "OwnershipTransferred",
      "type": "event"
    },
    {
      "anonymous": false,
      "inputs": [
        {
          "indexed": true,
          "internalType": "address",
          "name": "from",
          "type": "address"
        },
        {
          "indexed": true,
          "internalType": "address",
          "name": "to",
          "type": "address"
        },
        {
          "indexed": true,
          "internalType": "uint256",
          "name": "tokenId",
          "type": "uint256"
        }
      ],
      "name": "Transfer",
      "type": "event"
    },
    {
      "constant": false,
      "inputs": [
        {
          "internalType": "uint256",
          "name": "_tokenId",
          "type": "uint256"
        }
      ],
      "name": "AwakenInvestor",
      "outputs": [],
      "payable": false,
      "stateMutability": "nonpayable",
      "type": "function"
    },
    {
      "constant": true,
      "inputs": [
        {
          "internalType": "uint256",
          "name": "_tokenId",
          "type": "uint256"
        }
      ],
      "name": "InvestorInfo",
      "outputs": [
        {
          "internalType": "string",
          "name": "_Job",
          "type": "string"
        },
        {
          "internalType": "string",
          "name": "_Personality",
          "type": "string"
        },
        {
          "internalType": "string",
          "name": "_Passive1Name",
          "type": "string"
        },
        {
          "internalType": "string",
          "name": "_Passive2Name",
          "type": "string"
        },
        {
          "internalType": "string",
          "name": "_Passive3Name",
          "type": "string"
        },
        {
          "internalType": "string",
          "name": "_AwakeningName",
          "type": "string"
        },
        {
          "internalType": "uint256[3]",
          "name": "_PassiveValues",
          "type": "uint256[3]"
        }
      ],
      "payable": false,
      "stateMutability": "view",
      "type": "function"
    },
    {
      "constant": false,
      "inputs": [
        {
          "internalType": "address",
          "name": "_whitelistAddress",
          "type": "address"
        }
      ],
      "name": "addWhitelist",
      "outputs": [],
      "payable": false,
      "stateMutability": "nonpayable",
      "type": "function"
    },
    {
      "constant": false,
      "inputs": [
        {
          "internalType": "address",
          "name": "user",
          "type": "address"
        },
        {
          "internalType": "uint256",
          "name": "requestedCount",
          "type": "uint256"
        }
      ],
      "name": "airDropMint",
      "outputs": [],
      "payable": false,
      "stateMutability": "nonpayable",
      "type": "function"
    },
    {
      "constant": false,
      "inputs": [
        {
          "internalType": "address",
          "name": "to",
          "type": "address"
        },
        {
          "internalType": "uint256",
          "name": "tokenId",
          "type": "uint256"
        }
      ],
      "name": "approve",
      "outputs": [],
      "payable": false,
      "stateMutability": "nonpayable",
      "type": "function"
    },
    {
      "constant": true,
      "inputs": [
        {
          "internalType": "address",
          "name": "owner",
          "type": "address"
        }
      ],
      "name": "balanceOf",
      "outputs": [
        {
          "internalType": "uint256",
          "name": "",
          "type": "uint256"
        }
      ],
      "payable": false,
      "stateMutability": "view",
      "type": "function"
    },
    {
      "constant": false,
      "inputs": [
        {
          "internalType": "uint256",
          "name": "_tokenId",
          "type": "uint256"
        }
      ],
      "name": "endBattle",
      "outputs": [],
      "payable": false,
      "stateMutability": "nonpayable",
      "type": "function"
    },
    {
      "constant": true,
      "inputs": [],
      "name": "getActiveStatus",
      "outputs": [
        {
          "internalType": "bool",
          "name": "",
          "type": "bool"
        },
        {
          "internalType": "bool",
          "name": "",
          "type": "bool"
        }
      ],
      "payable": false,
      "stateMutability": "view",
      "type": "function"
    },
    {
      "constant": true,
      "inputs": [
        {
          "internalType": "uint256",
          "name": "tokenId",
          "type": "uint256"
        }
      ],
      "name": "getApproved",
      "outputs": [
        {
          "internalType": "address",
          "name": "",
          "type": "address"
        }
      ],
      "payable": false,
      "stateMutability": "view",
      "type": "function"
    },
    {
      "constant": true,
      "inputs": [],
      "name": "getProjectBaseIpfsURI",
      "outputs": [
        {
          "internalType": "string",
          "name": "",
          "type": "string"
        }
      ],
      "payable": false,
      "stateMutability": "view",
      "type": "function"
    },
    {
      "constant": true,
      "inputs": [],
      "name": "getProxyAddress",
      "outputs": [
        {
          "internalType": "address",
          "name": "",
          "type": "address"
        }
      ],
      "payable": false,
      "stateMutability": "view",
      "type": "function"
    },
    {
      "constant": true,
      "inputs": [],
      "name": "getRewardAddress",
      "outputs": [
        {
          "internalType": "address",
          "name": "",
          "type": "address"
        }
      ],
      "payable": false,
      "stateMutability": "view",
      "type": "function"
    },
    {
      "constant": true,
      "inputs": [
        {
          "internalType": "address",
          "name": "owner",
          "type": "address"
        },
        {
          "internalType": "address",
          "name": "operator",
          "type": "address"
        }
      ],
      "name": "isApprovedForAll",
      "outputs": [
        {
          "internalType": "bool",
          "name": "",
          "type": "bool"
        }
      ],
      "payable": false,
      "stateMutability": "view",
      "type": "function"
    },
    {
      "constant": true,
      "inputs": [
        {
          "internalType": "uint256",
          "name": "_tokenId",
          "type": "uint256"
        }
      ],
      "name": "isOnBattle",
      "outputs": [
        {
          "internalType": "bool",
          "name": "",
          "type": "bool"
        }
      ],
      "payable": false,
      "stateMutability": "view",
      "type": "function"
    },
    {
      "constant": true,
      "inputs": [],
      "name": "isOwner",
      "outputs": [
        {
          "internalType": "bool",
          "name": "",
          "type": "bool"
        }
      ],
      "payable": false,
      "stateMutability": "view",
      "type": "function"
    },
    {
      "constant": true,
      "inputs": [],
      "name": "mintingInformation",
      "outputs": [
        {
          "internalType": "uint256[7]",
          "name": "",
          "type": "uint256[7]"
        }
      ],
      "payable": false,
      "stateMutability": "view",
      "type": "function"
    },
    {
      "constant": true,
      "inputs": [],
      "name": "name",
      "outputs": [
        {
          "internalType": "string",
          "name": "",
          "type": "string"
        }
      ],
      "payable": false,
      "stateMutability": "view",
      "type": "function"
    },
    {
      "constant": true,
      "inputs": [],
      "name": "owner",
      "outputs": [
        {
          "internalType": "address payable",
          "name": "",
          "type": "address"
        }
      ],
      "payable": false,
      "stateMutability": "view",
      "type": "function"
    },
    {
      "constant": true,
      "inputs": [
        {
          "internalType": "uint256",
          "name": "tokenId",
          "type": "uint256"
        }
      ],
      "name": "ownerOf",
      "outputs": [
        {
          "internalType": "address",
          "name": "",
          "type": "address"
        }
      ],
      "payable": false,
      "stateMutability": "view",
      "type": "function"
    },
    {
      "constant": false,
      "inputs": [
        {
          "internalType": "uint256",
          "name": "requestedCount",
          "type": "uint256"
        }
      ],
      "name": "publicMint",
      "outputs": [],
      "payable": true,
      "stateMutability": "payable",
      "type": "function"
    },
    {
      "constant": false,
      "inputs": [
        {
          "internalType": "address",
          "name": "_whitelistAddress",
          "type": "address"
        }
      ],
      "name": "removeWhitelist",
      "outputs": [],
      "payable": false,
      "stateMutability": "nonpayable",
      "type": "function"
    },
    {
      "constant": false,
      "inputs": [],
      "name": "renounceOwnership",
      "outputs": [],
      "payable": false,
      "stateMutability": "nonpayable",
      "type": "function"
    },
    {
      "constant": false,
      "inputs": [
        {
          "internalType": "address",
          "name": "from",
          "type": "address"
        },
        {
          "internalType": "address",
          "name": "to",
          "type": "address"
        },
        {
          "internalType": "uint256",
          "name": "tokenId",
          "type": "uint256"
        }
      ],
      "name": "safeTransferFrom",
      "outputs": [],
      "payable": false,
      "stateMutability": "nonpayable",
      "type": "function"
    },
    {
      "constant": false,
      "inputs": [
        {
          "internalType": "address",
          "name": "from",
          "type": "address"
        },
        {
          "internalType": "address",
          "name": "to",
          "type": "address"
        },
        {
          "internalType": "uint256",
          "name": "tokenId",
          "type": "uint256"
        },
        {
          "internalType": "bytes",
          "name": "_data",
          "type": "bytes"
        }
      ],
      "name": "safeTransferFrom",
      "outputs": [],
      "payable": false,
      "stateMutability": "nonpayable",
      "type": "function"
    },
    {
      "constant": false,
      "inputs": [
        {
          "internalType": "address",
          "name": "to",
          "type": "address"
        },
        {
          "internalType": "bool",
          "name": "approved",
          "type": "bool"
        }
      ],
      "name": "setApprovalForAll",
      "outputs": [],
      "payable": false,
      "stateMutability": "nonpayable",
      "type": "function"
    },
    {
      "constant": false,
      "inputs": [
        {
          "internalType": "address",
          "name": "_newProxyAddress",
          "type": "address"
        }
      ],
      "name": "setProxyAddress",
      "outputs": [],
      "payable": false,
      "stateMutability": "nonpayable",
      "type": "function"
    },
    {
      "constant": false,
      "inputs": [
        {
          "internalType": "address",
          "name": "_newRewardAddress",
          "type": "address"
        }
      ],
      "name": "setRewardAddress",
      "outputs": [],
      "payable": false,
      "stateMutability": "nonpayable",
      "type": "function"
    },
    {
      "constant": false,
      "inputs": [
        {
          "internalType": "uint256",
          "name": "_tokenId",
          "type": "uint256"
        }
      ],
      "name": "startBattle",
      "outputs": [],
      "payable": false,
      "stateMutability": "nonpayable",
      "type": "function"
    },
    {
      "constant": true,
      "inputs": [
        {
          "internalType": "bytes4",
          "name": "interfaceId",
          "type": "bytes4"
        }
      ],
      "name": "supportsInterface",
      "outputs": [
        {
          "internalType": "bool",
          "name": "",
          "type": "bool"
        }
      ],
      "payable": false,
      "stateMutability": "view",
      "type": "function"
    },
    {
      "constant": true,
      "inputs": [],
      "name": "symbol",
      "outputs": [
        {
          "internalType": "string",
          "name": "",
          "type": "string"
        }
      ],
      "payable": false,
      "stateMutability": "view",
      "type": "function"
    },
    {
      "constant": false,
      "inputs": [],
      "name": "toggleActive",
      "outputs": [],
      "payable": false,
      "stateMutability": "nonpayable",
      "type": "function"
    },
    {
      "constant": false,
      "inputs": [],
      "name": "toggleWhitelistMintEnabled",
      "outputs": [],
      "payable": false,
      "stateMutability": "nonpayable",
      "type": "function"
    },
    {
      "constant": true,
      "inputs": [
        {
          "internalType": "uint256",
          "name": "index",
          "type": "uint256"
        }
      ],
      "name": "tokenByIndex",
      "outputs": [
        {
          "internalType": "uint256",
          "name": "",
          "type": "uint256"
        }
      ],
      "payable": false,
      "stateMutability": "view",
      "type": "function"
    },
    {
      "constant": true,
      "inputs": [
        {
          "internalType": "address",
          "name": "owner",
          "type": "address"
        },
        {
          "internalType": "uint256",
          "name": "index",
          "type": "uint256"
        }
      ],
      "name": "tokenOfOwnerByIndex",
      "outputs": [
        {
          "internalType": "uint256",
          "name": "",
          "type": "uint256"
        }
      ],
      "payable": false,
      "stateMutability": "view",
      "type": "function"
    },
    {
      "constant": true,
      "inputs": [
        {
          "internalType": "uint256",
          "name": "_tokenId",
          "type": "uint256"
        }
      ],
      "name": "tokenURI",
      "outputs": [
        {
          "internalType": "string",
          "name": "",
          "type": "string"
        }
      ],
      "payable": false,
      "stateMutability": "view",
      "type": "function"
    },
    {
      "constant": true,
      "inputs": [
        {
          "internalType": "address",
          "name": "owner",
          "type": "address"
        }
      ],
      "name": "tokensOfOwner",
      "outputs": [
        {
          "internalType": "uint256[]",
          "name": "",
          "type": "uint256[]"
        }
      ],
      "payable": false,
      "stateMutability": "view",
      "type": "function"
    },
    {
      "constant": true,
      "inputs": [],
      "name": "totalSupply",
      "outputs": [
        {
          "internalType": "uint256",
          "name": "",
          "type": "uint256"
        }
      ],
      "payable": false,
      "stateMutability": "view",
      "type": "function"
    },
    {
      "constant": false,
      "inputs": [
        {
          "internalType": "address",
          "name": "from",
          "type": "address"
        },
        {
          "internalType": "address",
          "name": "to",
          "type": "address"
        },
        {
          "internalType": "uint256",
          "name": "tokenId",
          "type": "uint256"
        }
      ],
      "name": "transferFrom",
      "outputs": [],
      "payable": false,
      "stateMutability": "nonpayable",
      "type": "function"
    },
    {
      "constant": false,
      "inputs": [
        {
          "internalType": "address payable",
          "name": "newOwner",
          "type": "address"
        }
      ],
      "name": "transferOwnership",
      "outputs": [],
      "payable": false,
      "stateMutability": "nonpayable",
      "type": "function"
    },
    {
      "constant": false,
      "inputs": [
        {
          "internalType": "uint256",
          "name": "_interval",
          "type": "uint256"
        }
      ],
      "name": "updateAntibotInterval",
      "outputs": [],
      "payable": false,
      "stateMutability": "nonpayable",
      "type": "function"
    },
    {
      "constant": false,
      "inputs": [
        {
          "internalType": "uint256",
          "name": "_limit",
          "type": "uint256"
        }
      ],
      "name": "updateMintLimitPerBlock",
      "outputs": [],
      "payable": false,
      "stateMutability": "nonpayable",
      "type": "function"
    },
    {
      "constant": false,
      "inputs": [
        {
          "internalType": "uint256",
          "name": "_blockNumber",
          "type": "uint256"
        }
      ],
      "name": "updateMintStartBlockNumber",
      "outputs": [],
      "payable": false,
      "stateMutability": "nonpayable",
      "type": "function"
    },
    {
      "constant": false,
      "inputs": [
        {
          "internalType": "string",
          "name": "_projectBaseIpfsURI",
          "type": "string"
        }
      ],
      "name": "updateProjectBaseIpfsURI",
      "outputs": [],
      "payable": false,
      "stateMutability": "nonpayable",
      "type": "function"
    },
    {
      "constant": false,
      "inputs": [
        {
          "internalType": "uint256",
          "name": "_maxInvocations",
          "type": "uint256"
        }
      ],
      "name": "updateProjectMaxInvocations",
      "outputs": [],
      "payable": false,
      "stateMutability": "nonpayable",
      "type": "function"
    },
    {
      "constant": false,
      "inputs": [
        {
          "internalType": "uint256",
          "name": "_price",
          "type": "uint256"
        }
      ],
      "name": "updateProjectPricePerTokenInPeb",
      "outputs": [],
      "payable": false,
      "stateMutability": "nonpayable",
      "type": "function"
    },
    {
      "constant": false,
      "inputs": [
        {
          "internalType": "uint256",
          "name": "_price",
          "type": "uint256"
        }
      ],
      "name": "updateProjectWhitelistPricePerTokenInPeb",
      "outputs": [],
      "payable": false,
      "stateMutability": "nonpayable",
      "type": "function"
    },
    {
      "constant": true,
      "inputs": [
        {
          "internalType": "address",
          "name": "",
          "type": "address"
        }
      ],
      "name": "whitelistAddress",
      "outputs": [
        {
          "internalType": "bool",
          "name": "",
          "type": "bool"
        }
      ],
      "payable": false,
      "stateMutability": "view",
      "type": "function"
    },
    {
      "constant": false,
      "inputs": [
        {
          "internalType": "uint256",
          "name": "requestedCount",
          "type": "uint256"
        }
      ],
      "name": "whitelistMint",
      "outputs": [],
      "payable": true,
      "stateMutability": "payable",
      "type": "function"
    },
    {
      "constant": false,
      "inputs": [],
      "name": "withdraw",
      "outputs": [],
      "payable": false,
      "stateMutability": "nonpayable",
      "type": "function"
    }
  ],
  "bytecode": "0x6080604052615460600f5560016013819055601a805460ff199081169092179055601d805490911690553480156200003657600080fd5b5060405162004a3038038062004a30833981810160405260808110156200005c57600080fd5b81019080805160405193929190846401000000008211156200007d57600080fd5b9083019060208201858111156200009357600080fd5b8251640100000000811182820188101715620000ae57600080fd5b82525081516020918201929091019080838360005b83811015620000dd578181015183820152602001620000c3565b50505050905090810190601f1680156200010b5780820380516001836020036101000a031916815260200191505b50604052602001805160405193929190846401000000008211156200012f57600080fd5b9083019060208201858111156200014557600080fd5b82516401000000008111828201881017156200016057600080fd5b82525081516020918201929091019080838360005b838110156200018f57818101518382015260200162000175565b50505050905090810190601f168015620001bd5780820380516001836020036101000a031916815260200191505b5060409081526020820151910151909250905081818585620001ef6301ffc9a760e01b6001600160e01b03620002f116565b6200020a6380ac58cd60e01b6001600160e01b03620002f116565b6200022563780e9d6360e01b6001600160e01b03620002f116565b81516200023a90600990602085019062000376565b5080516200025090600a90602084019062000376565b506200026c635b5e139f60e01b6001600160e01b03620002f116565b5050600b80546001600160a01b0319163317908190556040516001600160a01b0391909116906000907f8be0079c531659141344cd1fd0a4f28419497f9722a3daafe3b4186f6b6457e0908290a3600c80546001600160a01b039384166001600160a01b031991821617909155600d8054929093169116179055506200041b92505050565b6001600160e01b0319808216141562000351576040805162461bcd60e51b815260206004820152601b60248201527f4b495031333a20696e76616c696420696e746572666163652069640000000000604482015290519081900360640190fd5b6001600160e01b0319166000908152602081905260409020805460ff19166001179055565b828054600181600116156101000203166002900490600052602060002090601f016020900481019282601f10620003b957805160ff1916838001178555620003e9565b82800160010185558215620003e9579182015b82811115620003e9578251825591602001919060010190620003cc565b50620003f7929150620003fb565b5090565b6200041891905b80821115620003f7576000815560010162000402565b90565b614605806200042b6000396000f3fe6080604052600436106102ae5760003560e01c806371b20a101161017557806397440928116100dc578063c87b56dd11610095578063e985e9c51161006f578063e985e9c514610eab578063f2fde38b14610ee6578063f3e6761014610f19578063f80f5dd514610f49576102ae565b8063c87b56dd14610b8b578063cb01cf0614610bb5578063e540611a14610e81576102ae565b80639744092814610a01578063a22cb46514610a2b578063b88d4fde14610a66578063bf9321fc14610b37578063c4e7051414610b4c578063c5319aa814610b76576102ae565b80638da5cb5b1161012e5780638da5cb5b146109445780638e6807f8146109595780638eb9ef72146109835780638f32d59b146109ad57806391bc6165146109c257806395d89b41146109ec576102ae565b806371b20a101461075d57806375a1ed081461080e57806377eccb621461084757806378c8cda7146108715780638462151c146108a4578063868ff4a214610927576102ae565b80633ccfd60b1161021957806349a44af1116101d257806349a44af1146106645780634f6ccce71461068e5780635e00e679146106b85780636352211e146106eb57806370a0823114610715578063715018a614610748576102ae565b80633ccfd60b14610567578063415665851461057c5780634157e6ef146105af57806342842e0e146105d957806343a73d9a1461061c57806346a7dadc14610631576102ae565b80631dd8792b1161026b5780631dd8792b1461045757806323b872dd146104a457806329c68dc1146104e75780632db11544146104fc5780632f745c591461051957806332b9537214610552576102ae565b806301ffc9a7146102b357806306fdde03146102fb578063081812fc14610385578063095ea7b3146103cb57806318160ddd146104065780631b5f59211461042d575b600080fd5b3480156102bf57600080fd5b506102e7600480360360208110156102d657600080fd5b50356001600160e01b031916610f7c565b604080519115158252519081900360200190f35b34801561030757600080fd5b50610310610f9f565b6040805160208082528351818301528351919283929083019185019080838360005b8381101561034a578181015183820152602001610332565b50505050905090810190601f1680156103775780820380516001836020036101000a031916815260200191505b509250505060405180910390f35b34801561039157600080fd5b506103af600480360360208110156103a857600080fd5b5035611036565b604080516001600160a01b039092168252519081900360200190f35b3480156103d757600080fd5b50610404600480360360408110156103ee57600080fd5b506001600160a01b038135169060200135611098565b005b34801561041257600080fd5b5061041b6111bf565b60408051918252519081900360200190f35b34801561043957600080fd5b506104046004803603602081101561045057600080fd5b50356111c5565b34801561046357600080fd5b5061046c611211565b604051808260e080838360005b83811015610491578181015183820152602001610479565b5050505090500191505060405180910390f35b3480156104b057600080fd5b50610404600480360360608110156104c757600080fd5b506001600160a01b0381358116916020810135909116906040013561125f565b3480156104f357600080fd5b506104046112b4565b6104046004803603602081101561051257600080fd5b503561130f565b34801561052557600080fd5b5061041b6004803603604081101561053c57600080fd5b506001600160a01b038135169060200135611579565b34801561055e57600080fd5b506104046115f9565b34801561057357600080fd5b50610404611654565b34801561058857600080fd5b506102e76004803603602081101561059f57600080fd5b50356001600160a01b03166116f3565b3480156105bb57600080fd5b50610404600480360360208110156105d257600080fd5b5035611708565b3480156105e557600080fd5b50610404600480360360608110156105fc57600080fd5b506001600160a01b03813581169160208101359091169060400135611832565b34801561062857600080fd5b506103af61184d565b34801561063d57600080fd5b506104046004803603602081101561065457600080fd5b50356001600160a01b031661185c565b34801561067057600080fd5b506102e76004803603602081101561068757600080fd5b50356118c5565b34801561069a57600080fd5b5061041b600480360360208110156106b157600080fd5b50356118df565b3480156106c457600080fd5b50610404600480360360208110156106db57600080fd5b50356001600160a01b0316611945565b3480156106f757600080fd5b506103af6004803603602081101561070e57600080fd5b50356119ae565b34801561072157600080fd5b5061041b6004803603602081101561073857600080fd5b50356001600160a01b0316611a02565b34801561075457600080fd5b50610404611a6a565b34801561076957600080fd5b506104046004803603602081101561078057600080fd5b810190602081018135600160201b81111561079a57600080fd5b8201836020820111156107ac57600080fd5b803590602001918460018302840111600160201b831117156107cd57600080fd5b91908080601f016020809104026020016040519081016040528093929190818152602001838380828437600092019190915250929550611afb945050505050565b34801561081a57600080fd5b506104046004803603604081101561083157600080fd5b506001600160a01b038135169060200135611b55565b34801561085357600080fd5b506104046004803603602081101561086a57600080fd5b5035611c21565b34801561087d57600080fd5b506104046004803603602081101561089457600080fd5b50356001600160a01b0316611c6d565b3480156108b057600080fd5b506108d7600480360360208110156108c757600080fd5b50356001600160a01b0316611cd5565b60408051602080825283518183015283519192839290830191858101910280838360005b838110156109135781810151838201526020016108fb565b505050509050019250505060405180910390f35b6104046004803603602081101561093d57600080fd5b5035611d36565b34801561095057600080fd5b506103af611f44565b34801561096557600080fd5b506104046004803603602081101561097c57600080fd5b5035611f53565b34801561098f57600080fd5b50610404600480360360208110156109a657600080fd5b5035612189565b3480156109b957600080fd5b506102e76121d5565b3480156109ce57600080fd5b50610404600480360360208110156109e557600080fd5b50356121e6565b3480156109f857600080fd5b506103106124f6565b348015610a0d57600080fd5b5061040460048036036020811015610a2457600080fd5b5035612557565b348015610a3757600080fd5b5061040460048036036040811015610a4e57600080fd5b506001600160a01b03813516906020013515156125a3565b348015610a7257600080fd5b5061040460048036036080811015610a8957600080fd5b6001600160a01b03823581169260208101359091169160408201359190810190608081016060820135600160201b811115610ac357600080fd5b820183602082011115610ad557600080fd5b803590602001918460018302840111600160201b83111715610af657600080fd5b91908080601f01602080910402602001604051908101604052809392919081815260200183838082843760009201919091525092955061266f945050505050565b348015610b4357600080fd5b506103af6126c7565b348015610b5857600080fd5b5061040460048036036020811015610b6f57600080fd5b50356126d6565b348015610b8257600080fd5b50610310612722565b348015610b9757600080fd5b5061031060048036036020811015610bae57600080fd5b5035612783565b348015610bc157600080fd5b50610bdf60048036036020811015610bd857600080fd5b50356128eb565b6040518080602001806020018060200180602001806020018060200188600360200280838360005b83811015610c1f578181015183820152602001610c07565b5050505090500187810387528e818151815260200191508051906020019080838360005b83811015610c5b578181015183820152602001610c43565b50505050905090810190601f168015610c885780820380516001836020036101000a031916815260200191505b5087810386528d5181528d516020918201918f019080838360005b83811015610cbb578181015183820152602001610ca3565b50505050905090810190601f168015610ce85780820380516001836020036101000a031916815260200191505b5087810385528c5181528c516020918201918e019080838360005b83811015610d1b578181015183820152602001610d03565b50505050905090810190601f168015610d485780820380516001836020036101000a031916815260200191505b5087810384528b5181528b516020918201918d019080838360005b83811015610d7b578181015183820152602001610d63565b50505050905090810190601f168015610da85780820380516001836020036101000a031916815260200191505b5087810383528a5181528a516020918201918c019080838360005b83811015610ddb578181015183820152602001610dc3565b50505050905090810190601f168015610e085780820380516001836020036101000a031916815260200191505b5087810382528951815289516020918201918b019080838360005b83811015610e3b578181015183820152602001610e23565b50505050905090810190601f168015610e685780820380516001836020036101000a031916815260200191505b509d505050505050505050505050505060405180910390f35b348015610e8d57600080fd5b5061040460048036036020811015610ea457600080fd5b5035612d80565b348015610eb757600080fd5b506102e760048036036040811015610ece57600080fd5b506001600160a01b0381358116916020013516612dcc565b348015610ef257600080fd5b5061040460048036036020811015610f0957600080fd5b50356001600160a01b0316612dfa565b348015610f2557600080fd5b50610f2e612e4a565b60408051921515835290151560208301528051918290030190f35b348015610f5557600080fd5b5061040460048036036020811015610f6c57600080fd5b50356001600160a01b0316612e5b565b6001600160e01b0319811660009081526020819052604090205460ff165b919050565b60098054604080516020601f600260001961010060018816150201909516949094049384018190048102820181019092528281526060939092909183018282801561102b5780601f106110005761010080835404028352916020019161102b565b820191906000526020600020905b81548152906001019060200180831161100e57829003601f168201915b505050505090505b90565b600061104182612ec6565b61107c5760405162461bcd60e51b815260040180806020018281038252602b815260200180614544602b913960400191505060405180910390fd5b506000908152600260205260409020546001600160a01b031690565b60006110a3826119ae565b9050806001600160a01b0316836001600160a01b0316141561110c576040805162461bcd60e51b815260206004820181905260248201527f4b495031373a20617070726f76616c20746f2063757272656e74206f776e6572604482015290519081900360640190fd5b336001600160a01b038216148061112857506111288133612dcc565b6111635760405162461bcd60e51b815260040180806020018281038252603781526020018061456f6037913960400191505060405180910390fd5b60008281526002602052604080822080546001600160a01b0319166001600160a01b0387811691821790925591518593918516917f8c5be1e5ebec7d5bd14f71427d1e84f3dd0314c0f7b2291e5b200ac8c7c3b92591a4505050565b60075490565b6111cd6121d5565b61120c576040805162461bcd60e51b81526020600482018190526024820152600080516020614456833981519152604482015290519081900360640190fd5b601655565b611219614231565b6040518060e00160405280601254815260200160175481526020016018548152602001601554815260200160165481526020016013548152602001601954815250905090565b6112693382612ee3565b6112a45760405162461bcd60e51b81526004018080602001828103825260308152602001806144266030913960400191505060405180910390fd5b6112af838383612f87565b505050565b6112bc6121d5565b6112fb576040805162461bcd60e51b81526020600482018190526024820152600080516020614456833981519152604482015290519081900360640190fd5b601a805460ff19811660ff90911615179055565b601a5460ff16611366576040805162461bcd60e51b815260206004820152601f60248201527f546865207075626c69632073616c65206973206e6f7420656e61626c65642100604482015290519081900360640190fd5b60125433600090815260116020526040902054439161138b919063ffffffff612fa616565b106113d2576040805162461bcd60e51b8152602060048201526012602482015271109bdd081a5cc81b9bdd08185b1b1bddd95960721b604482015290519081900360640190fd5b60185443101561141b576040805162461bcd60e51b815260206004820152600f60248201526e139bdd081e595d081cdd185c9d1959608a1b604482015290519081900360640190fd5b60008111801561142d57506017548111155b6114685760405162461bcd60e51b815260040180806020018281038252602181526020018061434c6021913960400191505060405180910390fd5b60155461147b908263ffffffff61300016565b34146114c0576040805162461bcd60e51b815260206004820152600f60248201526e4e6f7420656e6f756768204b6c617960881b604482015290519081900360640190fd5b6019546001016114db82601354612fa690919063ffffffff16565b1115611522576040805162461bcd60e51b8152602060048201526011602482015270115e18d95959081b585e08185b5bdd5b9d607a1b604482015290519081900360640190fd5b60005b818110156115635761153933601354613059565b611544601354613076565b60135461155890600163ffffffff612fa616565b601355600101611525565b5050336000908152601160205260409020439055565b600061158483611a02565b82106115c15760405162461bcd60e51b815260040180806020018281038252602a8152602001806143b3602a913960400191505060405180910390fd5b6001600160a01b03831660009081526005602052604090208054839081106115e557fe5b906000526020600020015490505b92915050565b6116016121d5565b611640576040805162461bcd60e51b81526020600482018190526024820152600080516020614456833981519152604482015290519081900360640190fd5b601d805460ff19811660ff90911615179055565b61165c6121d5565b61169b576040805162461bcd60e51b81526020600482018190526024820152600080516020614456833981519152604482015290519081900360640190fd5b604051600090339047908381818185875af1925050503d80600081146116dd576040519150601f19603f3d011682016040523d82523d6000602084013e6116e2565b606091505b50509050806116f057600080fd5b50565b601c6020526000908152604090205460ff1681565b8033611713826119ae565b6001600160a01b0316146117585760405162461bcd60e51b81526004018080602001828103825260238152602001806143906023913960400191505060405180910390fd5b60008281526010602052604090206002015460ff166117ae576040805162461bcd60e51b815260206004820152600d60248201526c6e6f74206f6e20626174746c6560981b604482015290519081900360640190fd5b600f54600083815260106020526040902054430311611807576040805162461bcd60e51b815260206004820152601060248201526f18985d1d1b19481b9bdd08195b99195960821b604482015290519081900360640190fd5b600082815260106020526040902060028101805460ff191690556001015461182e9061367f565b5050565b6112af8383836040518060200160405280600081525061266f565b600c546001600160a01b031690565b6118646121d5565b6118a3576040805162461bcd60e51b81526020600482018190526024820152600080516020614456833981519152604482015290519081900360640190fd5b600c80546001600160a01b0319166001600160a01b0392909216919091179055565b600f54600091825260106020526040909120544391011190565b60006118e96111bf565b82106119265760405162461bcd60e51b815260040180806020018281038252602b8152602001806144f7602b913960400191505060405180910390fd5b6007828154811061193357fe5b90600052602060002001549050919050565b61194d6121d5565b61198c576040805162461bcd60e51b81526020600482018190526024820152600080516020614456833981519152604482015290519081900360640190fd5b600d80546001600160a01b0319166001600160a01b0392909216919091179055565b6000818152600160205260408120546001600160a01b0316806115f35760405162461bcd60e51b81526004018080602001828103825260288152602001806143dd6028913960400191505060405180910390fd5b60006001600160a01b038216611a495760405162461bcd60e51b81526004018080602001828103825260298152602001806144a66029913960400191505060405180910390fd5b6001600160a01b03821660009081526003602052604090206115f3906137b3565b611a726121d5565b611ab1576040805162461bcd60e51b81526020600482018190526024820152600080516020614456833981519152604482015290519081900360640190fd5b600b546040516000916001600160a01b0316907f8be0079c531659141344cd1fd0a4f28419497f9722a3daafe3b4186f6b6457e0908390a3600b80546001600160a01b0319169055565b611b036121d5565b611b42576040805162461bcd60e51b81526020600482018190526024820152600080516020614456833981519152604482015290519081900360640190fd5b805161182e90601490602084019061424f565b611b5d6121d5565b611b9c576040805162461bcd60e51b81526020600482018190526024820152600080516020614456833981519152604482015290519081900360640190fd5b60008111611be0576040805162461bcd60e51b815260206004820152600c60248201526b1e995c9bc81c995c5d595cdd60a21b604482015290519081900360640190fd5b60005b818110156112af57611bf783601354613059565b611c02601354613076565b601354611c1690600163ffffffff612fa616565b601355600101611be3565b611c296121d5565b611c68576040805162461bcd60e51b81526020600482018190526024820152600080516020614456833981519152604482015290519081900360640190fd5b601555565b611c756121d5565b611cb4576040805162461bcd60e51b81526020600482018190526024820152600080516020614456833981519152604482015290519081900360640190fd5b6001600160a01b03166000908152601c60205260409020805460ff19169055565b6060611ce0826137b7565b805480602002602001604051908101604052809291908181526020018280548015611d2a57602002820191906000526020600020905b815481526020019060010190808311611d16575b50505050509050919050565b601d5460ff16611d775760405162461bcd60e51b81526004018080602001828103825260228152602001806145226022913960400191505060405180910390fd5b601654611d8a908263ffffffff61300016565b3414611dcf576040805162461bcd60e51b815260206004820152600f60248201526e4e6f7420656e6f756768204b6c617960881b604482015290519081900360640190fd5b336000908152601b602052604090205460ff1615611e34576040805162461bcd60e51b815260206004820152601860248201527f4164647265737320616c726561647920636c61696d6564210000000000000000604482015290519081900360640190fd5b336000908152601c602052604090205460ff16611e98576040805162461bcd60e51b815260206004820152601a60248201527f73656e646572206973206e6f74206f6e2057686974656c697374000000000000604482015290519081900360640190fd5b600081118015611eaa57506017548111155b611ee55760405162461bcd60e51b815260040180806020018281038252602181526020018061434c6021913960400191505060405180910390fd5b60005b81811015611f2657611efc33601354613059565b611f07601354613076565b601354611f1b90600163ffffffff612fa616565b601355600101611ee8565b5050336000908152601b60205260409020805460ff19166001179055565b600b546001600160a01b031690565b8033611f5e826119ae565b6001600160a01b031614611fa35760405162461bcd60e51b81526004018080602001828103825260238152602001806143906023913960400191505060405180910390fd5b60008281526010602052604090206002015460ff161561200a576040805162461bcd60e51b815260206004820152601a60248201527f696e766573746f7220616c7265616479206f6e20626174746c65000000000000604482015290519081900360640190fd5b600082815260106020908152604080832043905580516024808201879052825180830390910181526044909101825291820180516001600160e01b0316630171928160e51b178152600c54915183519394936060936001600160a01b0316928692918291908083835b602083106120925780518252601f199092019160209182019101612073565b6001836020036101000a0380198251168184511680821785525050505050509050019150506000604051808303816000865af19150503d80600081146120f4576040519150601f19603f3d011682016040523d82523d6000602084013e6120f9565b606091505b509150915081612142576040805162461bcd60e51b815260206004820152600f60248201526e19d95d14dd1859d94819985a5b1959608a1b604482015290519081900360640190fd5b600081806020019051602081101561215957600080fd5b5051600096875260106020526040909620600180820197909755600201805460ff19169096179095555050505050565b6121916121d5565b6121d0576040805162461bcd60e51b81526020600482018190526024820152600080516020614456833981519152604482015290519081900360640190fd5b601255565b600b546001600160a01b0316331490565b80336121f1826119ae565b6001600160a01b0316146122365760405162461bcd60e51b81526004018080602001828103825260238152602001806143906023913960400191505060405180910390fd5b6000828152600e6020526040902060050154602d1180159061226a57506000828152600e6020526040902060060154602d11155b801561228857506000828152600e6020526040902060070154602d11155b6122d9576040805162461bcd60e51b815260206004820152601a60248201527f6e6f7420656e6f7567682073746174757320746f206177616b65000000000000604482015290519081900360640190fd5b60408051600481526024810182526020810180516001600160e01b0316631597a25960e11b178152600c549251825192936000936060936001600160a01b0390921692869290918291908083835b602083106123465780518252601f199092019160209182019101612327565b6001836020036101000a0380198251168184511680821785525050505050509050019150506000604051808303816000865af19150503d80600081146123a8576040519150601f19603f3d011682016040523d82523d6000602084013e6123ad565b606091505b509150915060608180602001905160208110156123c957600080fd5b8101908080516040519392919084600160201b8211156123e857600080fd5b9083019060208201858111156123fd57600080fd5b8251600160201b81118282018810171561241657600080fd5b82525081516020918201929091019080838360005b8381101561244357818101518382015260200161242b565b50505050905090810190601f1680156124705780820380516001836020036101000a031916815260200191505b50604052505050905080600e600088815260200190815260200160002060080190805190602001906124a392919061424f565b50826124ee576040805162461bcd60e51b8152602060048201526015602482015274105dd85ad95b925b9d995cdd1bdc8819985a5b1959605a1b604482015290519081900360640190fd5b505050505050565b600a8054604080516020601f600260001961010060018816150201909516949094049384018190048102820181019092528281526060939092909183018282801561102b5780601f106110005761010080835404028352916020019161102b565b61255f6121d5565b61259e576040805162461bcd60e51b81526020600482018190526024820152600080516020614456833981519152604482015290519081900360640190fd5b601755565b6001600160a01b038216331415612601576040805162461bcd60e51b815260206004820152601860248201527f4b495031373a20617070726f766520746f2063616c6c65720000000000000000604482015290519081900360640190fd5b3360008181526004602090815260408083206001600160a01b03871680855290835292819020805460ff1916861515908117909155815190815290519293927f17307eab39ab6107e8899845ad3d59bd9653f200f220920489ca2b5937696c31929181900390910190a35050565b61267a84848461125f565b612686848484846137d1565b6126c15760405162461bcd60e51b81526004018080602001828103825260308152602001806144766030913960400191505060405180910390fd5b50505050565b600d546001600160a01b031690565b6126de6121d5565b61271d576040805162461bcd60e51b81526020600482018190526024820152600080516020614456833981519152604482015290519081900360640190fd5b601855565b60148054604080516020601f600260001961010060018816150201909516949094049384018190048102820181019092528281526060939092909183018282801561102b5780601f106110005761010080835404028352916020019161102b565b60608161278f81612ec6565b6127da576040805162461bcd60e51b8152602060048201526017602482015276151bdad95b88125108191bd95cc81b9bdd08195e1a5cdd604a1b604482015290519081900360640190fd5b6014546002600019610100600184161502019091160461280957604051806020016040528060008152506128e4565b601461281484613bae565b60405160200180838054600181600116156101000203166002900480156128725780601f10612850576101008083540402835291820191612872565b820191906000526020600020905b81548152906001019060200180831161285e575b5050825160208401908083835b6020831061289e5780518252601f19909201916020918201910161287f565b6001836020036101000a0380198251168184511680821785525050505050509050018064173539b7b760d91b815250600501925050506040516020818303038152906040525b9392505050565b6060806060806060806128fc6142cd565b8761290681612ec6565b612951576040805162461bcd60e51b8152602060048201526017602482015276151bdad95b88125108191bd95cc81b9bdd08195e1a5cdd604a1b604482015290519081900360640190fd5b6000898152600e602090815260409182902080548351601f6002600019610100600186161502019093169290920491820184900484028101840190945280845290918301828280156129e45780601f106129b9576101008083540402835291602001916129e4565b820191906000526020600020905b8154815290600101906020018083116129c757829003601f168201915b50505050509750600e60008a81526020019081526020016000206001018054600181600116156101000203166002900480601f016020809104026020016040519081016040528092919081815260200182805460018160011615610100020316600290048015612a955780601f10612a6a57610100808354040283529160200191612a95565b820191906000526020600020905b815481529060010190602001808311612a7857829003601f168201915b50505060008c8152600e60209081526040918290206002908101805484516001821615610100026000190190911692909204601f8101849004840283018401909452838252959c50949350909150830182828015612b345780601f10612b0957610100808354040283529160200191612b34565b820191906000526020600020905b815481529060010190602001808311612b1757829003601f168201915b50505060008c8152600e60209081526040918290206003018054835160026001831615610100026000190190921691909104601f8101849004840282018401909452838152959b509350909150830182828015612bd25780601f10612ba757610100808354040283529160200191612bd2565b820191906000526020600020905b815481529060010190602001808311612bb557829003601f168201915b50505060008c8152600e60209081526040918290206004018054835160026001831615610100026000190190921691909104601f8101849004840282018401909452838152959a509350909150830182828015612c705780601f10612c4557610100808354040283529160200191612c70565b820191906000526020600020905b815481529060010190602001808311612c5357829003601f168201915b50505060008c8152600e60209081526040918290206008018054835160026001831615610100026000190190921691909104601f81018490048402820184019094528381529599509350909150830182828015612d0e5780601f10612ce357610100808354040283529160200191612d0e565b820191906000526020600020905b815481529060010190602001808311612cf157829003601f168201915b505050505092506040518060600160405280600e60008c8152602001908152602001600020600501548152602001600e60008c8152602001908152602001600020600601548152602001600e60008c815260200190815260200160002060070154815250915050919395979092949650565b612d886121d5565b612dc7576040805162461bcd60e51b81526020600482018190526024820152600080516020614456833981519152604482015290519081900360640190fd5b601955565b6001600160a01b03918216600090815260046020908152604080832093909416825291909152205460ff1690565b612e026121d5565b612e41576040805162461bcd60e51b81526020600482018190526024820152600080516020614456833981519152604482015290519081900360640190fd5b6116f081613c6f565b601a54601d5460ff91821691169091565b612e636121d5565b612ea2576040805162461bcd60e51b81526020600482018190526024820152600080516020614456833981519152604482015290519081900360640190fd5b6001600160a01b03166000908152601c60205260409020805460ff19166001179055565b6000908152600160205260409020546001600160a01b0316151590565b6000612eee82612ec6565b612f295760405162461bcd60e51b815260040180806020018281038252602b8152602001806145a6602b913960400191505060405180910390fd5b6000612f34836119ae565b9050806001600160a01b0316846001600160a01b03161480612f6f5750836001600160a01b0316612f6484611036565b6001600160a01b0316145b80612f7f5750612f7f8185612dcc565b949350505050565b612f92838383613d10565b612f9c8382613e54565b6112af8282613f49565b6000828201838110156128e4576040805162461bcd60e51b815260206004820152601b60248201527f536166654d6174683a206164646974696f6e206f766572666c6f770000000000604482015290519081900360640190fd5b60008261300f575060006115f3565b8282028284828161301c57fe5b04146128e45760405162461bcd60e51b81526004018080602001828103825260218152602001806144056021913960400191505060405180910390fd5b6130638282613f87565b61306d8282613f49565b61182e816140b8565b8061308081612ec6565b6130cb576040805162461bcd60e51b8152602060048201526017602482015276151bdad95b88125108191bd95cc81b9bdd08195e1a5cdd604a1b604482015290519081900360640190fd5b60408051602480820185905282518083039091018152604490910182526020810180516001600160e01b0316630af978a560e31b178152600c549251825192936000936060936001600160a01b0390921692869290918291908083835b602083106131475780518252601f199092019160209182019101613128565b6001836020036101000a0380198251168184511680821785525050505050509050019150506000604051808303816000865af19150503d80600081146131a9576040519150601f19603f3d011682016040523d82523d6000602084013e6131ae565b606091505b509150915060608060608060606131c36142cd565b868060200190516101008110156131d957600080fd5b8101908080516040519392919084600160201b8211156131f857600080fd5b90830190602082018581111561320d57600080fd5b8251600160201b81118282018810171561322657600080fd5b82525081516020918201929091019080838360005b8381101561325357818101518382015260200161323b565b50505050905090810190601f1680156132805780820380516001836020036101000a031916815260200191505b5060405260200180516040519392919084600160201b8211156132a257600080fd5b9083019060208201858111156132b757600080fd5b8251600160201b8111828201881017156132d057600080fd5b82525081516020918201929091019080838360005b838110156132fd5781810151838201526020016132e5565b50505050905090810190601f16801561332a5780820380516001836020036101000a031916815260200191505b5060405260200180516040519392919084600160201b82111561334c57600080fd5b90830190602082018581111561336157600080fd5b8251600160201b81118282018810171561337a57600080fd5b82525081516020918201929091019080838360005b838110156133a757818101518382015260200161338f565b50505050905090810190601f1680156133d45780820380516001836020036101000a031916815260200191505b5060405260200180516040519392919084600160201b8211156133f657600080fd5b90830190602082018581111561340b57600080fd5b8251600160201b81118282018810171561342457600080fd5b82525081516020918201929091019080838360005b83811015613451578181015183820152602001613439565b50505050905090810190601f16801561347e5780820380516001836020036101000a031916815260200191505b5060405260200180516040519392919084600160201b8211156134a057600080fd5b9083019060208201858111156134b557600080fd5b8251600160201b8111828201881017156134ce57600080fd5b82525081516020918201929091019080838360005b838110156134fb5781810151838201526020016134e3565b50505050905090810190601f1680156135285780820380516001836020036101000a031916815260200191505b506040526020019190505095509550955095509550955087613591576040805162461bcd60e51b815260206004820152601760248201527f67656e6572617465496e766573746f72206661696c6564000000000000000000604482015290519081900360640190fd5b60008b8152600e6020908152604090912087516135b09289019061424f565b5060008b8152600e6020908152604090912086516135d69260019092019188019061424f565b5060008b8152600e6020908152604090912085516135fc9260029092019187019061424f565b50805160008c8152600e602090815260409091206005810192909255845161362a926003019186019061424f565b5060208082015160008d8152600e8352604090206006810191909155835161365a9260049092019185019061424f565b5060409081015160009b8c52600e6020529a2060070199909955505050505050505050565b60408051336024820152604480820184905282518083039091018152606490910182526020810180516001600160e01b0316633ed044e360e21b178152600d549251825192936000936001600160a01b0391909116928592918291908083835b602083106136fe5780518252601f1990920191602091820191016136df565b6001836020036101000a0380198251168184511680821785525050505050509050019150506000604051808303816000865af19150503d8060008114613760576040519150601f19603f3d011682016040523d82523d6000602084013e613765565b606091505b50509050806112af576040805162461bcd60e51b81526020600482015260156024820152747265776172646564207375636365737366756c6c7960581b604482015290519081900360640190fd5b5490565b6001600160a01b0316600090815260056020526040902090565b60008060606137e8866001600160a01b03166140fc565b6137f757600192505050612f7f565b856001600160a01b031663150b7a0260e01b3389888860405160240180856001600160a01b03166001600160a01b03168152602001846001600160a01b03166001600160a01b0316815260200183815260200180602001828103825283818151815260200191508051906020019080838360005b8381101561388357818101518382015260200161386b565b50505050905090810190601f1680156138b05780820380516001836020036101000a031916815260200191505b5060408051601f198184030181529181526020820180516001600160e01b03166001600160e01b0319909a16999099178952518151919890975087965094509250829150849050835b602083106139185780518252601f1990920191602091820191016138f9565b6001836020036101000a0380198251168184511680821785525050505050509050019150506000604051808303816000865af19150503d806000811461397a576040519150601f19603f3d011682016040523d82523d6000602084013e61397f565b606091505b5080519193509150158015906139bc57508051630a85bd0160e11b90602080840191908110156139ae57600080fd5b50516001600160e01b031916145b156139cc57600192505050612f7f565b856001600160a01b0316636745782b60e01b3389888860405160240180856001600160a01b03166001600160a01b03168152602001846001600160a01b03166001600160a01b0316815260200183815260200180602001828103825283818151815260200191508051906020019080838360005b83811015613a58578181015183820152602001613a40565b50505050905090810190601f168015613a855780820380516001836020036101000a031916815260200191505b5060408051601f198184030181529181526020820180516001600160e01b03166001600160e01b0319909a16999099178952518151919890975087965094509250829150849050835b60208310613aed5780518252601f199092019160209182019101613ace565b6001836020036101000a0380198251168184511680821785525050505050509050019150506000604051808303816000865af19150503d8060008114613b4f576040519150601f19603f3d011682016040523d82523d6000602084013e613b54565b606091505b508051919350915015801590613b9157508051636745782b60e01b9060208084019190811015613b8357600080fd5b50516001600160e01b031916145b15613ba157600192505050612f7f565b5060009695505050505050565b606081613bd357506040805180820190915260018152600360fc1b6020820152610f9a565b8160005b8115613beb57600101600a82049150613bd7565b6060816040519080825280601f01601f191660200182016040528015613c18576020820181803883390190505b50905060001982015b8515613c6657600a860660300160f81b82828060019003935081518110613c4457fe5b60200101906001600160f81b031916908160001a905350600a86049550613c21565b50949350505050565b6001600160a01b038116613cb45760405162461bcd60e51b81526004018080602001828103825260268152602001806143266026913960400191505060405180910390fd5b600b546040516001600160a01b038084169216907f8be0079c531659141344cd1fd0a4f28419497f9722a3daafe3b4186f6b6457e090600090a3600b80546001600160a01b0319166001600160a01b0392909216919091179055565b826001600160a01b0316613d23826119ae565b6001600160a01b031614613d685760405162461bcd60e51b81526004018080602001828103825260288152602001806144cf6028913960400191505060405180910390fd5b6001600160a01b038216613dad5760405162461bcd60e51b815260040180806020018281038252602381526020018061436d6023913960400191505060405180910390fd5b613db681614102565b6001600160a01b0383166000908152600360205260409020613dd79061413d565b6001600160a01b0382166000908152600360205260409020613df890614154565b60008181526001602052604080822080546001600160a01b0319166001600160a01b0386811691821790925591518493918716917fddf252ad1be2c89b69c2b068fc378daa952ba7f163c4a11628f55a4df523b3ef91a4505050565b6001600160a01b038216600090815260056020526040812054613e7e90600163ffffffff61415d16565b600083815260066020526040902054909150808214613f19576001600160a01b0384166000908152600560205260408120805484908110613ebb57fe5b906000526020600020015490508060056000876001600160a01b03166001600160a01b031681526020019081526020016000208381548110613ef957fe5b600091825260208083209091019290925591825260069052604090208190555b6001600160a01b0384166000908152600560205260409020805490613f429060001983016142eb565b5050505050565b6001600160a01b0390911660009081526005602081815260408084208054868652600684529185208290559282526001810183559183529091200155565b6001600160a01b038216613fe2576040805162461bcd60e51b815260206004820152601f60248201527f4b495031373a206d696e7420746f20746865207a65726f206164647265737300604482015290519081900360640190fd5b613feb81612ec6565b1561403d576040805162461bcd60e51b815260206004820152601b60248201527f4b495031373a20746f6b656e20616c7265616479206d696e7465640000000000604482015290519081900360640190fd5b600081815260016020908152604080832080546001600160a01b0319166001600160a01b03871690811790915583526003909152902061407c90614154565b60405181906001600160a01b038416906000907fddf252ad1be2c89b69c2b068fc378daa952ba7f163c4a11628f55a4df523b3ef908290a45050565b600780546000838152600860205260408120829055600182018355919091527fa66cc928b5edb82af9bd49922954155ab7b0942694bea4ce44661d9a8736c6880155565b3b151590565b6000818152600260205260409020546001600160a01b0316156116f057600090815260026020526040902080546001600160a01b0319169055565b805461415090600163ffffffff61415d16565b9055565b80546001019055565b60006128e483836040518060400160405280601e81526020017f536166654d6174683a207375627472616374696f6e206f766572666c6f770000815250600081848411156142295760405162461bcd60e51b81526004018080602001828103825283818151815260200191508051906020019080838360005b838110156141ee5781810151838201526020016141d6565b50505050905090810190601f16801561421b5780820380516001836020036101000a031916815260200191505b509250505060405180910390fd5b505050900390565b6040518060e001604052806007906020820280388339509192915050565b828054600181600116156101000203166002900490600052602060002090601f016020900481019282601f1061429057805160ff19168380011785556142bd565b828001600101855582156142bd579182015b828111156142bd5782518255916020019190600101906142a2565b506142c992915061430b565b5090565b60405180606001604052806003906020820280388339509192915050565b8154818355818111156112af576000838152602090206112af9181019083015b61103391905b808211156142c9576000815560010161431156fe4f776e61626c653a206e6577206f776e657220697320746865207a65726f2061646472657373546f6f206d616e79207265717565737473206f72207a65726f20726571756573744b495031373a207472616e7366657220746f20746865207a65726f2061646472657373596f7520617265206e6f7420746865206f776e6572206f66207468696e20746f6b656e4b49503137456e756d657261626c653a206f776e657220696e646578206f7574206f6620626f756e64734b495031373a206f776e657220717565727920666f72206e6f6e6578697374656e7420746f6b656e536166654d6174683a206d756c7469706c69636174696f6e206f766572666c6f774b495031373a207472616e736665722063616c6c6572206973206e6f74206f776e6572206e6f7220617070726f7665644f776e61626c653a2063616c6c6572206973206e6f7420746865206f776e65724b495031373a207472616e7366657220746f206e6f6e204b49503137526563656976657220696d706c656d656e7465724b495031373a2062616c616e636520717565727920666f7220746865207a65726f20616464726573734b495031373a207472616e73666572206f6620746f6b656e2074686174206973206e6f74206f776e4b49503137456e756d657261626c653a20676c6f62616c20696e646578206f7574206f6620626f756e64735468652077686974656c6973742073616c65206973206e6f7420656e61626c6564214b495031373a20617070726f76656420717565727920666f72206e6f6e6578697374656e7420746f6b656e4b495031373a20617070726f76652063616c6c6572206973206e6f74206f776e6572206e6f7220617070726f76656420666f7220616c6c4b495031373a206f70657261746f7220717565727920666f72206e6f6e6578697374656e7420746f6b656ea265627a7a723158202a18f69c04a8a79cc5c8bd87b93a31b1f1d0be8f7137f236288c5984142f8a0e64736f6c63430005110032",
  "source": "pragma solidity ^0.5.0;\r\n\r\nimport \"./KIP17.sol\";\r\nimport \"./KIP17Enumerable.sol\";\r\nimport \"./KIP17Metadata.sol\";\r\nimport \"./Decent.sol\";\r\n\r\n/**\r\n * @title Full KIP-17 Token\r\n * This implementation includes all the required and some optional functionality of the KIP-17 standard\r\n * Moreover, it includes approve all functionality using operator terminology\r\n * @dev see http://kips.klaytn.com/KIPs/kip-17-non_fungible_token\r\n */\r\ncontract DecentToken is KIP17, KIP17Enumerable, KIP17Metadata, Decent {\r\n    constructor (string memory name, string memory symbol, address proxyAddress, address rewardAddress) public KIP17Metadata(name, symbol) Decent(proxyAddress,rewardAddress) {\r\n        // solhint-disable-previous-line no-empty-blocks\r\n    }\r\n}",
  "sourcePath": "C:\\Decent\\Decent-Contract\\contracts\\DecentToken.sol",
  "compiler": {
    "name": "solc",
    "version": "0.5.17+commit.d19bba13.Emscripten.clang"
  },
  "schemaVersion": "3.4.6",
  "updatedAt": "2022-07-27T10:33:35.666Z",
  "networkType": "ethereum",
  "devdoc": {
    "details": "see http://kips.klaytn.com/KIPs/kip-17-non_fungible_token",
    "methods": {
      "approve(address,uint256)": {
        "details": "Approves another address to transfer the given token ID The zero address indicates there is no approved address. There can only be one approved address per token at a given time. Can only be called by the token owner or an approved operator.",
        "params": {
          "to": "address to be approved for the given token ID",
          "tokenId": "uint256 ID of the token to be approved"
        }
      },
      "balanceOf(address)": {
        "details": "Gets the balance of the specified address.",
        "params": {
          "owner": "address to query the balance of"
        },
        "return": "uint256 representing the amount owned by the passed address"
      },
      "getApproved(uint256)": {
        "details": "Gets the approved address for a token ID, or zero if no address set Reverts if the token ID does not exist.",
        "params": {
          "tokenId": "uint256 ID of the token to query the approval of"
        },
        "return": "address currently approved for the given token ID"
      },
      "isApprovedForAll(address,address)": {
        "details": "Tells whether an operator is approved by a given owner.",
        "params": {
          "operator": "operator address which you want to query the approval of",
          "owner": "owner address which you want to query the approval of"
        },
        "return": "bool whether the given operator is approved by the given owner"
      },
      "isOwner()": {
        "details": "Returns true if the caller is the current owner."
      },
      "name()": {
        "details": "Gets the token name.",
        "return": "string representing the token name"
      },
      "owner()": {
        "details": "Returns the address of the current owner."
      },
      "ownerOf(uint256)": {
        "details": "Gets the owner of the specified token ID.",
        "params": {
          "tokenId": "uint256 ID of the token to query the owner of"
        },
        "return": "address currently marked as the owner of the given token ID"
      },
      "renounceOwnership()": {
        "details": "Leaves the contract without owner. It will not be possible to call `onlyOwner` functions anymore. Can only be called by the current owner.      * > Note: Renouncing ownership will leave the contract without an owner, thereby removing any functionality that is only available to the owner."
      },
      "safeTransferFrom(address,address,uint256)": {
        "details": "Safely transfers the ownership of a given token ID to another address If the target address is a contract, it must implement `onKIP17Received`, which is called upon a safe transfer, and return the magic value `bytes4(keccak256(\"onKIP17Received(address,address,uint256,bytes)\"))`; otherwise, the transfer is reverted. Requires the msg.sender to be the owner, approved, or operator",
        "params": {
          "from": "current owner of the token",
          "to": "address to receive the ownership of the given token ID",
          "tokenId": "uint256 ID of the token to be transferred"
        }
      },
      "safeTransferFrom(address,address,uint256,bytes)": {
        "details": "Safely transfers the ownership of a given token ID to another address If the target address is a contract, it must implement `onKIP17Received`, which is called upon a safe transfer, and return the magic value `bytes4(keccak256(\"onKIP17Received(address,address,uint256,bytes)\"))`; otherwise, the transfer is reverted. Requires the msg.sender to be the owner, approved, or operator",
        "params": {
          "_data": "bytes data to send along with a safe transfer check",
          "from": "current owner of the token",
          "to": "address to receive the ownership of the given token ID",
          "tokenId": "uint256 ID of the token to be transferred"
        }
      },
      "setApprovalForAll(address,bool)": {
        "details": "Sets or unsets the approval of a given operator An operator is allowed to transfer all tokens of the sender on their behalf.",
        "params": {
          "approved": "representing the status of the approval to be set",
          "to": "operator address to set the approval"
        }
      },
      "supportsInterface(bytes4)": {
        "details": "See `IKIP13.supportsInterface`.      * Time complexity O(1), guaranteed to always use less than 30 000 gas."
      },
      "symbol()": {
        "details": "Gets the token symbol.",
        "return": "string representing the token symbol"
      },
      "tokenByIndex(uint256)": {
        "details": "Gets the token ID at a given index of all the tokens in this contract Reverts if the index is greater or equal to the total number of tokens.",
        "params": {
          "index": "uint256 representing the index to be accessed of the tokens list"
        },
        "return": "uint256 token ID at the given index of the tokens list"
      },
      "tokenOfOwnerByIndex(address,uint256)": {
        "details": "Gets the token ID at a given index of the tokens list of the requested owner.",
        "params": {
          "index": "uint256 representing the index to be accessed of the requested tokens list",
          "owner": "address owning the tokens list to be accessed"
        },
        "return": "uint256 token ID at the given index of the tokens list owned by the requested address"
      },
      "totalSupply()": {
        "details": "Gets the total amount of tokens stored by the contract.",
        "return": "uint256 representing the total amount of tokens"
      },
      "transferFrom(address,address,uint256)": {
        "details": "Transfers the ownership of a given token ID to another address. Usage of this method is discouraged, use `safeTransferFrom` whenever possible. Requires the msg.sender to be the owner, approved, or operator.",
        "params": {
          "from": "current owner of the token",
          "to": "address to receive the ownership of the given token ID",
          "tokenId": "uint256 ID of the token to be transferred"
        }
      },
      "transferOwnership(address)": {
        "details": "Transfers ownership of the contract to a new account (`newOwner`). Can only be called by the current owner."
      }
    },
    "title": "Full KIP-17 Token This implementation includes all the required and some optional functionality of the KIP-17 standard Moreover, it includes approve all functionality using operator terminology"
  },
  "userdoc": {
    "methods": {}
  }
}