{
  "contractName": "DecentToken",
  "abi": [
    {
      "inputs": [
        {
          "internalType": "string",
          "name": "name",
          "type": "string"
        },
        {
          "internalType": "string",
          "name": "symbol",
          "type": "string"
        },
        {
          "internalType": "address",
          "name": "proxyAddress",
          "type": "address"
        },
        {
          "internalType": "address",
          "name": "rewardAddress",
          "type": "address"
        }
      ],
      "payable": false,
      "stateMutability": "nonpayable",
      "type": "constructor"
    },
    {
      "anonymous": false,
      "inputs": [
        {
          "indexed": true,
          "internalType": "address",
          "name": "owner",
          "type": "address"
        },
        {
          "indexed": true,
          "internalType": "address",
          "name": "approved",
          "type": "address"
        },
        {
          "indexed": true,
          "internalType": "uint256",
          "name": "tokenId",
          "type": "uint256"
        }
      ],
      "name": "Approval",
      "type": "event"
    },
    {
      "anonymous": false,
      "inputs": [
        {
          "indexed": true,
          "internalType": "address",
          "name": "owner",
          "type": "address"
        },
        {
          "indexed": true,
          "internalType": "address",
          "name": "operator",
          "type": "address"
        },
        {
          "indexed": false,
          "internalType": "bool",
          "name": "approved",
          "type": "bool"
        }
      ],
      "name": "ApprovalForAll",
      "type": "event"
    },
    {
      "anonymous": false,
      "inputs": [
        {
          "indexed": true,
          "internalType": "address",
          "name": "previousOwner",
          "type": "address"
        },
        {
          "indexed": true,
          "internalType": "address",
          "name": "newOwner",
          "type": "address"
        }
      ],
      "name": "OwnershipTransferred",
      "type": "event"
    },
    {
      "anonymous": false,
      "inputs": [
        {
          "indexed": true,
          "internalType": "address",
          "name": "from",
          "type": "address"
        },
        {
          "indexed": true,
          "internalType": "address",
          "name": "to",
          "type": "address"
        },
        {
          "indexed": true,
          "internalType": "uint256",
          "name": "tokenId",
          "type": "uint256"
        }
      ],
      "name": "Transfer",
      "type": "event"
    },
    {
      "constant": false,
      "inputs": [
        {
          "internalType": "uint256",
          "name": "_tokenId",
          "type": "uint256"
        }
      ],
      "name": "AwakenInvestor",
      "outputs": [],
      "payable": false,
      "stateMutability": "nonpayable",
      "type": "function"
    },
    {
      "constant": true,
      "inputs": [
        {
          "internalType": "uint256",
          "name": "_tokenId",
          "type": "uint256"
        }
      ],
      "name": "InvestorInfo",
      "outputs": [
        {
          "internalType": "string",
          "name": "_Job",
          "type": "string"
        },
        {
          "internalType": "string",
          "name": "_Personality",
          "type": "string"
        },
        {
          "internalType": "string",
          "name": "_Passive1Name",
          "type": "string"
        },
        {
          "internalType": "string",
          "name": "_Passive2Name",
          "type": "string"
        },
        {
          "internalType": "string",
          "name": "_Passive3Name",
          "type": "string"
        },
        {
          "internalType": "string",
          "name": "_AwakeningName",
          "type": "string"
        },
        {
          "internalType": "uint256[3]",
          "name": "_PassiveValues",
          "type": "uint256[3]"
        }
      ],
      "payable": false,
      "stateMutability": "view",
      "type": "function"
    },
    {
      "constant": false,
      "inputs": [
        {
          "internalType": "uint256",
          "name": "_tokenId",
          "type": "uint256"
        },
        {
          "internalType": "uint256",
          "name": "_stage",
          "type": "uint256"
        }
      ],
      "name": "_rewardToken",
      "outputs": [],
      "payable": false,
      "stateMutability": "nonpayable",
      "type": "function"
    },
    {
      "constant": false,
      "inputs": [
        {
          "internalType": "address",
          "name": "_whitelistAddress",
          "type": "address"
        }
      ],
      "name": "addWhitelist",
      "outputs": [],
      "payable": false,
      "stateMutability": "nonpayable",
      "type": "function"
    },
    {
      "constant": false,
      "inputs": [
        {
          "internalType": "address",
          "name": "user",
          "type": "address"
        },
        {
          "internalType": "uint256",
          "name": "requestedCount",
          "type": "uint256"
        }
      ],
      "name": "airDropMint",
      "outputs": [],
      "payable": false,
      "stateMutability": "nonpayable",
      "type": "function"
    },
    {
      "constant": false,
      "inputs": [
        {
          "internalType": "address",
          "name": "to",
          "type": "address"
        },
        {
          "internalType": "uint256",
          "name": "tokenId",
          "type": "uint256"
        }
      ],
      "name": "approve",
      "outputs": [],
      "payable": false,
      "stateMutability": "nonpayable",
      "type": "function"
    },
    {
      "constant": true,
      "inputs": [
        {
          "internalType": "address",
          "name": "owner",
          "type": "address"
        }
      ],
      "name": "balanceOf",
      "outputs": [
        {
          "internalType": "uint256",
          "name": "",
          "type": "uint256"
        }
      ],
      "payable": false,
      "stateMutability": "view",
      "type": "function"
    },
    {
      "constant": false,
      "inputs": [
        {
          "internalType": "uint256",
          "name": "_tokenId",
          "type": "uint256"
        }
      ],
      "name": "endBattle",
      "outputs": [],
      "payable": false,
      "stateMutability": "nonpayable",
      "type": "function"
    },
    {
      "constant": true,
      "inputs": [
        {
          "internalType": "uint256",
          "name": "tokenId",
          "type": "uint256"
        }
      ],
      "name": "getApproved",
      "outputs": [
        {
          "internalType": "address",
          "name": "",
          "type": "address"
        }
      ],
      "payable": false,
      "stateMutability": "view",
      "type": "function"
    },
    {
      "constant": true,
      "inputs": [],
      "name": "getProxyAddress",
      "outputs": [
        {
          "internalType": "address",
          "name": "",
          "type": "address"
        }
      ],
      "payable": false,
      "stateMutability": "view",
      "type": "function"
    },
    {
      "constant": true,
      "inputs": [],
      "name": "getRewardAddress",
      "outputs": [
        {
          "internalType": "address",
          "name": "",
          "type": "address"
        }
      ],
      "payable": false,
      "stateMutability": "view",
      "type": "function"
    },
    {
      "constant": true,
      "inputs": [
        {
          "internalType": "address",
          "name": "owner",
          "type": "address"
        },
        {
          "internalType": "address",
          "name": "operator",
          "type": "address"
        }
      ],
      "name": "isApprovedForAll",
      "outputs": [
        {
          "internalType": "bool",
          "name": "",
          "type": "bool"
        }
      ],
      "payable": false,
      "stateMutability": "view",
      "type": "function"
    },
    {
      "constant": true,
      "inputs": [
        {
          "internalType": "uint256",
          "name": "_tokenId",
          "type": "uint256"
        }
      ],
      "name": "isOnBattle",
      "outputs": [
        {
          "internalType": "bool",
          "name": "",
          "type": "bool"
        }
      ],
      "payable": false,
      "stateMutability": "view",
      "type": "function"
    },
    {
      "constant": true,
      "inputs": [],
      "name": "isOwner",
      "outputs": [
        {
          "internalType": "bool",
          "name": "",
          "type": "bool"
        }
      ],
      "payable": false,
      "stateMutability": "view",
      "type": "function"
    },
    {
      "constant": true,
      "inputs": [],
      "name": "mintingInformation",
      "outputs": [
        {
          "internalType": "uint256[6]",
          "name": "",
          "type": "uint256[6]"
        }
      ],
      "payable": false,
      "stateMutability": "view",
      "type": "function"
    },
    {
      "constant": true,
      "inputs": [],
      "name": "name",
      "outputs": [
        {
          "internalType": "string",
          "name": "",
          "type": "string"
        }
      ],
      "payable": false,
      "stateMutability": "view",
      "type": "function"
    },
    {
      "constant": true,
      "inputs": [],
      "name": "owner",
      "outputs": [
        {
          "internalType": "address payable",
          "name": "",
          "type": "address"
        }
      ],
      "payable": false,
      "stateMutability": "view",
      "type": "function"
    },
    {
      "constant": true,
      "inputs": [
        {
          "internalType": "uint256",
          "name": "tokenId",
          "type": "uint256"
        }
      ],
      "name": "ownerOf",
      "outputs": [
        {
          "internalType": "address",
          "name": "",
          "type": "address"
        }
      ],
      "payable": false,
      "stateMutability": "view",
      "type": "function"
    },
    {
      "constant": false,
      "inputs": [
        {
          "internalType": "uint256",
          "name": "requestedCount",
          "type": "uint256"
        }
      ],
      "name": "publicMint",
      "outputs": [],
      "payable": true,
      "stateMutability": "payable",
      "type": "function"
    },
    {
      "constant": false,
      "inputs": [
        {
          "internalType": "address",
          "name": "_whitelistAddress",
          "type": "address"
        }
      ],
      "name": "removeWhitelist",
      "outputs": [],
      "payable": false,
      "stateMutability": "nonpayable",
      "type": "function"
    },
    {
      "constant": false,
      "inputs": [],
      "name": "renounceOwnership",
      "outputs": [],
      "payable": false,
      "stateMutability": "nonpayable",
      "type": "function"
    },
    {
      "constant": false,
      "inputs": [
        {
          "internalType": "address",
          "name": "from",
          "type": "address"
        },
        {
          "internalType": "address",
          "name": "to",
          "type": "address"
        },
        {
          "internalType": "uint256",
          "name": "tokenId",
          "type": "uint256"
        }
      ],
      "name": "safeTransferFrom",
      "outputs": [],
      "payable": false,
      "stateMutability": "nonpayable",
      "type": "function"
    },
    {
      "constant": false,
      "inputs": [
        {
          "internalType": "address",
          "name": "from",
          "type": "address"
        },
        {
          "internalType": "address",
          "name": "to",
          "type": "address"
        },
        {
          "internalType": "uint256",
          "name": "tokenId",
          "type": "uint256"
        },
        {
          "internalType": "bytes",
          "name": "_data",
          "type": "bytes"
        }
      ],
      "name": "safeTransferFrom",
      "outputs": [],
      "payable": false,
      "stateMutability": "nonpayable",
      "type": "function"
    },
    {
      "constant": false,
      "inputs": [
        {
          "internalType": "address",
          "name": "to",
          "type": "address"
        },
        {
          "internalType": "bool",
          "name": "approved",
          "type": "bool"
        }
      ],
      "name": "setApprovalForAll",
      "outputs": [],
      "payable": false,
      "stateMutability": "nonpayable",
      "type": "function"
    },
    {
      "constant": false,
      "inputs": [
        {
          "internalType": "address",
          "name": "_newProxyAddress",
          "type": "address"
        }
      ],
      "name": "setProxyAddress",
      "outputs": [],
      "payable": false,
      "stateMutability": "nonpayable",
      "type": "function"
    },
    {
      "constant": false,
      "inputs": [
        {
          "internalType": "address",
          "name": "_newRewardAddress",
          "type": "address"
        }
      ],
      "name": "setRewardAddress",
      "outputs": [],
      "payable": false,
      "stateMutability": "nonpayable",
      "type": "function"
    },
    {
      "constant": false,
      "inputs": [
        {
          "internalType": "uint256",
          "name": "_tokenId",
          "type": "uint256"
        }
      ],
      "name": "startBattle",
      "outputs": [],
      "payable": false,
      "stateMutability": "nonpayable",
      "type": "function"
    },
    {
      "constant": true,
      "inputs": [
        {
          "internalType": "bytes4",
          "name": "interfaceId",
          "type": "bytes4"
        }
      ],
      "name": "supportsInterface",
      "outputs": [
        {
          "internalType": "bool",
          "name": "",
          "type": "bool"
        }
      ],
      "payable": false,
      "stateMutability": "view",
      "type": "function"
    },
    {
      "constant": true,
      "inputs": [],
      "name": "symbol",
      "outputs": [
        {
          "internalType": "string",
          "name": "",
          "type": "string"
        }
      ],
      "payable": false,
      "stateMutability": "view",
      "type": "function"
    },
    {
      "constant": false,
      "inputs": [],
      "name": "toggleActive",
      "outputs": [],
      "payable": false,
      "stateMutability": "nonpayable",
      "type": "function"
    },
    {
      "constant": false,
      "inputs": [],
      "name": "toggleWhitelistMintEnabled",
      "outputs": [],
      "payable": false,
      "stateMutability": "nonpayable",
      "type": "function"
    },
    {
      "constant": true,
      "inputs": [
        {
          "internalType": "uint256",
          "name": "index",
          "type": "uint256"
        }
      ],
      "name": "tokenByIndex",
      "outputs": [
        {
          "internalType": "uint256",
          "name": "",
          "type": "uint256"
        }
      ],
      "payable": false,
      "stateMutability": "view",
      "type": "function"
    },
    {
      "constant": true,
      "inputs": [
        {
          "internalType": "address",
          "name": "owner",
          "type": "address"
        },
        {
          "internalType": "uint256",
          "name": "index",
          "type": "uint256"
        }
      ],
      "name": "tokenOfOwnerByIndex",
      "outputs": [
        {
          "internalType": "uint256",
          "name": "",
          "type": "uint256"
        }
      ],
      "payable": false,
      "stateMutability": "view",
      "type": "function"
    },
    {
      "constant": true,
      "inputs": [
        {
          "internalType": "uint256",
          "name": "_tokenId",
          "type": "uint256"
        }
      ],
      "name": "tokenURI",
      "outputs": [
        {
          "internalType": "string",
          "name": "",
          "type": "string"
        }
      ],
      "payable": false,
      "stateMutability": "view",
      "type": "function"
    },
    {
      "constant": true,
      "inputs": [],
      "name": "totalSupply",
      "outputs": [
        {
          "internalType": "uint256",
          "name": "",
          "type": "uint256"
        }
      ],
      "payable": false,
      "stateMutability": "view",
      "type": "function"
    },
    {
      "constant": false,
      "inputs": [
        {
          "internalType": "address",
          "name": "from",
          "type": "address"
        },
        {
          "internalType": "address",
          "name": "to",
          "type": "address"
        },
        {
          "internalType": "uint256",
          "name": "tokenId",
          "type": "uint256"
        }
      ],
      "name": "transferFrom",
      "outputs": [],
      "payable": false,
      "stateMutability": "nonpayable",
      "type": "function"
    },
    {
      "constant": false,
      "inputs": [
        {
          "internalType": "address payable",
          "name": "newOwner",
          "type": "address"
        }
      ],
      "name": "transferOwnership",
      "outputs": [],
      "payable": false,
      "stateMutability": "nonpayable",
      "type": "function"
    },
    {
      "constant": false,
      "inputs": [
        {
          "internalType": "uint256",
          "name": "_interval",
          "type": "uint256"
        }
      ],
      "name": "updateAntibotInterval",
      "outputs": [],
      "payable": false,
      "stateMutability": "nonpayable",
      "type": "function"
    },
    {
      "constant": false,
      "inputs": [
        {
          "internalType": "uint256",
          "name": "_limit",
          "type": "uint256"
        }
      ],
      "name": "updateMintLimitPerBlock",
      "outputs": [],
      "payable": false,
      "stateMutability": "nonpayable",
      "type": "function"
    },
    {
      "constant": false,
      "inputs": [
        {
          "internalType": "uint256",
          "name": "_blockNumber",
          "type": "uint256"
        }
      ],
      "name": "updateMintStartBlockNumber",
      "outputs": [],
      "payable": false,
      "stateMutability": "nonpayable",
      "type": "function"
    },
    {
      "constant": false,
      "inputs": [
        {
          "internalType": "string",
          "name": "_projectBaseIpfsURI",
          "type": "string"
        }
      ],
      "name": "updateProjectBaseIpfsURI",
      "outputs": [],
      "payable": false,
      "stateMutability": "nonpayable",
      "type": "function"
    },
    {
      "constant": false,
      "inputs": [
        {
          "internalType": "uint256",
          "name": "_maxInvocations",
          "type": "uint256"
        }
      ],
      "name": "updateProjectMaxInvocations",
      "outputs": [],
      "payable": false,
      "stateMutability": "nonpayable",
      "type": "function"
    },
    {
      "constant": false,
      "inputs": [
        {
          "internalType": "uint256",
          "name": "_price",
          "type": "uint256"
        }
      ],
      "name": "updateProjectPricePerTokenInPeb",
      "outputs": [],
      "payable": false,
      "stateMutability": "nonpayable",
      "type": "function"
    },
    {
      "constant": true,
      "inputs": [
        {
          "internalType": "address",
          "name": "",
          "type": "address"
        }
      ],
      "name": "whitelistAddress",
      "outputs": [
        {
          "internalType": "bool",
          "name": "",
          "type": "bool"
        }
      ],
      "payable": false,
      "stateMutability": "view",
      "type": "function"
    },
    {
      "constant": false,
      "inputs": [
        {
          "internalType": "uint256",
          "name": "requestedCount",
          "type": "uint256"
        }
      ],
      "name": "whitelistMint",
      "outputs": [],
      "payable": true,
      "stateMutability": "payable",
      "type": "function"
    },
    {
      "constant": false,
      "inputs": [],
      "name": "withdraw",
      "outputs": [],
      "payable": false,
      "stateMutability": "nonpayable",
      "type": "function"
    }
  ],
  "bytecode": "0x6080604052615460600f55600160138190556019805460ff199081169092179055601c805490911690553480156200003657600080fd5b50604051620047fe380380620047fe833981810160405260808110156200005c57600080fd5b81019080805160405193929190846401000000008211156200007d57600080fd5b9083019060208201858111156200009357600080fd5b8251640100000000811182820188101715620000ae57600080fd5b82525081516020918201929091019080838360005b83811015620000dd578181015183820152602001620000c3565b50505050905090810190601f1680156200010b5780820380516001836020036101000a031916815260200191505b50604052602001805160405193929190846401000000008211156200012f57600080fd5b9083019060208201858111156200014557600080fd5b82516401000000008111828201881017156200016057600080fd5b82525081516020918201929091019080838360005b838110156200018f57818101518382015260200162000175565b50505050905090810190601f168015620001bd5780820380516001836020036101000a031916815260200191505b5060409081526020820151910151909250905081818585620001ef6301ffc9a760e01b6001600160e01b03620002f116565b6200020a6380ac58cd60e01b6001600160e01b03620002f116565b6200022563780e9d6360e01b6001600160e01b03620002f116565b81516200023a90600990602085019062000376565b5080516200025090600a90602084019062000376565b506200026c635b5e139f60e01b6001600160e01b03620002f116565b5050600b80546001600160a01b0319163317908190556040516001600160a01b0391909116906000907f8be0079c531659141344cd1fd0a4f28419497f9722a3daafe3b4186f6b6457e0908290a3600c80546001600160a01b039384166001600160a01b031991821617909155600d8054929093169116179055506200041b92505050565b6001600160e01b0319808216141562000351576040805162461bcd60e51b815260206004820152601b60248201527f4b495031333a20696e76616c696420696e746572666163652069640000000000604482015290519081900360640190fd5b6001600160e01b0319166000908152602081905260409020805460ff19166001179055565b828054600181600116156101000203166002900490600052602060002090601f016020900481019282601f10620003b957805160ff1916838001178555620003e9565b82800160010185558215620003e9579182015b82811115620003e9578251825591602001919060010190620003cc565b50620003f7929150620003fb565b5090565b6200041891905b80821115620003f7576000815560010162000402565b90565b6143d3806200042b6000396000f3fe60806040526004361061027d5760003560e01c8063715018a61161014f57806395d89b41116100c1578063c87b56dd1161007a578063c87b56dd14610ac8578063cb01cf0614610af2578063e540611a14610dbe578063e985e9c514610de8578063f2fde38b14610e23578063f80f5dd514610e565761027d565b806395d89b411461093e5780639744092814610953578063a22cb4651461097d578063b88d4fde146109b8578063bf9321fc14610a89578063c4e7051414610a9e5761027d565b8063868ff4a211610113578063868ff4a2146108795780638da5cb5b146108965780638e6807f8146108ab5780638eb9ef72146108d55780638f32d59b146108ff57806391bc6165146109145761027d565b8063715018a61461071d57806371b20a101461073257806375a1ed08146107e357806377eccb621461081c57806378c8cda7146108465761027d565b80633ccfd60b116101f357806349a44af1116101ac57806349a44af1146106095780634f6ccce71461063357806356f9686c1461065d5780635e00e6791461068d5780636352211e146106c057806370a08231146106ea5761027d565b80633ccfd60b1461050c57806341566585146105215780634157e6ef1461055457806342842e0e1461057e57806343a73d9a146105c157806346a7dadc146105d65761027d565b80631dd8792b116102455780631dd8792b146103fc57806323b872dd1461044957806329c68dc11461048c5780632db11544146104a15780632f745c59146104be57806332b95372146104f75761027d565b806301ffc9a71461028257806306fdde03146102ca578063081812fc14610354578063095ea7b31461039a57806318160ddd146103d5575b600080fd5b34801561028e57600080fd5b506102b6600480360360208110156102a557600080fd5b50356001600160e01b031916610e89565b604080519115158252519081900360200190f35b3480156102d657600080fd5b506102df610eac565b6040805160208082528351818301528351919283929083019185019080838360005b83811015610319578181015183820152602001610301565b50505050905090810190601f1680156103465780820380516001836020036101000a031916815260200191505b509250505060405180910390f35b34801561036057600080fd5b5061037e6004803603602081101561037757600080fd5b5035610f43565b604080516001600160a01b039092168252519081900360200190f35b3480156103a657600080fd5b506103d3600480360360408110156103bd57600080fd5b506001600160a01b038135169060200135610fa5565b005b3480156103e157600080fd5b506103ea6110cc565b60408051918252519081900360200190f35b34801561040857600080fd5b506104116110d2565b604051808260c080838360005b8381101561043657818101518382015260200161041e565b5050505090500191505060405180910390f35b34801561045557600080fd5b506103d36004803603606081101561046c57600080fd5b506001600160a01b03813581169160208101359091169060400135611118565b34801561049857600080fd5b506103d361116d565b6103d3600480360360208110156104b757600080fd5b50356111c8565b3480156104ca57600080fd5b506103ea600480360360408110156104e157600080fd5b506001600160a01b038135169060200135611432565b34801561050357600080fd5b506103d36114b2565b34801561051857600080fd5b506103d361150d565b34801561052d57600080fd5b506102b66004803603602081101561054457600080fd5b50356001600160a01b03166115ac565b34801561056057600080fd5b506103d36004803603602081101561057757600080fd5b50356115c1565b34801561058a57600080fd5b506103d3600480360360608110156105a157600080fd5b506001600160a01b038135811691602081013590911690604001356116ed565b3480156105cd57600080fd5b5061037e611708565b3480156105e257600080fd5b506103d3600480360360208110156105f957600080fd5b50356001600160a01b0316611717565b34801561061557600080fd5b506102b66004803603602081101561062c57600080fd5b5035611780565b34801561063f57600080fd5b506103ea6004803603602081101561065657600080fd5b503561179a565b34801561066957600080fd5b506103d36004803603604081101561068057600080fd5b5080359060200135611800565b34801561069957600080fd5b506103d3600480360360208110156106b057600080fd5b50356001600160a01b031661193a565b3480156106cc57600080fd5b5061037e600480360360208110156106e357600080fd5b50356119a3565b3480156106f657600080fd5b506103ea6004803603602081101561070d57600080fd5b50356001600160a01b03166119f7565b34801561072957600080fd5b506103d3611a5f565b34801561073e57600080fd5b506103d36004803603602081101561075557600080fd5b810190602081018135600160201b81111561076f57600080fd5b82018360208201111561078157600080fd5b803590602001918460018302840111600160201b831117156107a257600080fd5b91908080601f016020809104026020016040519081016040528093929190818152602001838380828437600092019190915250929550611af0945050505050565b3480156107ef57600080fd5b506103d36004803603604081101561080657600080fd5b506001600160a01b038135169060200135611b4a565b34801561082857600080fd5b506103d36004803603602081101561083f57600080fd5b5035611c16565b34801561085257600080fd5b506103d36004803603602081101561086957600080fd5b50356001600160a01b0316611c62565b6103d36004803603602081101561088f57600080fd5b5035611cca565b3480156108a257600080fd5b5061037e611ed8565b3480156108b757600080fd5b506103d3600480360360208110156108ce57600080fd5b5035611ee7565b3480156108e157600080fd5b506103d3600480360360208110156108f857600080fd5b503561211d565b34801561090b57600080fd5b506102b6612169565b34801561092057600080fd5b506103d36004803603602081101561093757600080fd5b503561217a565b34801561094a57600080fd5b506102df61248a565b34801561095f57600080fd5b506103d36004803603602081101561097657600080fd5b50356124eb565b34801561098957600080fd5b506103d3600480360360408110156109a057600080fd5b506001600160a01b0381351690602001351515612537565b3480156109c457600080fd5b506103d3600480360360808110156109db57600080fd5b6001600160a01b03823581169260208101359091169160408201359190810190608081016060820135600160201b811115610a1557600080fd5b820183602082011115610a2757600080fd5b803590602001918460018302840111600160201b83111715610a4857600080fd5b91908080601f016020809104026020016040519081016040528093929190818152602001838380828437600092019190915250929550612603945050505050565b348015610a9557600080fd5b5061037e612655565b348015610aaa57600080fd5b506103d360048036036020811015610ac157600080fd5b5035612664565b348015610ad457600080fd5b506102df60048036036020811015610aeb57600080fd5b50356126b0565b348015610afe57600080fd5b50610b1c60048036036020811015610b1557600080fd5b5035612818565b6040518080602001806020018060200180602001806020018060200188600360200280838360005b83811015610b5c578181015183820152602001610b44565b5050505090500187810387528e818151815260200191508051906020019080838360005b83811015610b98578181015183820152602001610b80565b50505050905090810190601f168015610bc55780820380516001836020036101000a031916815260200191505b5087810386528d5181528d516020918201918f019080838360005b83811015610bf8578181015183820152602001610be0565b50505050905090810190601f168015610c255780820380516001836020036101000a031916815260200191505b5087810385528c5181528c516020918201918e019080838360005b83811015610c58578181015183820152602001610c40565b50505050905090810190601f168015610c855780820380516001836020036101000a031916815260200191505b5087810384528b5181528b516020918201918d019080838360005b83811015610cb8578181015183820152602001610ca0565b50505050905090810190601f168015610ce55780820380516001836020036101000a031916815260200191505b5087810383528a5181528a516020918201918c019080838360005b83811015610d18578181015183820152602001610d00565b50505050905090810190601f168015610d455780820380516001836020036101000a031916815260200191505b5087810382528951815289516020918201918b019080838360005b83811015610d78578181015183820152602001610d60565b50505050905090810190601f168015610da55780820380516001836020036101000a031916815260200191505b509d505050505050505050505050505060405180910390f35b348015610dca57600080fd5b506103d360048036036020811015610de157600080fd5b5035612cad565b348015610df457600080fd5b506102b660048036036040811015610e0b57600080fd5b506001600160a01b0381358116916020013516612cf9565b348015610e2f57600080fd5b506103d360048036036020811015610e4657600080fd5b50356001600160a01b0316612d27565b348015610e6257600080fd5b506103d360048036036020811015610e7957600080fd5b50356001600160a01b0316612d77565b6001600160e01b0319811660009081526020819052604090205460ff165b919050565b60098054604080516020601f6002600019610100600188161502019095169490940493840181900481028201810190925282815260609390929091830182828015610f385780601f10610f0d57610100808354040283529160200191610f38565b820191906000526020600020905b815481529060010190602001808311610f1b57829003601f168201915b505050505090505b90565b6000610f4e82612de2565b610f895760405162461bcd60e51b815260040180806020018281038252602b815260200180614312602b913960400191505060405180910390fd5b506000908152600260205260409020546001600160a01b031690565b6000610fb0826119a3565b9050806001600160a01b0316836001600160a01b03161415611019576040805162461bcd60e51b815260206004820181905260248201527f4b495031373a20617070726f76616c20746f2063757272656e74206f776e6572604482015290519081900360640190fd5b336001600160a01b038216148061103557506110358133612cf9565b6110705760405162461bcd60e51b815260040180806020018281038252603781526020018061433d6037913960400191505060405180910390fd5b60008281526002602052604080822080546001600160a01b0319166001600160a01b0387811691821790925591518593918516917f8c5be1e5ebec7d5bd14f71427d1e84f3dd0314c0f7b2291e5b200ac8c7c3b92591a4505050565b60075490565b6110da613fff565b6040518060c0016040528060125481526020016016548152602001601754815260200160155481526020016013548152602001601854815250905090565b6111223382612dff565b61115d5760405162461bcd60e51b81526004018080602001828103825260308152602001806141f46030913960400191505060405180910390fd5b611168838383612ea3565b505050565b611175612169565b6111b4576040805162461bcd60e51b81526020600482018190526024820152600080516020614224833981519152604482015290519081900360640190fd5b6019805460ff19811660ff90911615179055565b60195460ff1661121f576040805162461bcd60e51b815260206004820152601f60248201527f546865207075626c69632073616c65206973206e6f7420656e61626c65642100604482015290519081900360640190fd5b601254336000908152601160205260409020544391611244919063ffffffff612ec216565b1061128b576040805162461bcd60e51b8152602060048201526012602482015271109bdd081a5cc81b9bdd08185b1b1bddd95960721b604482015290519081900360640190fd5b6017544310156112d4576040805162461bcd60e51b815260206004820152600f60248201526e139bdd081e595d081cdd185c9d1959608a1b604482015290519081900360640190fd5b6000811180156112e657506016548111155b6113215760405162461bcd60e51b815260040180806020018281038252602181526020018061411a6021913960400191505060405180910390fd5b601554611334908263ffffffff612f1c16565b3414611379576040805162461bcd60e51b815260206004820152600f60248201526e4e6f7420656e6f756768204b6c617960881b604482015290519081900360640190fd5b60185460010161139482601354612ec290919063ffffffff16565b11156113db576040805162461bcd60e51b8152602060048201526011602482015270115e18d95959081b585e08185b5bdd5b9d607a1b604482015290519081900360640190fd5b60005b8181101561141c576113f233601354612f75565b6113fd601354612f92565b60135461141190600163ffffffff612ec216565b6013556001016113de565b5050336000908152601160205260409020439055565b600061143d836119f7565b821061147a5760405162461bcd60e51b815260040180806020018281038252602a815260200180614181602a913960400191505060405180910390fd5b6001600160a01b038316600090815260056020526040902080548390811061149e57fe5b906000526020600020015490505b92915050565b6114ba612169565b6114f9576040805162461bcd60e51b81526020600482018190526024820152600080516020614224833981519152604482015290519081900360640190fd5b601c805460ff19811660ff90911615179055565b611515612169565b611554576040805162461bcd60e51b81526020600482018190526024820152600080516020614224833981519152604482015290519081900360640190fd5b604051600090339047908381818185875af1925050503d8060008114611596576040519150601f19603f3d011682016040523d82523d6000602084013e61159b565b606091505b50509050806115a957600080fd5b50565b601b6020526000908152604090205460ff1681565b80336115cc826119a3565b6001600160a01b0316146116115760405162461bcd60e51b815260040180806020018281038252602381526020018061415e6023913960400191505060405180910390fd5b60008281526010602052604090206002015460ff16611667576040805162461bcd60e51b815260206004820152600d60248201526c6e6f74206f6e20626174746c6560981b604482015290519081900360640190fd5b600f546000838152601060205260409020544303116116c0576040805162461bcd60e51b815260206004820152601060248201526f18985d1d1b19481b9bdd08195b99195960821b604482015290519081900360640190fd5b600082815260106020526040902060028101805460ff19169055600101546116e9908390611800565b5050565b61116883838360405180602001604052806000815250612603565b600c546001600160a01b031690565b61171f612169565b61175e576040805162461bcd60e51b81526020600482018190526024820152600080516020614224833981519152604482015290519081900360640190fd5b600c80546001600160a01b0319166001600160a01b0392909216919091179055565b600f54600091825260106020526040909120544391011190565b60006117a46110cc565b82106117e15760405162461bcd60e51b815260040180806020018281038252602b8152602001806142c5602b913960400191505060405180910390fd5b600782815481106117ee57fe5b90600052602060002001549050919050565b6040805160248101849052604480820184905282518083039091018152606490910182526020810180516001600160e01b0316630911270d60e21b178152600d549251825192936000936001600160a01b03909116928592918291908083835b6020831061187f5780518252601f199092019160209182019101611860565b6001836020036101000a0380198251168184511680821785525050505050509050019150506000604051808303816000865af19150503d80600081146118e1576040519150601f19603f3d011682016040523d82523d6000602084013e6118e6565b606091505b5050905080611934576040805162461bcd60e51b81526020600482015260156024820152747265776172646564207375636365737366756c6c7960581b604482015290519081900360640190fd5b50505050565b611942612169565b611981576040805162461bcd60e51b81526020600482018190526024820152600080516020614224833981519152604482015290519081900360640190fd5b600d80546001600160a01b0319166001600160a01b0392909216919091179055565b6000818152600160205260408120546001600160a01b0316806114ac5760405162461bcd60e51b81526004018080602001828103825260288152602001806141ab6028913960400191505060405180910390fd5b60006001600160a01b038216611a3e5760405162461bcd60e51b81526004018080602001828103825260298152602001806142746029913960400191505060405180910390fd5b6001600160a01b03821660009081526003602052604090206114ac9061359b565b611a67612169565b611aa6576040805162461bcd60e51b81526020600482018190526024820152600080516020614224833981519152604482015290519081900360640190fd5b600b546040516000916001600160a01b0316907f8be0079c531659141344cd1fd0a4f28419497f9722a3daafe3b4186f6b6457e0908390a3600b80546001600160a01b0319169055565b611af8612169565b611b37576040805162461bcd60e51b81526020600482018190526024820152600080516020614224833981519152604482015290519081900360640190fd5b80516116e990601490602084019061401d565b611b52612169565b611b91576040805162461bcd60e51b81526020600482018190526024820152600080516020614224833981519152604482015290519081900360640190fd5b60008111611bd5576040805162461bcd60e51b815260206004820152600c60248201526b1e995c9bc81c995c5d595cdd60a21b604482015290519081900360640190fd5b60005b8181101561116857611bec83601354612f75565b611bf7601354612f92565b601354611c0b90600163ffffffff612ec216565b601355600101611bd8565b611c1e612169565b611c5d576040805162461bcd60e51b81526020600482018190526024820152600080516020614224833981519152604482015290519081900360640190fd5b601555565b611c6a612169565b611ca9576040805162461bcd60e51b81526020600482018190526024820152600080516020614224833981519152604482015290519081900360640190fd5b6001600160a01b03166000908152601b60205260409020805460ff19169055565b601c5460ff16611d0b5760405162461bcd60e51b81526004018080602001828103825260228152602001806142f06022913960400191505060405180910390fd5b601554611d1e908263ffffffff612f1c16565b3414611d63576040805162461bcd60e51b815260206004820152600f60248201526e4e6f7420656e6f756768204b6c617960881b604482015290519081900360640190fd5b336000908152601a602052604090205460ff1615611dc8576040805162461bcd60e51b815260206004820152601860248201527f4164647265737320616c726561647920636c61696d6564210000000000000000604482015290519081900360640190fd5b336000908152601b602052604090205460ff16611e2c576040805162461bcd60e51b815260206004820152601a60248201527f73656e646572206973206e6f74206f6e2057686974656c697374000000000000604482015290519081900360640190fd5b600081118015611e3e57506016548111155b611e795760405162461bcd60e51b815260040180806020018281038252602181526020018061411a6021913960400191505060405180910390fd5b60005b81811015611eba57611e9033601354612f75565b611e9b601354612f92565b601354611eaf90600163ffffffff612ec216565b601355600101611e7c565b5050336000908152601a60205260409020805460ff19166001179055565b600b546001600160a01b031690565b8033611ef2826119a3565b6001600160a01b031614611f375760405162461bcd60e51b815260040180806020018281038252602381526020018061415e6023913960400191505060405180910390fd5b60008281526010602052604090206002015460ff1615611f9e576040805162461bcd60e51b815260206004820152601a60248201527f696e766573746f7220616c7265616479206f6e20626174746c65000000000000604482015290519081900360640190fd5b600082815260106020908152604080832043905580516024808201879052825180830390910181526044909101825291820180516001600160e01b0316630171928160e51b178152600c54915183519394936060936001600160a01b0316928692918291908083835b602083106120265780518252601f199092019160209182019101612007565b6001836020036101000a0380198251168184511680821785525050505050509050019150506000604051808303816000865af19150503d8060008114612088576040519150601f19603f3d011682016040523d82523d6000602084013e61208d565b606091505b5091509150816120d6576040805162461bcd60e51b815260206004820152600f60248201526e19d95d14dd1859d94819985a5b1959608a1b604482015290519081900360640190fd5b60008180602001905160208110156120ed57600080fd5b5051600096875260106020526040909620600180820197909755600201805460ff19169096179095555050505050565b612125612169565b612164576040805162461bcd60e51b81526020600482018190526024820152600080516020614224833981519152604482015290519081900360640190fd5b601255565b600b546001600160a01b0316331490565b8033612185826119a3565b6001600160a01b0316146121ca5760405162461bcd60e51b815260040180806020018281038252602381526020018061415e6023913960400191505060405180910390fd5b6000828152600e6020526040902060050154602d118015906121fe57506000828152600e6020526040902060060154602d11155b801561221c57506000828152600e6020526040902060070154602d11155b61226d576040805162461bcd60e51b815260206004820152601a60248201527f6e6f7420656e6f7567682073746174757320746f206177616b65000000000000604482015290519081900360640190fd5b60408051600481526024810182526020810180516001600160e01b0316631597a25960e11b178152600c549251825192936000936060936001600160a01b0390921692869290918291908083835b602083106122da5780518252601f1990920191602091820191016122bb565b6001836020036101000a0380198251168184511680821785525050505050509050019150506000604051808303816000865af19150503d806000811461233c576040519150601f19603f3d011682016040523d82523d6000602084013e612341565b606091505b5091509150606081806020019051602081101561235d57600080fd5b8101908080516040519392919084600160201b82111561237c57600080fd5b90830190602082018581111561239157600080fd5b8251600160201b8111828201881017156123aa57600080fd5b82525081516020918201929091019080838360005b838110156123d75781810151838201526020016123bf565b50505050905090810190601f1680156124045780820380516001836020036101000a031916815260200191505b50604052505050905080600e6000888152602001908152602001600020600801908051906020019061243792919061401d565b5082612482576040805162461bcd60e51b8152602060048201526015602482015274105dd85ad95b925b9d995cdd1bdc8819985a5b1959605a1b604482015290519081900360640190fd5b505050505050565b600a8054604080516020601f6002600019610100600188161502019095169490940493840181900481028201810190925282815260609390929091830182828015610f385780601f10610f0d57610100808354040283529160200191610f38565b6124f3612169565b612532576040805162461bcd60e51b81526020600482018190526024820152600080516020614224833981519152604482015290519081900360640190fd5b601655565b6001600160a01b038216331415612595576040805162461bcd60e51b815260206004820152601860248201527f4b495031373a20617070726f766520746f2063616c6c65720000000000000000604482015290519081900360640190fd5b3360008181526004602090815260408083206001600160a01b03871680855290835292819020805460ff1916861515908117909155815190815290519293927f17307eab39ab6107e8899845ad3d59bd9653f200f220920489ca2b5937696c31929181900390910190a35050565b61260e848484611118565b61261a8484848461359f565b6119345760405162461bcd60e51b81526004018080602001828103825260308152602001806142446030913960400191505060405180910390fd5b600d546001600160a01b031690565b61266c612169565b6126ab576040805162461bcd60e51b81526020600482018190526024820152600080516020614224833981519152604482015290519081900360640190fd5b601755565b6060816126bc81612de2565b612707576040805162461bcd60e51b8152602060048201526017602482015276151bdad95b88125108191bd95cc81b9bdd08195e1a5cdd604a1b604482015290519081900360640190fd5b601454600260001961010060018416150201909116046127365760405180602001604052806000815250612811565b60146127418461397c565b604051602001808380546001816001161561010002031660029004801561279f5780601f1061277d57610100808354040283529182019161279f565b820191906000526020600020905b81548152906001019060200180831161278b575b5050825160208401908083835b602083106127cb5780518252601f1990920191602091820191016127ac565b6001836020036101000a0380198251168184511680821785525050505050509050018064173539b7b760d91b815250600501925050506040516020818303038152906040525b9392505050565b60608060608060608061282961409b565b8761283381612de2565b61287e576040805162461bcd60e51b8152602060048201526017602482015276151bdad95b88125108191bd95cc81b9bdd08195e1a5cdd604a1b604482015290519081900360640190fd5b6000898152600e602090815260409182902080548351601f6002600019610100600186161502019093169290920491820184900484028101840190945280845290918301828280156129115780601f106128e657610100808354040283529160200191612911565b820191906000526020600020905b8154815290600101906020018083116128f457829003601f168201915b50505050509750600e60008a81526020019081526020016000206001018054600181600116156101000203166002900480601f0160208091040260200160405190810160405280929190818152602001828054600181600116156101000203166002900480156129c25780601f10612997576101008083540402835291602001916129c2565b820191906000526020600020905b8154815290600101906020018083116129a557829003601f168201915b50505060008c8152600e60209081526040918290206002908101805484516001821615610100026000190190911692909204601f8101849004840283018401909452838252959c50949350909150830182828015612a615780601f10612a3657610100808354040283529160200191612a61565b820191906000526020600020905b815481529060010190602001808311612a4457829003601f168201915b50505060008c8152600e60209081526040918290206003018054835160026001831615610100026000190190921691909104601f8101849004840282018401909452838152959b509350909150830182828015612aff5780601f10612ad457610100808354040283529160200191612aff565b820191906000526020600020905b815481529060010190602001808311612ae257829003601f168201915b50505060008c8152600e60209081526040918290206004018054835160026001831615610100026000190190921691909104601f8101849004840282018401909452838152959a509350909150830182828015612b9d5780601f10612b7257610100808354040283529160200191612b9d565b820191906000526020600020905b815481529060010190602001808311612b8057829003601f168201915b50505060008c8152600e60209081526040918290206008018054835160026001831615610100026000190190921691909104601f81018490048402820184019094528381529599509350909150830182828015612c3b5780601f10612c1057610100808354040283529160200191612c3b565b820191906000526020600020905b815481529060010190602001808311612c1e57829003601f168201915b505050505092506040518060600160405280600e60008c8152602001908152602001600020600501548152602001600e60008c8152602001908152602001600020600601548152602001600e60008c815260200190815260200160002060070154815250915050919395979092949650565b612cb5612169565b612cf4576040805162461bcd60e51b81526020600482018190526024820152600080516020614224833981519152604482015290519081900360640190fd5b601855565b6001600160a01b03918216600090815260046020908152604080832093909416825291909152205460ff1690565b612d2f612169565b612d6e576040805162461bcd60e51b81526020600482018190526024820152600080516020614224833981519152604482015290519081900360640190fd5b6115a981613a3d565b612d7f612169565b612dbe576040805162461bcd60e51b81526020600482018190526024820152600080516020614224833981519152604482015290519081900360640190fd5b6001600160a01b03166000908152601b60205260409020805460ff19166001179055565b6000908152600160205260409020546001600160a01b0316151590565b6000612e0a82612de2565b612e455760405162461bcd60e51b815260040180806020018281038252602b815260200180614374602b913960400191505060405180910390fd5b6000612e50836119a3565b9050806001600160a01b0316846001600160a01b03161480612e8b5750836001600160a01b0316612e8084610f43565b6001600160a01b0316145b80612e9b5750612e9b8185612cf9565b949350505050565b612eae838383613ade565b612eb88382613c22565b6111688282613d17565b600082820183811015612811576040805162461bcd60e51b815260206004820152601b60248201527f536166654d6174683a206164646974696f6e206f766572666c6f770000000000604482015290519081900360640190fd5b600082612f2b575060006114ac565b82820282848281612f3857fe5b04146128115760405162461bcd60e51b81526004018080602001828103825260218152602001806141d36021913960400191505060405180910390fd5b612f7f8282613d55565b612f898282613d17565b6116e981613e86565b80612f9c81612de2565b612fe7576040805162461bcd60e51b8152602060048201526017602482015276151bdad95b88125108191bd95cc81b9bdd08195e1a5cdd604a1b604482015290519081900360640190fd5b60408051602480820185905282518083039091018152604490910182526020810180516001600160e01b0316630af978a560e31b178152600c549251825192936000936060936001600160a01b0390921692869290918291908083835b602083106130635780518252601f199092019160209182019101613044565b6001836020036101000a0380198251168184511680821785525050505050509050019150506000604051808303816000865af19150503d80600081146130c5576040519150601f19603f3d011682016040523d82523d6000602084013e6130ca565b606091505b509150915060608060608060606130df61409b565b868060200190516101008110156130f557600080fd5b8101908080516040519392919084600160201b82111561311457600080fd5b90830190602082018581111561312957600080fd5b8251600160201b81118282018810171561314257600080fd5b82525081516020918201929091019080838360005b8381101561316f578181015183820152602001613157565b50505050905090810190601f16801561319c5780820380516001836020036101000a031916815260200191505b5060405260200180516040519392919084600160201b8211156131be57600080fd5b9083019060208201858111156131d357600080fd5b8251600160201b8111828201881017156131ec57600080fd5b82525081516020918201929091019080838360005b83811015613219578181015183820152602001613201565b50505050905090810190601f1680156132465780820380516001836020036101000a031916815260200191505b5060405260200180516040519392919084600160201b82111561326857600080fd5b90830190602082018581111561327d57600080fd5b8251600160201b81118282018810171561329657600080fd5b82525081516020918201929091019080838360005b838110156132c35781810151838201526020016132ab565b50505050905090810190601f1680156132f05780820380516001836020036101000a031916815260200191505b5060405260200180516040519392919084600160201b82111561331257600080fd5b90830190602082018581111561332757600080fd5b8251600160201b81118282018810171561334057600080fd5b82525081516020918201929091019080838360005b8381101561336d578181015183820152602001613355565b50505050905090810190601f16801561339a5780820380516001836020036101000a031916815260200191505b5060405260200180516040519392919084600160201b8211156133bc57600080fd5b9083019060208201858111156133d157600080fd5b8251600160201b8111828201881017156133ea57600080fd5b82525081516020918201929091019080838360005b838110156134175781810151838201526020016133ff565b50505050905090810190601f1680156134445780820380516001836020036101000a031916815260200191505b5060405260200191905050955095509550955095509550876134ad576040805162461bcd60e51b815260206004820152601760248201527f67656e6572617465496e766573746f72206661696c6564000000000000000000604482015290519081900360640190fd5b60008b8152600e6020908152604090912087516134cc9289019061401d565b5060008b8152600e6020908152604090912086516134f29260019092019188019061401d565b5060008b8152600e6020908152604090912085516135189260029092019187019061401d565b50805160008c8152600e6020908152604090912060058101929092558451613546926003019186019061401d565b5060208082015160008d8152600e835260409020600681019190915583516135769260049092019185019061401d565b5060409081015160009b8c52600e6020529a2060070199909955505050505050505050565b5490565b60008060606135b6866001600160a01b0316613eca565b6135c557600192505050612e9b565b856001600160a01b031663150b7a0260e01b3389888860405160240180856001600160a01b03166001600160a01b03168152602001846001600160a01b03166001600160a01b0316815260200183815260200180602001828103825283818151815260200191508051906020019080838360005b83811015613651578181015183820152602001613639565b50505050905090810190601f16801561367e5780820380516001836020036101000a031916815260200191505b5060408051601f198184030181529181526020820180516001600160e01b03166001600160e01b0319909a16999099178952518151919890975087965094509250829150849050835b602083106136e65780518252601f1990920191602091820191016136c7565b6001836020036101000a0380198251168184511680821785525050505050509050019150506000604051808303816000865af19150503d8060008114613748576040519150601f19603f3d011682016040523d82523d6000602084013e61374d565b606091505b50805191935091501580159061378a57508051630a85bd0160e11b906020808401919081101561377c57600080fd5b50516001600160e01b031916145b1561379a57600192505050612e9b565b856001600160a01b0316636745782b60e01b3389888860405160240180856001600160a01b03166001600160a01b03168152602001846001600160a01b03166001600160a01b0316815260200183815260200180602001828103825283818151815260200191508051906020019080838360005b8381101561382657818101518382015260200161380e565b50505050905090810190601f1680156138535780820380516001836020036101000a031916815260200191505b5060408051601f198184030181529181526020820180516001600160e01b03166001600160e01b0319909a16999099178952518151919890975087965094509250829150849050835b602083106138bb5780518252601f19909201916020918201910161389c565b6001836020036101000a0380198251168184511680821785525050505050509050019150506000604051808303816000865af19150503d806000811461391d576040519150601f19603f3d011682016040523d82523d6000602084013e613922565b606091505b50805191935091501580159061395f57508051636745782b60e01b906020808401919081101561395157600080fd5b50516001600160e01b031916145b1561396f57600192505050612e9b565b5060009695505050505050565b6060816139a157506040805180820190915260018152600360fc1b6020820152610ea7565b8160005b81156139b957600101600a820491506139a5565b6060816040519080825280601f01601f1916602001820160405280156139e6576020820181803883390190505b50905060001982015b8515613a3457600a860660300160f81b82828060019003935081518110613a1257fe5b60200101906001600160f81b031916908160001a905350600a860495506139ef565b50949350505050565b6001600160a01b038116613a825760405162461bcd60e51b81526004018080602001828103825260268152602001806140f46026913960400191505060405180910390fd5b600b546040516001600160a01b038084169216907f8be0079c531659141344cd1fd0a4f28419497f9722a3daafe3b4186f6b6457e090600090a3600b80546001600160a01b0319166001600160a01b0392909216919091179055565b826001600160a01b0316613af1826119a3565b6001600160a01b031614613b365760405162461bcd60e51b815260040180806020018281038252602881526020018061429d6028913960400191505060405180910390fd5b6001600160a01b038216613b7b5760405162461bcd60e51b815260040180806020018281038252602381526020018061413b6023913960400191505060405180910390fd5b613b8481613ed0565b6001600160a01b0383166000908152600360205260409020613ba590613f0b565b6001600160a01b0382166000908152600360205260409020613bc690613f22565b60008181526001602052604080822080546001600160a01b0319166001600160a01b0386811691821790925591518493918716917fddf252ad1be2c89b69c2b068fc378daa952ba7f163c4a11628f55a4df523b3ef91a4505050565b6001600160a01b038216600090815260056020526040812054613c4c90600163ffffffff613f2b16565b600083815260066020526040902054909150808214613ce7576001600160a01b0384166000908152600560205260408120805484908110613c8957fe5b906000526020600020015490508060056000876001600160a01b03166001600160a01b031681526020019081526020016000208381548110613cc757fe5b600091825260208083209091019290925591825260069052604090208190555b6001600160a01b0384166000908152600560205260409020805490613d109060001983016140b9565b5050505050565b6001600160a01b0390911660009081526005602081815260408084208054868652600684529185208290559282526001810183559183529091200155565b6001600160a01b038216613db0576040805162461bcd60e51b815260206004820152601f60248201527f4b495031373a206d696e7420746f20746865207a65726f206164647265737300604482015290519081900360640190fd5b613db981612de2565b15613e0b576040805162461bcd60e51b815260206004820152601b60248201527f4b495031373a20746f6b656e20616c7265616479206d696e7465640000000000604482015290519081900360640190fd5b600081815260016020908152604080832080546001600160a01b0319166001600160a01b038716908117909155835260039091529020613e4a90613f22565b60405181906001600160a01b038416906000907fddf252ad1be2c89b69c2b068fc378daa952ba7f163c4a11628f55a4df523b3ef908290a45050565b600780546000838152600860205260408120829055600182018355919091527fa66cc928b5edb82af9bd49922954155ab7b0942694bea4ce44661d9a8736c6880155565b3b151590565b6000818152600260205260409020546001600160a01b0316156115a957600090815260026020526040902080546001600160a01b0319169055565b8054613f1e90600163ffffffff613f2b16565b9055565b80546001019055565b600061281183836040518060400160405280601e81526020017f536166654d6174683a207375627472616374696f6e206f766572666c6f77000081525060008184841115613ff75760405162461bcd60e51b81526004018080602001828103825283818151815260200191508051906020019080838360005b83811015613fbc578181015183820152602001613fa4565b50505050905090810190601f168015613fe95780820380516001836020036101000a031916815260200191505b509250505060405180910390fd5b505050900390565b6040518060c001604052806006906020820280388339509192915050565b828054600181600116156101000203166002900490600052602060002090601f016020900481019282601f1061405e57805160ff191683800117855561408b565b8280016001018555821561408b579182015b8281111561408b578251825591602001919060010190614070565b506140979291506140d9565b5090565b60405180606001604052806003906020820280388339509192915050565b815481835581811115611168576000838152602090206111689181019083015b610f4091905b8082111561409757600081556001016140df56fe4f776e61626c653a206e6577206f776e657220697320746865207a65726f2061646472657373546f6f206d616e79207265717565737473206f72207a65726f20726571756573744b495031373a207472616e7366657220746f20746865207a65726f2061646472657373596f7520617265206e6f7420746865206f776e6572206f66207468696e20746f6b656e4b49503137456e756d657261626c653a206f776e657220696e646578206f7574206f6620626f756e64734b495031373a206f776e657220717565727920666f72206e6f6e6578697374656e7420746f6b656e536166654d6174683a206d756c7469706c69636174696f6e206f766572666c6f774b495031373a207472616e736665722063616c6c6572206973206e6f74206f776e6572206e6f7220617070726f7665644f776e61626c653a2063616c6c6572206973206e6f7420746865206f776e65724b495031373a207472616e7366657220746f206e6f6e204b49503137526563656976657220696d706c656d656e7465724b495031373a2062616c616e636520717565727920666f7220746865207a65726f20616464726573734b495031373a207472616e73666572206f6620746f6b656e2074686174206973206e6f74206f776e4b49503137456e756d657261626c653a20676c6f62616c20696e646578206f7574206f6620626f756e64735468652077686974656c6973742073616c65206973206e6f7420656e61626c6564214b495031373a20617070726f76656420717565727920666f72206e6f6e6578697374656e7420746f6b656e4b495031373a20617070726f76652063616c6c6572206973206e6f74206f776e6572206e6f7220617070726f76656420666f7220616c6c4b495031373a206f70657261746f7220717565727920666f72206e6f6e6578697374656e7420746f6b656ea265627a7a723158200a8cfd2488997f2d126c729df2f69a856bfd7cd47b098875fa25aa05c454d84164736f6c63430005110032",
  "source": "pragma solidity ^0.5.0;\r\n\r\nimport \"./KIP17.sol\";\r\nimport \"./KIP17Enumerable.sol\";\r\nimport \"./KIP17Metadata.sol\";\r\nimport \"./Decent.sol\";\r\n\r\n/**\r\n * @title Full KIP-17 Token\r\n * This implementation includes all the required and some optional functionality of the KIP-17 standard\r\n * Moreover, it includes approve all functionality using operator terminology\r\n * @dev see http://kips.klaytn.com/KIPs/kip-17-non_fungible_token\r\n */\r\ncontract DecentToken is KIP17, KIP17Enumerable, KIP17Metadata, Decent {\r\n    constructor (string memory name, string memory symbol, address proxyAddress, address rewardAddress) public KIP17Metadata(name, symbol) Decent(proxyAddress,rewardAddress) {\r\n        // solhint-disable-previous-line no-empty-blocks\r\n    }\r\n}",
  "sourcePath": "C:\\solidity\\contractDevEnv\\decent-contract\\contracts\\DecentToken.sol",
  "compiler": {
    "name": "solc",
    "version": "0.5.17+commit.d19bba13.Emscripten.clang"
  },
  "schemaVersion": "3.4.6",
  "updatedAt": "2022-07-10T11:16:07.318Z",
  "devdoc": {
    "details": "see http://kips.klaytn.com/KIPs/kip-17-non_fungible_token",
    "methods": {
      "approve(address,uint256)": {
        "details": "Approves another address to transfer the given token ID The zero address indicates there is no approved address. There can only be one approved address per token at a given time. Can only be called by the token owner or an approved operator.",
        "params": {
          "to": "address to be approved for the given token ID",
          "tokenId": "uint256 ID of the token to be approved"
        }
      },
      "balanceOf(address)": {
        "details": "Gets the balance of the specified address.",
        "params": {
          "owner": "address to query the balance of"
        },
        "return": "uint256 representing the amount owned by the passed address"
      },
      "getApproved(uint256)": {
        "details": "Gets the approved address for a token ID, or zero if no address set Reverts if the token ID does not exist.",
        "params": {
          "tokenId": "uint256 ID of the token to query the approval of"
        },
        "return": "address currently approved for the given token ID"
      },
      "isApprovedForAll(address,address)": {
        "details": "Tells whether an operator is approved by a given owner.",
        "params": {
          "operator": "operator address which you want to query the approval of",
          "owner": "owner address which you want to query the approval of"
        },
        "return": "bool whether the given operator is approved by the given owner"
      },
      "isOwner()": {
        "details": "Returns true if the caller is the current owner."
      },
      "name()": {
        "details": "Gets the token name.",
        "return": "string representing the token name"
      },
      "owner()": {
        "details": "Returns the address of the current owner."
      },
      "ownerOf(uint256)": {
        "details": "Gets the owner of the specified token ID.",
        "params": {
          "tokenId": "uint256 ID of the token to query the owner of"
        },
        "return": "address currently marked as the owner of the given token ID"
      },
      "renounceOwnership()": {
        "details": "Leaves the contract without owner. It will not be possible to call `onlyOwner` functions anymore. Can only be called by the current owner.      * > Note: Renouncing ownership will leave the contract without an owner, thereby removing any functionality that is only available to the owner."
      },
      "safeTransferFrom(address,address,uint256)": {
        "details": "Safely transfers the ownership of a given token ID to another address If the target address is a contract, it must implement `onKIP17Received`, which is called upon a safe transfer, and return the magic value `bytes4(keccak256(\"onKIP17Received(address,address,uint256,bytes)\"))`; otherwise, the transfer is reverted. Requires the msg.sender to be the owner, approved, or operator",
        "params": {
          "from": "current owner of the token",
          "to": "address to receive the ownership of the given token ID",
          "tokenId": "uint256 ID of the token to be transferred"
        }
      },
      "safeTransferFrom(address,address,uint256,bytes)": {
        "details": "Safely transfers the ownership of a given token ID to another address If the target address is a contract, it must implement `onKIP17Received`, which is called upon a safe transfer, and return the magic value `bytes4(keccak256(\"onKIP17Received(address,address,uint256,bytes)\"))`; otherwise, the transfer is reverted. Requires the msg.sender to be the owner, approved, or operator",
        "params": {
          "_data": "bytes data to send along with a safe transfer check",
          "from": "current owner of the token",
          "to": "address to receive the ownership of the given token ID",
          "tokenId": "uint256 ID of the token to be transferred"
        }
      },
      "setApprovalForAll(address,bool)": {
        "details": "Sets or unsets the approval of a given operator An operator is allowed to transfer all tokens of the sender on their behalf.",
        "params": {
          "approved": "representing the status of the approval to be set",
          "to": "operator address to set the approval"
        }
      },
      "supportsInterface(bytes4)": {
        "details": "See `IKIP13.supportsInterface`.      * Time complexity O(1), guaranteed to always use less than 30 000 gas."
      },
      "symbol()": {
        "details": "Gets the token symbol.",
        "return": "string representing the token symbol"
      },
      "tokenByIndex(uint256)": {
        "details": "Gets the token ID at a given index of all the tokens in this contract Reverts if the index is greater or equal to the total number of tokens.",
        "params": {
          "index": "uint256 representing the index to be accessed of the tokens list"
        },
        "return": "uint256 token ID at the given index of the tokens list"
      },
      "tokenOfOwnerByIndex(address,uint256)": {
        "details": "Gets the token ID at a given index of the tokens list of the requested owner.",
        "params": {
          "index": "uint256 representing the index to be accessed of the requested tokens list",
          "owner": "address owning the tokens list to be accessed"
        },
        "return": "uint256 token ID at the given index of the tokens list owned by the requested address"
      },
      "totalSupply()": {
        "details": "Gets the total amount of tokens stored by the contract.",
        "return": "uint256 representing the total amount of tokens"
      },
      "transferFrom(address,address,uint256)": {
        "details": "Transfers the ownership of a given token ID to another address. Usage of this method is discouraged, use `safeTransferFrom` whenever possible. Requires the msg.sender to be the owner, approved, or operator.",
        "params": {
          "from": "current owner of the token",
          "to": "address to receive the ownership of the given token ID",
          "tokenId": "uint256 ID of the token to be transferred"
        }
      },
      "transferOwnership(address)": {
        "details": "Transfers ownership of the contract to a new account (`newOwner`). Can only be called by the current owner."
      }
    },
    "title": "Full KIP-17 Token This implementation includes all the required and some optional functionality of the KIP-17 standard Moreover, it includes approve all functionality using operator terminology"
  },
  "userdoc": {
    "methods": {}
  }
}